:1000000007C1000036C1000034C1000032C1000049
:1000100030C100002EC100002CC100002AC1000028
:1000200028C1000026C1000024C1000022C1000038
:1000300020C100001EC100001CC100001AC1000048
:1000400018C1000016C1000014C1000012C1000058
:1000500010C100000EC100000CC100000C94A80DDE
:1000600008C1000006C1000004C1000002C1000078
:1000700000C10000FEC00000FCC00000FAC000008B
:10008000F8C00000F6C00000F4C00000F2C000009C
:10009000F0C00000EEC00000ECC00000EAC00000AC
:1000A000E8C00000E6C00000E4C00000E2C00000BC
:1000B000E0C00000DEC00000DCC00000DAC00000CC
:1000C000D8C00000D6C00000D4C00000D2C00000DC
:1000D000D0C00000CEC00000CCC00000CAC00000EC
:1000E000C8C000007A0A7D0A6C0A700A740AB40A51
:1000F000810A850A8B0A8F0A930A990A9D0AA10A26
:10010000B40AA70AAB0AAF0A00000A0B02090C0DD9
:100110000E080703040100000000000000000000BA
:1001200000000000000000000000000000000000CF
:10013000000000001211100000000000000000008C
:1001400000000000000000000000000000000000AF
:100150002200250028002B002E003100340002016F
:100160000000050108010B01000021002400270008
:100170002A002D00300033000101000004010701B6
:100180000A0105050505070508080808020202021C
:100190000A0A080804040404010101010101010123
:1001A0000303030303030303040707070C0C0C0CEE
:1001B0000C0C0C0C020202020606060606060606D7
:1001C0000B0B0B0B0B0B0B0B010210202008081064
:1001D00020401020408002010201080402010102B7
:1001E0000408102040808040201008040201800490
:1001F00002018040201008040201080402010102EB
:1002000004081020408001020408102040803110B2
:1002100011241FBECFEFD1E2DEBFCDBF00E00CBF87
:1002200012E0A0E0B2E0E2E1F7E200E00BBF02C0C2
:1002300007900D92A43CB107D9F726E0A4ECB2E0F8
:1002400001C01D92A73FB207E1F711E0C8E0D1E07D
:1002500000E006C021970109802FFE010E9467136C
:10026000C730D10780E00807A9F70E94A4100C94BA
:100270008713C6CE2091E30290E0233311F40C964D
:1002800001C04896982F990F990F990F80E0089513
:100290000895CF93DF931F92CDB7DEB76983DC015A
:1002A000ED91FC910280F381E02D41E050E0BE0130
:1002B0006F5F7F4F19950F90DF91CF910895FC01EB
:1002C000818D928D0895FC01848595850895FC01AA
:1002D00084899589089526E732E0FC0131832083E3
:1002E000FB014089518962897389FC0142835383F0
:1002F000648375830895DC01ED91FC91048CF58D88
:10030000E02D199480E00895089580E090E008952C
:10031000E091E102F091E20290818091E002892B6C
:1003200080830895E091E102F091E2029081809152
:10033000E0028095892380830895CF93DF931F92F5
:10034000CDB7DEB741E050E0BE016F5F7F4F80E088
:1003500090E00E94ED0E89810F90DF91CF9108957A
:10036000CF93DF931F92CDB7DEB7898341E050E092
:10037000BE016F5F7F4F80E090E00E94770F0F908B
:10038000DF91CF910895CF93DF9380E8E9DFC4E157
:10039000D0E0D3DF882351F061E070E080E090E0AE
:1003A0000E94640D2197A9F780E001C081E0DF91F0
:1003B000CF9108958EBD00000DB407FEFDCF8EB520
:1003C0000895DA019091E402E92FF0E0FE2FEE2784
:1003D000E60FF71F90E0982F8827A901BD018E0F27
:1003E0009F1F0C94770FCF93DF931F921F92CDB76F
:1003F000DEB779836A8322E030E0AE014F5F5F4F62
:1004000064E070E0DEDF0F900F90DF91CF910895F0
:10041000CF93DF931F92CDB7DEB79091E402292FDF
:1004200030E0322F2227260F371F90E0982F8827A1
:10043000498341E050E0BE016F5F7F4F820F931F01
:100440000E94770F0F90DF91CF910895CF93DF93A4
:100450001F92CDB7DEB79091E402292F30E0322F02
:100460002227260F371F90E0982F882741E050E081
:10047000BE016F5F7F4F820F931F0E94ED0E898137
:100480000F90DF91CF910895DA019091E402E92F66
:10049000F0E0FE2FEE27E60FF71F90E0982F882759
:1004A000A901BD018E0F9F1F0C94ED0EFF920F93BB
:1004B0001F93CF93DF931F921F92CDB7DEB7F82E15
:1004C00022E030E0AE014F5F5F4F66E270E0DCDFBC
:1004D00009811A8110270127102722E030E0AE01A0
:1004E0004F5F5F4F66E270E08F2DCEDF89819A818A
:1004F0009827892798270817190711F08C01EDCF45
:10050000C8010F900F90DF91CF911F910F91FF9035
:10051000089508958CBD9DBD08954F925F927F927E
:100520008F929F92AF92BF92CF92DF92EF92FF9203
:100530000F931F93CF93DF931F921F92CDB7DEB718
:10054000782E6B014A01A82EB12C27E0829FC001B2
:100550001124AC014B585C4F7A01FA0100811181E2
:10056000CE010196DBD689819A81D4DF0815190561
:100570004CF4872D9BDFF70126818C01021B1109AA
:100580001183008301151105A1F463E070E0872D4C
:100590005DDF843109F47DC0882309F47AC001E06D
:1005A00010E08C3111F400E010E011950195110973
:1005B00070C0801691060CF4840187E08A9DF001DA
:1005C0008B9DF00D1124EB58FC4FE280F380C11499
:1005D000D10449F12701F7E05F22872D4BDE840D1E
:1005E000951D2091E302273319F4A801B60119C023
:1005F0009801240D351D21303840B8F320E038E053
:10060000490184189508A401B6010E94ED0E260147
:10061000480C591C6801C818D908872D2BDEA60183
:10062000B2010E94ED0EE00EF11E87E08A9DF001FE
:100630008B9DF00D1124EB58FC4FF382E2828081F8
:100640009181801B910B918380832681A801420FA9
:10065000511D4A3F510510F4892BD1F487E08A9D42
:10066000F0018B9DF00D1124EB58FC4F1682F9829E
:10067000EA8222E030E0AE014F5F5F4F68E270E057
:10068000872D9FDE60E470E0872D0E94F20D01C08F
:100690004683C8010F900F90DF91CF911F910F916A
:1006A000FF90EF90DF90CF90BF90AF909F908F9092
:1006B0007F905F904F900895CF93DF93FC01218D41
:1006C000328D2115310519F48FEF9FEF10C0EC0129
:1006D0004217530708F0A901888D1FDF1816190665
:1006E0009CF7298D3A8D281B390B3A8F298FDF9182
:1006F000CF9108950F931F93CF93DF931F92CDB7A0
:10070000DEB7FC01218D328D232B59F08C0141E0A5
:1007100050E0BE016F5F7F4F808DFFDE1816190617
:100720001CF08FEF9FEF08C0F801818D928D01972B
:10073000928F818F898190E00F90DF91CF911F91EF
:100740000F9108951F93CF93DF931F921F92CDB700
:10075000DEB7182FCE010196E1D589819A81DADEC4
:1007600060E170E0812F0E94F20D0F900F90DF91F9
:10077000CF911F910895CF92DF92EF92FF920F9346
:100780001F93CF93DF9300D000D0CDB7DEB78C019D
:100790006B017A01FC01808D883008F4D3DF86E795
:1007A00092E09A838983F60182819381A481B58145
:1007B0008B839C83AD83BE83B701CE0101960E94DB
:1007C000020EF801808F883030F4F586E486128EB0
:1007D000118E81E001C080E026960FB6F894DEBF4E
:1007E0000FBECDBFDF91CF911F910F91FF90EF9082
:1007F000DF90CF900895CF93DF93FC01808D8830F8
:1008000020F4EF019FDF88E0888FDF91CF9108957A
:100810001F93CF93DF931F921F92CDB7DEB7FC01DA
:10082000108D183008F5818D928D892BE9F0CE015D
:10083000019674D589819A816DDE812F1BDD27E0B9
:10084000129FF0011124EB58FC4F22813381377045
:1008500041E050E0BE016F5F7F4F820F931F0E9407
:10086000ED0E898190E002C08FEF9FEF0F900F9007
:10087000DF91CF911F910895DF92EF92FF920F9336
:100880001F93CF93DF93CDB7DEB728970FB6F894B9
:10089000DEBF0FBECDBF8C01D80159964D915C9142
:1008A0005A974115510551F0ED91FC91048CF58D4D
:1008B000E02D60E070E0C8011995EECFF801D08C12
:1008C000F7E0DF9EC00111249C012B583C4F7901B9
:1008D000D9018D919C91892B41F148E050E0BE01F6
:1008E0006F5F7F4FF801808D18DE181619068CF5A2
:1008F000D801509684E0FE01319601900D928A95C0
:10090000E1F78D8190E0982F88272E81820F911D2D
:10091000F801958B848B8F8190E0982F882728850C
:10092000820F911D928F818F14C0CE010196F6D453
:1009300089819A81EFDD8D2DB9DDD70116962C9135
:100940001697821B91098D939C93892B31F680E039
:1009500090E028960FB6F894DEBF0FBECDBFDF91B2
:10096000CF911F910F91FF90EF90DF9008952F92FC
:100970003F925F926F927F928F929F92AF92BF92BF
:10098000CF92DF92EF92FF920F931F93CF93DF935B
:100990001F921F92CDB7DEB75C014B013A01FC01FB
:1009A00026883788508CCE010196B8D489819A81E7
:1009B000B1DD22E030E0AE014F5F5F4F60E270E0FA
:1009C000852D62DDC980DA80DC24CD24DC2422E0A0
:1009D00030E0AE014F5F5F4F60E270E0852D54DD87
:1009E00089819A81982789279827C816D90611F0F6
:1009F0006C01EDCF052D10E067E0569EF00111244B
:100A0000EB58FC4FD582C4827301C614D70408F496
:100A1000760122E030E0AE014F5F5F4F64E270E0AC
:100A2000852D32DD69807A80762467247624620CF5
:100A3000731C930137704091E302C801433311F4F2
:100A4000089601C04096982F8827990F990F990F03
:100A5000820F931F473319F4A701B40120C0A901E5
:100A60004E0D5F1D41305840B8F360E078E06B01F7
:100A7000C21AD30AA601B4010E94770FA7014C192C
:100A80005D09B4016C0D7D1D8091E302833391F506
:100A9000085F1F4F902F990F990F990F80E00E94C8
:100AA000770F6E0C7F1C79826A8222E030E0AE0103
:100AB0004F5F5F4F64E270E0852D83DCF50186892E
:100AC00097898E0D9F1D978B868BC7010F900F9076
:100AD000DF91CF911F910F91FF90EF90DF90CF901A
:100AE000BF90AF909F908F907F906F905F903F905E
:100AF0002F900895005F1F4FCDCF1F93CF93DF93AB
:100B00001F921F92CDB7DEB7FC01108DCE0101966A
:100B100005D489819A81FEDC60E270E0812F0E9419
:100B2000F20D62E070E0812F91DC84FD14C062E080
:100B300070E0812F8BDC83FF07C048E162E070E04A
:100B4000812F66DC80E00DC0CE010196E7D389815C
:100B50009A81E0DCE6CF40E162E070E0812F58DC72
:100B600081E090E00F900F90DF91CF911F91089559
:100B7000DF92EF92FF920F931F93CF93DF931F9219
:100B80001F92CDB7DEB7FB01DC0157961C921E9277
:100B900056972281211109C02381211106C0248189
:100BA000211103C02581222319F14115510501F1BD
:100BB0007A018F01FC01D08CCE010196AFD38981DF
:100BC0009A81A8DCA8014E5F5F4F24E030E06CE022
:100BD00070E08D2DF6DBF982EA8222E030E0AE0192
:100BE0004F5F5F4F60E170E08D2DEBDB81E001C076
:100BF00080E090E00F900F90DF91CF911F910F91C7
:100C0000FF90EF90DF9008958F929F92AF92BF92E6
:100C1000CF92DF92EF92FF920F931F93CF93DF93C8
:100C2000CDB7DEB72A970FB6F894DEBF0FBECDBFA3
:100C30006C015B01FC01808D883008F483DD8091BC
:100C4000E302811102C018E07FC0833311F008E095
:100C500001C004E0CE01019661D389819A815ADCFA
:100C60009E012F5F3F4F7901490110E063E070E082
:100C7000812FECDBF40181934F018823B1F01F5FDA
:100C80000113F4CF10E0F70181917F018D3149F01C
:100C9000883139F08A51823020F01F5F0113F3CF81
:100CA000D2CF60E170E0812F9DD7E12EF12C83EE51
:100CB00093E00197F1F742E060E070E0812FA8DB5C
:100CC0004FEF62E070E0812FA3DBA114B10411F0BB
:100CD000B50113C080910002909101020196811527
:100CE000F0EC9F0710F480E090EC90930102809369
:100CF00000026091000270910102812F74DB61E0BB
:100D000070E0812F6FD727E02E9DC0012F9D900DA1
:100D100011249C012B583C4F7901F901118210825A
:100D200022E030E0AE01475F5F4F68E270E0812F64
:100D3000ABDB89859A85982789279827F7019383C4
:100D40008283168215821482F601108F183030F4D7
:100D5000B586A486128E118E81E001C080E02A96AD
:100D60000FB6F894DEBF0FBECDBFDF91CF911F91BC
:100D70000F91FF90EF90DF90CF90BF90AF909F903A
:100D80008F9008956F927F928F929F92AF92BF92B1
:100D9000CF92DF92EF92FF920F931F93CF93DF9347
:100DA000CDB7DEB7EC970FB6F894DEBF0FBECDBF60
:100DB0004C017B013A0186E792E09A8389831C8685
:100DC0001B8648EE53E060E070E04D875E876F87DA
:100DD000788B2CE432E03A872987988F8F8B198E95
:100DE0001A8E1B8E1C8E28E029A399AB88AB1AAAF9
:100DF0001BAA1CAA1DAA8091EE029091EF02A0915D
:100E0000F002B091F1028EA39FA3A8A7B9A78B838C
:100E10009C83AD83BE8318861F82F70120E080E0AB
:100E200090E06AE03191332319F140ED430F4A30ED
:100E300080F4689FA001699F500D1124CA01C097DA
:100E4000830F911D37FD9A958F3F910559F350F30C
:100E50002BC03E3249F5233039F1A2E3B0E0AC0FAC
:100E6000BD1FA20FB11D8C932F5F80E090E0DACF01
:100E70002330D1F48DABD401ED91FC910488F58938
:100E8000E02D86E792E09DA38CA38AA99BA9ACA93B
:100E9000BDA98EA39FA3A8A7B9A7A301BE016C5D9E
:100EA0007F4FC4011995DEC14B815C816D817E81CC
:100EB0008091F4029091F502A091F602B091F702B0
:100EC000481759076A077B0709F4CAC135D66F70FE
:100ED00077277C5FCE01099697DE813009F0BDC18E
:100EE00086E792E09DA38CA38B819C81AD81BE811E
:100EF0008EA39FA3A8A7B9A745E350E0BE016C5DF0
:100F00007F4FCE01099634DE892B19F400E010E002
:100F100053C112D678876F8342E050E0BE01695F0B
:100F20007F4FCE01099623DD81E090E09DA38CA345
:100F300042E050E0BE016C5D7F4FCE01099617DDA7
:100F400080E091E09DA38CA342E050E0BE016C5D87
:100F50007F4FCE0109960BDD1DA21CA242E050E09E
:100F6000BE016C5D7F4FCE01099601DD42E050E08D
:100F7000BE016C5D7F4FCE010996F9DC42E050E086
:100F8000BE016C5D7F4FCE010996F1DC6701D70190
:100F90008C91882301F186017801F70181915F012D
:100FA000882321F08E3211F08501F6CF0C191D092E
:100FB0001016110674F40EAB41E050E0BE016A5CFD
:100FC0007F4FCE010996D3DCA801B601CE01099668
:100FD000CEDC6501DCCF1EAA41E050E0BE016A5CB8
:100FE0007F4FCE010996C3DC00E011E01DA30CA3E6
:100FF00042E050E0BE016C5D7F4FCE010996B7DC48
:101000001DA30CA342E050E0BE016C5D7F4FCE01FA
:101010000996ADDCCE01099670DD892B09F476CFF7
:1010200083E0E82EF12C88D55B016C01CE01099696
:1010300023DC1816190694F07FD5DC01CB018A1940
:101040009B09AC09BD0989389341A105B105C0F4DC
:1010500062E370E080E090E037D5E8CF4B815C81BF
:101060006D817E81898D9A8DAB8DBC8D4817590716
:101070006A077B0741F48D8D9E8DC59721F406C0CC
:101080000FEF1FEF90C00EEF1FEF8DC08AA19BA145
:101090000C970CF4DFC04CE050E0BE016C5D7F4F5C
:1010A000CE01099609DB8EA19FA198278927982751
:1010B0009BAF8AAF4F8158852CA13DA142175307A2
:1010C00009F0BFC097FFBDC08F709270892B09F0E7
:1010D000BBC0AAA4BBA4BA24AB24BA24A114B104F3
:1010E00009F4B5C000E010E088A599A598278927E4
:1010F00098270817190708F468C0C12CD12C41E0C3
:1011000050E0BE01645C7F4FCE010996D5DA4CAD4C
:10111000842F807C09F077C0442331F050E060E0F8
:1011200070E0CE010996C8DA8CAD8111E8CF42E0BB
:1011300050E0BE01685C7F4FCE010996BDDA42E007
:1011400050E0BE016A5C7F4FCE010996B5DA44E0FB
:1011500050E060E070E0CE010996AEDA42E050E087
:10116000BE01665C7F4FCE010996A6DA88AD99ADC7
:101170004AAD5BAD8115914009F04EC00EA91FA983
:101180001027012710270130110509F045C041152E
:10119000544009F053C044E050E0BE016E5C7F4F04
:1011A000CE01099689DAF1E0EF1AF10829F00F3F34
:1011B000FFEF1F0709F437CFCE0109961CDB013082
:1011C000110509F458CEC8014DC041E050E0BE0100
:1011D0006A5C7F4FCE0109966FDA4EA9442331F045
:1011E00050E060E070E0CE01099666DA8EA98111C8
:1011F000ECCF44E050E060E070E0CE0109965CDAAC
:101200000F5F1F4F71CF41E050E060E070E0CE0112
:10121000099652DA1CAE88CF54274527542760E040
:1012200070E0CE01099648DAEFEFCE1ADE0AAC1470
:10123000BD0409F064CF06EF1FEFB5CF07EF1FEF36
:10124000B2CF0CEF1FEFAFCF0BEF1FEFACCF0AEF1A
:101250001FEFA9CF0DEF1FEFA6CF80E090E002C0F7
:101260008EEF9FEFEC960FB6F894DEBF0FBECDBFAA
:10127000DF91CF911F910F91FF90EF90DF90CF9072
:10128000BF90AF909F908F907F906F9008950F9335
:101290001F93CF93DF931F921F92CDB7DEB78C01C0
:1012A00086E792E0F8019183808312821382148290
:1012B0001582CE01019632D089819A812BD9B8014D
:1012C0006E5F7F4F44E050E08FE090E086D5C8012C
:1012D0000F900F90DF91CF911F910F91089590E0A3
:1012E000FC01E853FE4F2491FC01EE57FE4F849120
:1012F000882399F090E0880F991FFC01E859FE4F70
:10130000A591B491FC01E25BFE4F859194918FB75A
:10131000F894EC91E22BEC938FBF089520E5FC014B
:10132000208321E0218308950F931F93CF93DF93B0
:1013300000D000D0CDB7DEB78C01CE010196EEDF34
:1013400089819A81E7D886E792E09A838983F801B8
:1013500082819381A481B5818B839C83AD83BE837D
:1013600044E050E0BE016D5F7F4F85E090E0BFD567
:10137000D0D826960FB6F894DEBF0FBECDBFDF9152
:10138000CF911F910F910895CF92DF92EF92FF922C
:101390000F931F93CF93DF93CDB7DEB7C654D10918
:1013A0000FB6F894DEBF0FBECDBFFC0182819381E2
:1013B000A481B58123968CAF9DAFAEAFBFAF23970D
:1013C00021E023962FAF239723964CAD5DAD6EADF4
:1013D0007FAD23974BAB5CAB6DAB7EAB89AF9AAF68
:1013E000ABAFBCAF8DA79EA7AFA7B8AB28AB4DA541
:1013F0005EA56FA578A94FA358A769A77AA72EABBA
:101400004BA95CA96DA97EA949A35AA36BA37CA390
:101410008B8F9C8FAD8FBE8F46E752E05C8B4B8BE2
:101420003FEF3D8B3E8B3F8B188E5E874D872AA703
:10143000CFA0D8A4E9A4FAA4CF86D88AE98AFA8AE8
:101440002CA309A11AA12BA13CA109871A872B87DC
:101450003C875A8349838B839C83AD83BE83809171
:101460003E0381116FC160E372E080E090E02CD315
:101470001FB7F89480913D03811190C067EB71E034
:10148000FB0184912DEF31E0F9019491E82FF0E018
:10149000EE0FFF1FE859FE4FA591B4918C9189235F
:1014A00009F070C0EDE3F1E04491F9012491FB01F2
:1014B0009491992309F466C0442309F455C050E07F
:1014C000FA013197E231F10508F04EC08827EE5855
:1014D000FF4F8F4F0C946713809180008F7707C068
:1014E000809180008F7D03C080918000877F8093F2
:1014F00080003AC084B58F7702C084B58F7D84BDEB
:1015000033C08091B0008F7703C08091B0008F7D91
:101510008093B00029C0809190008F7707C08091A0
:1015200090008F7D03C080919000877F8093900012
:101530001BC08091A0008F7707C08091A0008F7D95
:1015400003C08091A000877F8093A0000DC0809190
:1015500020018F7707C0809120018F7D03C080918B
:101560002001877F80932001E92FF0E0EE0FFF1F1D
:10157000E25BFE4FA591B4919FB7F8948C91282B14
:101580002C939FBF85E3ABDE8CB580618CBD8CB5A1
:1015900080648CBD84E3A3DE83E3A1DE80913D0300
:1015A0008F5F80933D031FBFECE8F1E0E491F0E032
:1015B000EE0FFF1FE25BFE4F859194919093E20244
:1015C0008093E102E2EDF1E0E491E093E0028AE051
:1015D00086DE0E948801CE018D5B9F4F9FDE25969F
:1015E0008EAD9FAD25970E948A0284E38093E3022B
:1015F0000E94C301882311F188E00E94B0010E947B
:101600009D018830D9F480E10E94B0010E949D01C3
:101610008031A1F480E00E94B0010E949D018111FF
:101620000DC041E050E0BE016D5B7F4F8FE190E067
:10163000D4D324968FAD2497833061F187E38093D0
:10164000E3020E94C301882309F440C088E00E949D
:10165000B0010E949D018830C9F580E10E94B0016F
:101660000E949D01182F803189F580E00E94B00111
:101670000E949D0181112AC041E050E0BE016D5BD6
:101680007F4F89E390E0A9D324968FAD24978430CF
:10169000E9F414C080E48093E40210E042E06EE1DB
:1016A00070E0812F0E94080242E06FE170E0812F1C
:1016B0000E9408021F5F183089F702C01093E402ED
:1016C0000E94890281E080933E033CC083E38093C3
:1016D000E3020E94C301882381F180E10E94B001EE
:1016E0000E949D01803149F582E10E94B0010E9473
:1016F0009D01823111F580E00E94B0010E949D01A0
:1017000081111BC084E08093E40215E527961FAF8A
:10171000279741E050E0BE016A5B7F4F8BE190E08C
:10172000E6D326961FAF269741E050E0BE016B5BE3
:101730007F4F8AE190E0DBD3C3CF1092E3020E9497
:10174000890239C0CE018D5B9F4FE8DD25968EADB5
:101750009FAD25970E948A0246E050E065EE72E058
:1017600089E090E0C4D344E050E0BE016D5F7F4F5C
:101770008FE090E0BCD344E050E0BE01615F7F4F5A
:1017800081E090E0B4D344E050E0BE016B5E7F4F57
:1017900085E090E0ACD30E94890281E08C87898546
:1017A0009A85AB85BC858093EE029093EF02A0935F
:1017B000F002B093F102CA5BDF4F0FB6F894DEBFC0
:1017C0000FBECDBFDF91CF911F910F91FF90EF9092
:1017D000DF90CF900895CF93DF9300D000D0CDB7A6
:1017E000DEB781E48093130382E78093140384E7D8
:1017F000809315039DE2909316039EE49093170344
:1018000095E6909318038093190310921A0380E0D1
:1018100090E590931C0380931B0380E09EE09093DF
:101820001E0380931D0310921F0310922003109239
:1018300022031092210380E098E190932403809387
:101840002303E4ECF2E0A5E2B3E081918D9382E022
:10185000EC3DF807D1F786E792E09A83898380917F
:10186000DC029091DD02A091DE02B091DF028B8359
:101870009C83AD83BE8346E359E1BE016F5F7F4F1A
:1018800088EF92E075D94AE250E063E173E088EFB7
:1018900092E06DD888EF92E030D980E026960FB6BE
:1018A000F894DEBF0FBECDBFDF91CF9108953FB753
:1018B000F8948091F3069091F406A091F506B0910A
:1018C000F60626B5A89B05C02F3F19F00196A11D6D
:1018D000B11D3FBFBA2FA92F982F8827820F911DC6
:1018E000A11DB11DBC01CD0142E0660F771F881F0D
:1018F000991F4A95D1F70895CF92DF92EF92FF9208
:101900000F931F93CF93DF936C017A018B01C0E09B
:10191000D0E0CE15DF0581F0D8016D918D01D601A3
:10192000ED91FC910190F081E02DC6011995892B74
:1019300011F02196EECF7E01C701DF91CF911F916B
:101940000F91FF90EF90DF90CF900895FC012081E0
:101950002EBD9B012150310941F051810DB407FE8C
:10196000FDCF4EB55EBD4193F5CF61507109FC01CD
:10197000E60FF71F0DB407FEFDCF8EB580830895E7
:101980008F929F92AF92BF92EF92FF920F931F930D
:10199000CF93DF93CDB7DEB7A1970FB6F894DEBF34
:1019A0000FBECDBF7C01FA01CB0119A2223008F491
:1019B0002AE08E010F5D1F4F822E912CA12CB12C9D
:1019C000BF01A501940161D6F901CA0101501109B5
:1019D0006A3014F4605D01C0695CD8016C93232BFC
:1019E000242B252B69F70115110591F0F8010190C1
:1019F0000020E9F73197AF01401B510BD701ED9162
:101A0000FC910280F381E02DB801C701199502C055
:101A100080E090E0A1960FB6F894DEBF0FBECDBF78
:101A2000DF91CF911F910F91FF90EF90BF90AF90FA
:101A30009F908F90089553D68F929F92AF92BF92AE
:101A4000CF92DF92EF92FF920F931F93CF93DF938A
:101A50007C01EB016C0182E0C80ED11C4701E5E07E
:101A60008E0E911C00E010E0F60141916F0150E0F4
:101A700060E070E02AE0CE0183DF5C01E881F9815B
:101A80000190F081E02D6EE2CE0119958A0D9B1D2B
:101A9000080F191F8C149D0439F7F701458150E098
:101AA00060E070E02AE0CE016BDF800F911FDF91D4
:101AB000CF911F910F91FF90EF90DF90CF90BF904B
:101AC000AF909F908F9008958F929F92AF92BF9208
:101AD000CF92DF92EF92FF926B017C01E8DE4B0127
:101AE0005C01C114D104E104F104E9F0E0DEDC01A1
:101AF000CB0188199909AA09BB09883E9340A10521
:101B0000B10578F321E0C21AD108E108F10888EEA6
:101B1000880E83E0981EA11CB11CC114D104E104FD
:101B2000F10421F7DECFFF90EF90DF90CF90BF90D0
:101B3000AF909F908F9008952FB7F8946091EF0623
:101B40007091F0068091F1069091F2062FBF0895F2
:101B50001F920F920FB60F9211242F933F938F93E2
:101B60009F93AF93BF938091EF069091F006A09161
:101B7000F106B091F2063091EE0623E0230F2D37E7
:101B800020F40196A11DB11D05C026E8230F029681
:101B9000A11DB11D2093EE068093EF069093F006F1
:101BA000A093F106B093F2068091F3069091F406AB
:101BB000A091F506B091F6060196A11DB11D809386
:101BC000F3069093F406A093F506B093F606BF9142
:101BD000AF919F918F913F912F910F900FBE0F90DA
:101BE0001F901895CF93C82F462F61E070E00E9498
:101BF000080261E070E08C2F0E9426028111F9CF6B
:101C0000CF9108958F929F92AF92BF92CF92DF9221
:101C1000EF92FF920F931F93CF93DF93CDB7DEB771
:101C200060970FB6F894DEBF0FBECDBF7C019091D8
:101C3000E302992309F4BDC0933311F008E001C019
:101C400004E06B01CE01019669DB89819A810E94D3
:101C50008A029E012F5F3F4F5901490110E063E066
:101C600070E0812F0E942602F40181934F018823A6
:101C7000C1F01F5F0113F3CF10E0F50181915F0107
:101C80008D3159F0883149F08A51823030F01F5F30
:101C90000113F3CF0E9489028CC060E170E0812FB4
:101CA000A1DFA12EB12C83EE93E00197F1F742E87A
:101CB00060E070E0812F0E9408024FEF62E070E068
:101CC000812F0E940802C114D10411F0B60113C083
:101CD000809100029091010201968115F0EC9F071E
:101CE00010F480E090EC90930102809300026091E8
:101CF000000270910102812F0E94F30186E0E7E863
:101D0000F2E0DE01199601900D928A95E1F7F70154
:101D100083818F778C8784818D8785818E87A701CA
:101D20004E5F5F4F24E030E06CE070E0812F0E9456
:101D3000E101DF86C88A22E030E0AE01415F5F4FFB
:101D400060E170E0812F0E94E10126E030E0AE0109
:101D5000475F5F4F66E070E0812F0E94E10161E024
:101D600070E0812F3FDF27E02A9DC0012B9D900D61
:101D700011249C012B583C4F7901F90111821082EA
:101D800022E030E0AE01415F5F4F68E270E0812FFA
:101D90000E9444028F859889982789279827F70100
:101DA000938382831682158214820E948902812F76
:101DB00001C088E060960FB6F894DEBF0FBECDBFBD
:101DC000DF91CF911F910F91FF90EF90DF90CF9017
:101DD000BF90AF909F908F900895AF92BF92CF9297
:101DE000DF92EF92FF920F931F93CF93DF9300D078
:101DF0001F92CDB7DEB78C016B017A018091E302AF
:101E00008333F1F45B016801C40ED51E0C151D056A
:101E100009F45DC00E9492018FE00E94DA01812FD7
:101E20000E94DA01802F0E94DA010F5F1F4F80E0CD
:101E30000E94DA01F50181935F010E948801E6CFDB
:101E40008433D9F40E94920119830A838F2D8F77EE
:101E50008B83EC8264E070E0CE01019677DDA70110
:101E600060E070E0C6014CD4E114F10419F0B70150
:101E7000C6016CDD0E9488012AC00E9492010F3FBA
:101E8000110509F020F419820A831B821DC017FD79
:101E90000BC019820A8333E0169507953A95E1F74E
:101EA000007E08600B8310C0C80126E096958795D8
:101EB0002A95E1F719830A83807E0115104C10F4EE
:101EC000806101C088618B8363E070E0C5CFC7018A
:101ED0000F900F900F900F90DF91CF911F910F9166
:101EE000FF90EF90DF90CF90BF90AF900895AF92AA
:101EF000BF92CF92DF92EF92FF920F931F93CF93F7
:101F0000DF93CDB7DEB728970FB6F894DEBF0FBECC
:101F1000CDBF8C017B016A018091E3028333E1F440
:101F20005801A40EB51E0A151B0509F488C00E94AD
:101F3000920180EF0E94DA01812F0E94DA01802F46
:101F40000E94DA010F5F1F4FF70181917F010E940C
:101F5000DA010E948801E7CF843311F50E949201D3
:101F600019830A838D2D80688B83CC8264E070E0B6
:101F7000CE010196EBDC87010C0D1D1DE016F1066C
:101F800061F0F70181917F010E94DA01F7CFB6017C
:101F90006D5F7F4FCE010196D9DC0E9488014FC052
:101FA0000E9492010F3F110509F020F419820A8363
:101FB00084E01CC017FD0BC019820A8333E016951C
:101FC00007953A95E1F7007E0C600B8310C0C801BD
:101FD00026E0969587952A95E1F719830A83807EF6
:101FE0000115104C10F4846101C08C618B8326E0D4
:101FF000C216D10498F420E0822F90E08C159D0544
:1020000030F6E4E0F0E0EC0FFD1FE80FF91FD70118
:10201000A80FB91F8C9180832F5FEECF63E070E033
:10202000CE01019693DC87010C0D1D1DF7018191F6
:102030007F010E94DA01E016F106C1F7AECFC601BA
:1020400028960FB6F894DEBF0FBECDBFDF91CF91BB
:102050001F910F91FF90EF90DF90CF90BF90AF90C6
:102060000895EFE3F3E086E792E0918380831282A4
:10207000138214821582E5E4F3E091838083128257
:10208000138214821582EBE4F3E091838083128241
:10209000138214821582E1E5F3E09183808312823A
:1020A000138214821582E7E5F3E091838083128224
:1020B000138214821582EDE5F3E09183808312820E
:1020C000138214821582ECEEF2E0918380831282F7
:1020D000138214821582E2EFF2E0918380831282F0
:1020E000138214821582E3E6F3E0918380831282E7
:1020F000138214821582E9E6F3E0918380831282D1
:10210000138214821582E8EFF2E01382128248EE05
:1021100053E060E070E044835583668377832CE46A
:1021200032E03183208397878687108A118A128A4A
:10213000138A28E0208FEFE6F3E0918380831282F8
:102140001382148215820895CF93DF93CDB7DEB743
:102150002A970FB6F894DEBF0FBECDBF789484B532
:10216000826084BD84B5816084BD85B5826085BD93
:1021700085B5816085BD80916E00816080936E0021
:102180001092810080918100826080938100809113
:1021900081008160809381008091800081608093C4
:1021A00080008091B10084608093B1008091B00084
:1021B00081608093B0008091910082608093910053
:1021C0008091910081608093910080919000816066
:1021D000809390008091A10082608093A100809103
:1021E000A10081608093A1008091A0008160809314
:1021F000A0008091210182608093210180912101C2
:102200008160809321018091200181608093200171
:1022100080917A00846080937A0080917A00826055
:1022200080937A0080917A00816080937A00809117
:102230007A00806880937A001092C10084E08093D5
:10224000E50289EE8093E60285EE8093E70286E55B
:102250008093E80238E73093E9022AE92093EA0202
:1022600092E09093DC028FEF8093DD028093DE0298
:102270008093DF029093C10349EF4093C2033093F0
:10228000C3032093C4039093C5038093C603809334
:10229000C7038093C8038093BD031092BE031092BE
:1022A000BF031092C00311B817B893B3987D93BBC6
:1022B00082B988B984B3876284BB06E712E01A83C7
:1022C00009838091C1039091C203A091C303B0918F
:1022D000C4038B839C83AD83BE83CE01019654D807
:1022E000CE0101960E9447098B818093C903CE01DC
:1022F00001960E9447098C818093CA03CE01019602
:102300000E9447098D818093CB03CE0101960E94E4
:1023100047098E818093CC0366E379E188EF92E0F0
:102320000E9404061A8309838091BD039091BE0325
:10233000A091BF03B091C0038B839C83AD83BE8308
:10234000CE0101960E94940988E1E4ECF2E0DF01FD
:10235000A82E1D92AA94E9F7E2EDF6E0DF011D92A6
:102360008A95E9F740E0E42E40E0F42E212C51E27A
:10237000352E66E3462E69E1562E73E5672E70E52D
:10238000772E480104E71FEFD7DB6093EA067093CE
:10239000EB068093EC069093ED0688EF92E00E94A6
:1023A0003C0401978231924008F0C3C042E152E000
:1023B0006CEB74E088EF92E00E945C03ACEBB4E05D
:1023C000EEE7F2E02D91819130E0082E000C990BA0
:1023D0002817390709F0ADC022E0E638F20791F777
:1023E0008091C4049091C5048115904209F0A1C068
:1023F00041E44093CD0352E75093CE030093CF03C3
:102400006DE26093D0038EE48093D10395E69093C0
:10241000D2030093D3031092D4033092D6032092B8
:10242000D5035091C9035093D7034091CA034093F9
:10243000D8033091CB033093D9032091CC03209360
:10244000DA035092DC034092DB031092DE03109219
:10245000DD031092DF031092E0031092E10310936A
:10246000E2031092E30382ED8093E4037092E603AB
:102470006092E5038BE0EDE8F2E0A7EEB3E00190B7
:102480000D928A95E1F78CE2E8E9F2E0A9EFB3E07A
:1024900001900D928A95E1F7109239041092790417
:1024A00081E080937A0490EC90937B0498E0909381
:1024B0007F0460E8609383048093870480938B0497
:1024C00010928F041092900410929104109295042F
:1024D0001092960450939C0440939D0430939E0464
:1024E00020939F048093A0049093A1049A828982F0
:1024F0008091C5039091C603A091C703B091C80312
:102500008B839C83AD83BE8346E359E1BE016F5F3D
:102510007F4F88EF92E00E94B8054FEE50E06DECDF
:1025200073E088EF92E00E94B70488EF92E00E9487
:102530007D0588E1A4ECB2E01D928A95E9F7E4EC10
:10254000F2E0DF0120E080917B00877F80937B00B9
:10255000822F806480937C0080917A0080648093D5
:102560007A0080917A0086FDFCCF809178003091CE
:10257000790090E0932B95958795959587958D9308
:102580002F5F253001F740B126B1A2B2A4ECB2E032
:1025900080E090E050E0BA01082E02C07595679582
:1025A0000A94E2F760FD03C015961C9315970196F7
:1025B00011968830910579F7A4ECB2E080E090E0C4
:1025C00030E0A901082E02C0559547950A94E2F71C
:1025D00040FD03C01D961C931D97019611968830EF
:1025E000910579F780E090E02A2D30E0A901082ECE
:1025F00002C0559547950A94E2F740FF158B019666
:1026000031968330910591F7A5FE1093DB0248E1E6
:1026100050E064EC72E082ED96E065D0892B51F0D9
:1026200088E1E4ECF2E0A2EDB6E001900D928A952B
:10263000E1F723C08091EA069091EB06A091EC06A9
:10264000B091ED06A090CE06B090CF06C090D00617
:10265000D090D1069C01AD012A193B094C095D09B6
:10266000283E33404105510548F08093CE069093B3
:10267000CF06A093D006B093D106ADD8E114F104F3
:1026800009F482CE0E9400007DCEA1E21A2EAA1B80
:10269000BB1BFD010DC0AA1FBB1FEE1FFF1FA21712
:1026A000B307E407F50720F0A21BB30BE40BF50B0F
:1026B000661F771F881F991F1A9469F76095709598
:1026C000809590959B01AC01BD01CF010895EE0F5F
:1026D000FF1F881F8BBF0790F691E02D199481E0B2
:1026E00090E0F89414C0FB01DC0104C08D910190CE
:1026F000801921F441505040C8F7881B990B089568
:10270000DC0101C06D9341505040E0F70895F8940A
:02271000FFCFF9
:1027120000C0000000001B0D7C0C850184011B0D14
:102722001B0D1B0D000000001B0D7C0C850184019C
:10273200000000001B0D1B0D85011B0D1B0D1B0D49
:102742001B0D1B0D82011B0D1B0D1B0D1B0D1B0DEC
:102752001B0D1B0D1B0D1B0D000000004901B704D2
:10276200850148015F017A0308040406BB03FB03E9
:10277200B805C2067D053C045C037B016B01670161
:102782006301000000001C0D000000001B0D4172DF
:10279200742D4E6574000001005E00000046696EF3
:1027A20067657257696E6700504958454C45442E1B
:1027B20046696E67657257696E67202D20323463F1
:1027C20068204172746E657420636F6E74726F6CF0
:0427D2006C657200C0
:00000001FF
