:020000040800F2
:10000000001A0020A52C0008112D0008112D000851
:10001000112D0008112D0008112D0008000000000E
:10002000000000000000000000000000112D00088A
:10003000112D000800000000112D0008E505000842
:10004000112D0008112D0008112D0008112D000898
:10005000112D0008112D0008112D0008112D000888
:10006000112D0008112D0008112D0008112D000878
:10007000112D0008112D0008112D0008112D000868
:10008000112D0008112D0008112D0008112D000858
:10009000112D0008112D0008112D0008112D000848
:1000A000112D0008112D0008112D0008112D000838
:1000B000112D0008112D0008112D0008112D000828
:1000C000112D0008112D0008112D0008112D000818
:1000D000112D0008112D0008112D0008092A000813
:1000E000112D0008112D0008112D0008112D0008F8
:1000F000112D0008112D0008112D0008112D0008E8
:10010000112D00088D0C0008112D0008112D00087C
:10011000112D0008112D0008112D0008112D0008C7
:10012000112D0008112D0008112D0008990C000850
:10013000112D0008112D0008112D0008112D0008A7
:10014000112D0008112D0008112D0008112D000897
:10015000112D0008112D0008112D0008112D000887
:10016000112D0008112D0008112D0008112D000877
:10017000112D0008112D0008112D0008112D000867
:10018000112D0008112D000810B5054C237833B946
:10019000044B13B10448AFF300800123237010BD5A
:1001A000D009002000000000DCD600080C4B43B151
:1001B0000C480D4910B5AFF300800C48036823B913
:1001C00010BD0A48036833B97047094B002BF7D0BC
:1001D000BDE810401847064B002BF5D0184700BF6C
:1001E00000000000DCD60008D4090020CC09002063
:1001F0000000000080B500AF01214FF4006003F063
:1002000057FC00214FF4006003F052FC00BF80BD9A
:1002100080B485B000AF78600023FB60134B5B684F
:10022000FB60FB6823F4FD4323F07F03FB607B68E6
:100230001B7D1A467B689B681A437B685B681A4380
:100240007B68DB681A437B681B681A437B681B6901
:100250001343FA681343FB60044AFB68536000BF12
:100260001437BD465DF8047B704700BF002C014089
:1002700080B483B000AF0346FB71044AFB7913607E
:1002800000BF0C37BD465DF8047B7047A080254257
:1002900080B483B000AF7860044A7B68136000BF0D
:1002A0000C37BD465DF8047B704700BF002C014051
:1002B00080B400AF044B1B6803F003031846BD462F
:1002C0005DF8047B704700BF002C014080B485B00E
:1002D00000AF78600023FB60114A7B681B68936065
:1002E0000F4BDB68FB60FB6823F4FF6323F007031D
:1002F000FB607B685A687B689B681A437B68DB6895
:100300001A437B681B691343FA681343FB60044A72
:10031000FB68D36000BF1437BD465DF8047B7047AF
:10032000002C014080B400AF034B1B69DBB21846C0
:10033000BD465DF8047B7047002C014080B485B059
:1003400000AF78600023FB607A68054B1344FB60C4
:10035000FB681B6818461437BD465DF8047B704780
:10036000142C014080B485B000AF78600023FB609E
:10037000124A7B681B685362104A7B685B68936211
:100380000E4BDB6AFB60FB6823F0F703FB607B68C6
:100390009A687B68DB681A437B681B691A437B6831
:1003A0005B691343FA681343FB60044AFB68D3623A
:1003B00000BF1437BD465DF8047B7047002C014038
:1003C00080B400AF034BD3F880301846BD465DF8CB
:1003D000047B7047002C014080B483B000AF03461B
:1003E000FB71044AFB79136000BF0C37BD465DF812
:1003F000047B70478C85254280B485B000AF78605F
:100400000023FB73084B5A6B7B681340002B02D010
:100410000123FB7301E00023FB73FB7B18461437B9
:10042000BD465DF8047B7047002C014080B485B068
:1004300000AF78600023FB73084B5A6B7B68134056
:10044000002B02D00123FB7301E00023FB73FB7B35
:1004500018461437BD465DF8047B7047002C0140F8
:1004600080B483B000AF7860044A7B68936300BFB8
:100470000C37BD465DF8047B704700BF002C01407F
:1004800080B483B000AF03463960FB7197F9073041
:10049000002B0BDA0D49FB7903F00F03043B3A689C
:1004A000D2B21201D2B20B441A7609E0084997F988
:1004B00007303A68D2B21201D2B20B4483F800235B
:1004C00000BF0C37BD465DF8047B704700ED00E0CF
:1004D00000E100E080B582B000AF78607B68B3F1E6
:1004E000807F01D3012311E00A4A7B6823F07F4318
:1004F000013B53600F214FF0FF30FFF7C1FF054B69
:1005000000229A60034B07221A600023184608371E
:10051000BD4680BD10E000E080B582B000AF2C4B3E
:100520009B782C2B03D82A4B9B78182B02D8284B6E
:1005300019229A70264B9B781A46264B93FBF2F3AE
:100540001846FFF7C7FF6FF0040006F0C3FA4FF438
:10055000407006F049FA0E214FF0FF30FFF790FF90
:100560000121012003F064FA04233B6001233B7165
:100570000023BB7100237B713B461946164803F0EC
:10058000B7FA0121042003F053FA4FF400533B6003
:1005900001233B710023BB7100237B713B4619464D
:1005A0000E4803F0A5FA0121022003F041FAF023DE
:1005B0003B6000233B710123FB7103237B713B46AE
:1005C0001946074803F094FA00BF0837BD4680BDBE
:1005D000CC110020406F40010000024000080240A2
:1005E0000004024080B500AF354B1B78DBB201330D
:1005F000DAB2334B1A70334B00221A701021324892
:1006000003F004FB0346002B07D12E4B1B78DBB213
:1006100043F00103DAB22B4B1A7020212A4803F071
:10062000F5FA0346002B07D1264B1B78DBB243F0CB
:100630000203DAB2234B1A704021234803F0E6FA92
:100640000346002B07D11F4B1B78DBB243F004039A
:10065000DAB21C4B1A7080211B4803F0D7FA03460C
:10066000002B07D1174B1B78DBB243F00803DAB23B
:10067000144B1A70154B9A78114B1B78DBB29A42C7
:100680001CD80F4B00221A70114B1B680133104A03
:100690001360104A0F4B5B6983F0040353610E4BE8
:1006A0001B78DAB20D4B1A700D4B1B889BB20133CD
:1006B0009AB20B4B1A80084B00221A7000BF80BD03
:1006C000F0090020F109002000040240CC110020B4
:1006D000EC090020000002408B0A00208A0A00205A
:1006E000880A002080B58AB000AF786039600023A6
:1006F0007B6200233B620023FB610023BB617B68BC
:100700001B8A9BB27B627B6A23F440537B623B680B
:10071000DB881A467B6A13437B627B6A9AB27B68EA
:100720001A827B689B899BB27B627B6A23F4B053FD
:1007300023F00C037B623B689A883B681B89134358
:100740009AB23B685B8913439BB21A467B6A134398
:100750007B627B6A9AB27B689A817B689B8A9BB238
:100760007B627B6A23F440737B623B689B891A46F9
:100770007B6A13437B627B6A9AB27B689A8207F139
:100780000803184603F0ACF87B68304A934203D064
:100790007B682F4A934202D17B693B6201E03B694F
:1007A0003B627B689B899BB21BB2002B0CDA3A6AD6
:1007B00013469B0013449A001A443B681B685B0075
:1007C000B2FBF3F3FB610BE03A6A13469B00134460
:1007D0009A001A443B681B689B00B2FBF3F3FB6171
:1007E000FB691C4AA2FB03235B091B017B627B6A3A
:1007F0001B09642202FB03F3FA69D31ABB617B680D
:100800009B899BB21BB2002B0CDABB69DB00323335
:10081000104AA2FB03235B0903F007037A6A134320
:100820007B620BE0BB691B0132330A4AA2FB032344
:100830005B0903F00F037A6A13437B627B6A9AB207
:100840007B681A8100BF2837BD4680BD001001407B
:10085000001401401F85EB5180B483B000AF786075
:100860000B46FB70FB78002B08D07B689B899BB202
:1008700043F400539AB27B689A8107E07B689B89B6
:100880009BB223F400539AB27B689A8100BF0C3765
:10089000BD465DF8047B704780B483B000AF7860DC
:1008A0000B467B807B88C3F308039AB27B689A80EF
:1008B00000BF0C37BD465DF8047B704780B483B041
:1008C00000AF78607B689B889BB2C3F308039BB240
:1008D00018460C37BD465DF8047B704780B487B07E
:1008E00000AF78600B467B8013467B7000233B6132
:1008F0000023FB600023BB6000237B617B687B617E
:100900007B88DBB25B09DBB23B617B8803F01F03B2
:10091000FB600122FB6802FA03F3BB603B69012B19
:1009200003D17B690C337B6109E03B69022B03D166
:100930007B6910337B6102E07B6914337B617B78D8
:10094000002B06D07B697A691168BA680A431A607D
:1009500006E07B697A691168BA68D2430A401A6076
:1009600000BF1C37BD465DF8047B704780B485B07E
:1009700000AF78600B467B800023FB737B681B888D
:100980009AB27B8813409BB2002B02D00123FB73E9
:1009900001E00023FB73FB7B18461437BD465DF86E
:1009A000047B704780B487B000AF78600B467B80D3
:1009B0000023FB6000237B610023BB600023FB74EA
:1009C0007B88DBB25B09DBB2BB607B8803F01F0373
:1009D0007B6101227B6902FA03F37B61BB68012B17
:1009E00007D17B689B899BB21A467B6913407B6168
:1009F00011E0BB68022B07D17B681B8A9BB21A46A9
:100A00007B6913407B6106E07B689B8A9BB21A4638
:100A10007B6913407B617B881B0A9BB2FB600122D0
:100A2000FB6802FA03F3FB607B681B889BB21A46E3
:100A3000FB681340FB607B69002B05D0FB68002B33
:100A400002D00123FB7401E00023FB74FB7C1846F9
:100A50001C37BD465DF8047B704780B485B000AF9D
:100A600078600B467B800023FB810023BB817B8861
:100A70001B0AFB81FB89012202FA03F3BB81BB89BC
:100A8000DB439AB27B681A8000BF1437BD465DF81D
:100A9000047B704780B400AF01231846BD465DF863
:100AA000047B704780B582B000AF4FF4C06005F0A2
:100AB0009BFF31233B7101237B710023BB71012319
:100AC000FB713B1D184605F0A3FF3B233B7101233F
:100AD0007B713B1D184605F09BFF01F081FD01F085
:100AE000C5FD00F0DFF80346002B08D1164B1B783C
:100AF000DBB223F00103DAB2134B1A7007E0124B9A
:100B00001B78DBB243F00103DAB20F4B1A70FFF728
:100B1000C1FF0346002B08D10B4B1B78DBB243F01F
:100B20000403DAB2084B1A7007E0074B1B78DBB2FC
:100B300023F00403DAB2044B1A70034B1B78DBB2C8
:100B400018460837BD4680BD0000002080B582B041
:100B500000AF00F03CF90346FB71FB79012B01D19A
:100B6000002301E04FF0FF3318460837BD4680BD33
:100B700090B589B002AFF860B9601346FB710023ED
:100B8000FB75BB685B024FF000044FF400720092EB
:100B90001A462346F86800F053FE00F0E7FE0346CD
:100BA000FB7500BF00F0DCF80346002BFAD1FB7D9B
:100BB000002B01D1002301E04FF0FF3318461C3712
:100BC000BD4690BD90B589B002AFF860B9601346DC
:100BD000FB710023FB75FB79002B01DA03F2FF1395
:100BE0005B12FB71FB79002B01D10123FB71BB6808
:100BF0005B024FF00004FA7901924FF40072009208
:100C00001A462346F86800F00FFF00F0E7FF03469E
:100C1000FB7500BF00F0A4F80346002BFAD1FB7D62
:100C2000002B01D1002301E04FF0FF3318461C37A1
:100C3000BD4690BD80B483B000AF03463960FB7100
:100C4000FB79042B1AD801A252F823F07D0C00087E
:100C5000610C00086B0C0008750C00087D0C000886
:100C60003B684FF400321A6008E03B684FF40072B2
:100C70001A8003E03B6820221A6000BF0023184658
:100C80000C37BD465DF8047B704700BF80B500AFF0
:100C900001F062F800BF80BD80B500AF01F0C6F87A
:100CA00000BF80BD90B583B000AF0023FB71FFF79C
:100CB000A1FA01F0DBFC00F097F80346FB71FB7929
:100CC000DBB2002B02D0FB79DBB240E000F0A2F9EE
:100CD0000346FB71FB79DBB2002B02D0FB79DBB260
:100CE00035E01D4B01221A751B4B00221A601A4B6E
:100CF00000225A60184B00229A60174B0022DA60DB
:100D0000154B00221A611448FFF782FA134800F0CD
:100D100045FA0346FB71FB79DBB2002B0BD10F4B7D
:100D2000B3F854301B044FF000041846214600F07D
:100D300061FD0346FB71FB79DBB2002B04D100207F
:100D400000F0ECFC0346FB71FB79FB79DBB2184643
:100D50000C37BD4690BD00BF000B0020A80A002044
:100D600080B582B000AF0423FB7100F011F8034698
:100D7000FB71FB79042B01D1002305E0FB79FF2BEC
:100D800001D1022300E0012318460837BD4680BD8B
:100D900080B582B000AF00237B6000F018F80346F6
:100DA000012B0FD13B1D184600F09AFF0346002B84
:100DB00001D0FF2307E07B685B0ADBB203F00F037F
:100DC000DBB200E0FF2318460837BD4680BD80B483
:100DD00083B000AF0123FB71FB79DBB218460C37FF
:100DE000BD465DF8047B704780B586B000AF002338
:100DF000FB7100237B6100233B610023FB60002328
:100E0000BB60814B76221A757F4B00221A607E4BA5
:100E100000225A607C4B00229A607B4B0022DA60F1
:100E2000794B00221A617848FFF7F2F90320FFF7A7
:100E30002FFA0120FFF71CFA744B00221A60734B43
:100E400000225A60714B00229A60704B0022DA60D7
:100E50006E4B4FF480621A616C48FFF737FA00F06E
:100E6000FDFF0346FB71FB79DBB2002B02D0FB795F
:100E7000DBB2C5E0654B4FF4D5721A60634B0822B4
:100E80005A60624B40229A60604B0022DA605F4BEE
:100E90004FF480621A615D48FFF718FA01F006F816
:100EA0000346FB71FB79DBB2002B06D1584B0122C4
:100EB0001A604FF08043BB6017E0544B00221A6069
:100EC000524B37225A60514B40229A604F4B0022BE
:100ED000DA604E4B4FF480621A614C48FFF7F6F926
:100EE000372001F021F80346FB71484B00221A60BD
:100EF000464B37225A60454B40229A60434B0022B2
:100F0000DA60424B4FF480621A614048FFF7DEF925
:100F1000372001F009F80346FB71FB79DBB2002BA7
:100F20006CD14FE0394B00221A60384B37225A609F
:100F3000364B40229A60354B0022DA60334B4FF437
:100F400080621A613148FFF7C1F9372000F0ECFFE9
:100F50000346FB71FB79DBB2002B02D0FB79DBB2DD
:100F60004EE0BB6843F0004343F48013274A13600C
:100F7000264B29225A60254B40229A60234B00229F
:100F8000DA60224B4FF480621A612048FFF79EF925
:100F900001F09CF80346FB71FB79DBB2002B02D019
:100FA000FB79DBB22CE00020FFF7C8F978617B69A0
:100FB000DB0F012B0CBF01230023DBB2FB603B697D
:100FC00001333B61FB68002B04D13B694FF6FE7295
:100FD0009342A7D93B694FF6FE72934204D91B2373
:100FE000FB71FB79DBB20BE07B6903F080437B6133
:100FF0007B69002B02D0064B02221A60FB79DBB220
:1010000018461837BD4680BD000B0020900A00200E
:10101000F409002080B582B000AF0023FB710123EA
:10102000BB80FFF745F90346002B03D12523FB7155
:10103000FB79A5E0544B1B68042B33D0534B0022A3
:101040001A60524B02225A60504BC0229A604F4B9A
:101050000022DA604D4B4FF480621A614B48FFF773
:1010600035F901F05DF80346FB71FB79002B01D0E7
:10107000FB7985E00020FFF761F90246444B1A60D6
:101080000420FFF75BF90246414B5A600820FFF746
:1010900055F902463E4B9A600C20FFF74FF9024685
:1010A0003B4BDA60384B1B68002B0BD0364B1B6870
:1010B000012B07D0344B1B68062B03D0324B1B6827
:1010C000022B1ED1314B00221A60304B03225A6092
:1010D0002E4B40229A602D4B0022DA602B4B4FF4AE
:1010E00080621A612948FFF7F1F83B1D1946032079
:1010F00001F04CF80346FB71FB79002B01D0FB7922
:101100003EE0214B1B68042B39D0BB881A46214B8B
:101110001A60BB881B041A461C4B1A601B4B092221
:101120005A601A4BC0229A60184B0022DA60174BA3
:101130004FF480621A611548FFF7C8F800F0F0FF1D
:101140000346FB71FB79002B01D0FB7918E00020EE
:10115000FFF7F4F80246104B1A600420FFF7EEF890
:1011600002460D4B5A600820FFF7E8F802460A4B8A
:101170009A600C20FFF7E2F80246074BDA60002382
:1011800018460837BD4680BDF4090020900A0020AB
:10119000080A0020180A0020F8090020B0B485B021
:1011A00000AF78600022BA730022FA73884A12688E
:1011B000D1B27A6882F85610864A126891B27A687B
:1011C000A2F85410844A1268120EFA73FA7B92093C
:1011D000D1B27A681170FA7B9210D2B202F00F028B
:1011E000D1B27A685170FA7B02F00302D1B27A6808
:1011F0009170794A1268120CFA737A68F97BD1708F
:10120000754A1268120AFA737A68F97B1171724A88
:101210001268FA737A68F97B51716F4A5268120E3C
:10122000FA73FA7B92B2120191B27A68D1806A4A5B
:101230005268120CFA737A68D28891B2FA7B12095A
:10124000D2B292B20A4391B27A68D180FA7B02F0AC
:101250000F02D1B27A6811725F4A5268120AFA73A9
:10126000FA7BD209D1B27A685172FA7B9211D2B26A
:1012700002F00102D1B27A689172FA7B5211D2B2B5
:1012800002F00102D1B27A68D172FA7B1211D2B2A5
:1012900002F00102D1B27A6811737A6800215173A9
:1012A0004B4A1268002A04D0494A1268012A40F0C9
:1012B0009580FB7B9B0203F440627B681A61464B7E
:1012C0005B68FB737B681B69FA7B92001A437B683F
:1012D0001A61414B9B681B0EFB737B681B69FA7B91
:1012E0009209D2B21A437B681A61FB7BDB10DBB236
:1012F00003F00703DAB27B681A75FB7B03F0070380
:10130000DAB27B685A75344B9B681B0CFB73FB7B12
:101310005B09DAB27B689A75FB7B9B10DBB203F04A
:101320000703DAB27B68DA75FB7B5B00DBB203F0A4
:101330000603DAB27B681A76274B9B681B0AFB739D
:101340007B681B7EDAB2FB7BDB09DBB21343DAB2CC
:101350007B681A767B681B6901334FF000047A685A
:10136000C2E912347B681B7EDBB20233012202FA2F
:1013700003F37A68D2E912124FEAE37403FB02F531
:1013800001FB04F02844A1FB0334021914467A68D7
:10139000C2E912347B681B7ADBB21A460123934000
:1013A0001A467B681A657B68D3E912127B681B6D4D
:1013B0004FF0000403FB02F501FB04F02844A1FBFD
:1013C0000334021914467A68C2E912343FE000BFC0
:1013D000F4090020180A0020F8090020A54A126824
:1013E000022A34D1A44A5268FA73FA7B120402F436
:1013F0007C117A681161A04A9268120EFA737A68B9
:101400001269F97B090211437A6811619A4A92685C
:10141000120CFA737A681169FA7B11437A681161C8
:10142000954A9268120AFA737A68126911464FF067
:101430000002013142F10002D40444EA5134CB04E9
:101440007A68C2E912347B684FF400721A65FB7B3C
:101450009B11DBB203F00103DAB27B685A76FB7BA7
:101460005B00DBB203F07E03DAB27B689A76824BD4
:101470009B68FB737B689B7EDAB2FB7BDB09DBB28C
:101480001343DAB27B689A76FB7B03F07F03DAB210
:101490007B68DA76784BDB681B0EFB73FB7BDB0922
:1014A000DAB27B681A77FB7B5B11DBB203F00303D4
:1014B000DAB27B685A77FB7B9B10DBB203F0070341
:1014C000DAB27B689A77FB7B9B00DBB203F00C03FC
:1014D000DAB27B68DA77684BDB681B0CFB737B68DE
:1014E000DB7FDAB2FB7B9B09DBB21343DAB27B68AA
:1014F000DA77FB7B5B11DBB203F00103DAB27B68C6
:1015000083F820207B68002283F82120FB7B03F0F6
:101510000103DAB27B6883F82220574BDB681B0A91
:10152000FB73FB7BDB09DAB27B6883F82320FB7B50
:101530009B11DBB203F00103DAB27B6883F824204D
:10154000FB7B5B11DBB203F00103DAB27B6883F84B
:101550002520FB7B1B11DBB203F00103DAB27B68B1
:1015600083F82620FB7B9B10DBB203F00303DAB287
:101570007B6883F82720FB7B03F00303DAB27B68E8
:1015800083F828203C4BDB68FB73FB7B5B08DAB2FB
:101590007B6883F829207B68012283F82A20374B57
:1015A0001B681B0EFB737B68FA7B83F82C20334B84
:1015B0001B681B0CFB73FB7B9BB21B029AB27B6804
:1015C000DA852E4B1B681B0AFB737B68DB8D9AB296
:1015D000FB7B9BB213439AB27B68DA85274B1B686F
:1015E000FB73FB7B1B061A467B681A63234B5B6805
:1015F0001B0EFB737B681B6BFA7B12041A437B6820
:101600001A631E4B5B681B0CFB737B681B6BFA7BBE
:1016100012021A437B681A63184B5B681B0AFB7340
:101620007B681A6BFB7B1A437B681A63134B5B68FE
:10163000FB737B68FA7B83F83420104B9B681B0E8E
:10164000FB737B68FA7B83F835200C4B9B681B0C83
:10165000FB73FB7B1B061A467B689A63074B9B68F0
:101660001B0AFB737B689B6BFA7B12041A437B6833
:101670009A6305E0F4090020F8090020080A002018
:10168000254B9B68FB737B689B6BFA7B12021A43AA
:101690007B689A63204BDB681B0EFB737B689A6B3D
:1016A000FB7B1A437B689A631B4BDB681B0CFB7349
:1016B0007B6893F83C30DAB2FB7B1B09DBB2134347
:1016C000DAB27B6883F83C20FB7B1B029BB203F4FD
:1016D00070639AB27B68DA870F4BDB681B0AFB7377
:1016E0007B68DB8F9AB2FB7B9BB213439AB27B6819
:1016F000DA87094BDB68FB73FB7B5B08DAB27B683C
:1017000083F840207B68012283F84120BB7B184688
:101710001437BD46B0BC7047080A002080B584B0BD
:1017200000AF78600023FB73304B1B68032B03D1A1
:101730002723FB73FB7B54E02C4B1B68002B07D04B
:101740002A4B1B68012B03D0284B1B68022B47D167
:101750007B68B3F5805F03D12723FB73FB7B40E0FD
:101760007B68B3F5006F1ED1012000F077FD0346C2
:10177000FB73FB7B002B33D11D4B01221A751C4BD5
:1017800000221A601A4B00225A60194B00229A60FC
:10179000174B4FF40062DA60154B00221A611448AF
:1017A000FEF736FD1CE0002000F058FD0346FB73F9
:1017B000FB7B002B14D10E4B01221A750C4B00221F
:1017C0001A600B4B00225A60094B00229A60084BAA
:1017D0000022DA60064B00221A610548FEF718FD68
:1017E000FB7B18461037BD4680BD00BFF4090020C2
:1017F000000B002080B584B000AFC7E900010023D2
:10180000FB733B680D4A13600C4B07225A600B4B6D
:1018100040229A60094B0022DA60084B4FF4806244
:101820001A610648FEF752FD072000F07DFB0346D3
:10183000FB73FB7B18461037BD4680BD900A002025
:10184000B0B586B000AFF860C7E900230023FB7590
:101850003F4B00221A703F4B00221A603E4B002281
:101860001A603E4B0022DA623C4A3C4BDB6B43F48D
:101870004A7343F00203D3630120FEF7ADFD3B8DB5
:101880001946F86800F090FF354B1B68022B0AD10F
:101890004FF400733B85D7E90023540A44EAC3544C
:1018A0005D0AC7E900453B8D2E4A13602D4B10227F
:1018B0005A602C4B40229A602A4B0022DA60294B56
:1018C0004FF480621A612748FEF700FD102000F0F7
:1018D0002BFB0346FB75FB7D002B01D0FB7D33E02A
:1018E000214B4FF0FF321A603B8D1F4A53601E4B55
:1018F00090229A601C4B0222DA601B4B00221A6174
:10190000194B01225A611848FEF72CFD3B68154A15
:101910001360144B11225A60124B40229A60114BF3
:101920000022DA600F4B4FF480621A610D48FEF717
:10193000CDFC112000F0F8FA0346FB75FB7D002B6F
:1019400001D0FB7D00E0FB7D18461837BD46B0BDD9
:10195000300A0020340A00202C0A0020002C01400C
:10196000F4090020900A0020180B002080B582B0F6
:1019700000AF0023FB714FF0FF333B6002E03B6898
:10198000013B3B60234B1B68002B0BD1224B1B6898
:10199000002B07D1214B1B78DBB2002B02D13B6817
:1019A000002BECD11B4B00221A604FF0FF333B6041
:1019B00002E03B68013B3B60194B5B6B03F4005357
:1019C000002B02D03B68002BF3D1164B1B68012B78
:1019D00006D100F061F90346FB71124B00221A6038
:1019E0003B68002B04D1FB79002B01D10423FB7150
:1019F0000B4B40F2FF529A63084B1B78DBB2002B73
:101A000003D0064B1B78DBB200E0FB7918460837A1
:101A1000BD4680BD380A0020340A0020300A00206C
:101A2000002C01402C0A0020B0B586B000AFF86051
:101A3000C7E900230023FB75604B00221A70604B3E
:101A400000221A605F4B01221A605F4B0022DA62AB
:101A50005D4A5D4BDB6B43F4467343F00203D36393
:101A60003B8DFA6A02FB03F31946F86800F04CFE5E
:101A70000120FEF7B1FC554B1B68022B0AD14FF435
:101A800000733B85D7E90023540A44EAC3545D0A36
:101A9000C7E900453B8D4E4A13604D4B10225A60FA
:101AA0004B4B40229A604A4B0022DA60484B4FF47D
:101AB00080621A614648FEF709FC102000F034FAF3
:101AC0000346FB75FB7D002B01D0FB7D72E0414B93
:101AD0001B681B043E4A13603D4B37225A603C4B47
:101AE00040229A603A4B0022DA60394B4FF4806210
:101AF0001A613748FEF7EAFB372000F015FA034673
:101B0000FB75FB7D002B01D0FB7D53E0304AFB6A67
:101B100013602F4B17225A602D4B40229A602C4B9A
:101B20000022DA602A4B4FF480621A612848FEF7DF
:101B3000CDFB172000F0F8F90346FB75FB7D002B69
:101B400001D0FB7D36E03B68214A1360204B19220F
:101B50005A601F4B40229A601D4B0022DA601C4BDA
:101B60004FF480621A611A48FEF7B0FB192000F0AA
:101B7000DBF90346FB75FB7D002B01D0FB7D19E0F3
:101B8000154B4FF0FF321A603B8DFA6A02FB03F3EC
:101B9000114A5360104B90229A600F4B0022DA607A
:101BA0000D4B00221A610C4B01225A610A48FEF7C4
:101BB000D9FBFB7D18461837BD46B0BD300A002062
:101BC000340A00202C0A0020002C0140F4090020D7
:101BD000900A0020180A0020180B002080B582B05F
:101BE00000AF0023FB714FF0FF333B6002E03B6826
:101BF000013B3B60234B1B68002B0BD1224B1B6826
:101C0000002B07D1214B1B78DBB2002B02D13B68A4
:101C1000002BECD11B4B00221A604FF0FF333B60CE
:101C200002E03B68013B3B60194B5B6B03F4805364
:101C3000002B02D03B68002BF3D1164B1B68012B05
:101C400006D100F029F80346FB71124B00221A60FE
:101C50003B68002B04D1FB79002B01D10423FB71DD
:101C60000B4B40F2FF529A63084B1B78DBB2002B00
:101C700003D0064B1B78DBB200E0FB79184608372F
:101C8000BD4680BD380A0020340A0020300A0020FA
:101C9000002C01402C0A002080B582B000AF002348
:101CA000FB710E4B00221A600C4B0C225A600B4B3E
:101CB00040229A60094B0022DA60084B4FF48062A0
:101CC0001A610648FEF702FB0C2000F02DF90346CE
:101CD000FB71FB7918460837BD4680BD900A00208D
:101CE00080B584B000AF78600023FB737B68002B65
:101CF00003D12623FB73FB7B25E0154B1B681B04DC
:101D0000144A1360134B0D225A60124B40229A6002
:101D1000104B0022DA600F4B4FF480621A610D48BD
:101D2000FEF7D4FA0D2000F0FFF80346FB73FB7BAF
:101D3000002B01D0FB7B06E00020FEF7FFFA0246F5
:101D40007B681A60FB7B18461037BD4680BD00BF1C
:101D5000180A0020900A002080B500AF4FF4807070
:101D6000FEF764FB0346002B0AD02D4B00221A70AD
:101D70004FF48070FEF774FB2A4B01221A6041E099
:101D80000220FEF753FB0346002B06D00220FEF78D
:101D900067FB234B02221A7034E00820FEF746FB53
:101DA0000346002B06D00820FEF75AFB1C4B0422EA
:101DB0001A7027E02020FEF739FB0346002B06D0DF
:101DC0002020FEF74DFB164B06221A701AE0102059
:101DD000FEF72CFB0346002B06D01020FEF740FB3D
:101DE0000F4B05221A700DE04FF40070FEF71EFB3A
:101DF0000346002B06D04FF40070FEF731FB084B72
:101E000007221A70084A084BDB6B23F4434323F084
:101E10003A03D363024B1B78DBB2184680BD00BF88
:101E2000300A0020340A0020002C014080B500AFA9
:101E3000074B1B6803F0C053002B07D0054B012252
:101E40001A604FF0C251044802F09EFA00BF80BDF4
:101E500000640240380A00205864024080B582B015
:101E600000AF0023FB704FF480337B6002E07B689F
:101E7000013B7B607B68002B05D08020FEF7BCFA1D
:101E80000346002BF3D07B68002B03D10323FB70A8
:101E9000FB7804E0044B40F2FF529A63FB7818464B
:101EA0000837BD4680BD00BF002C014080B485B01E
:101EB00000AF0023FB714FF48033BB60194B5B6BA9
:101EC000FB6005E0BB68013BBB60164B5B6BFB60D6
:101ED000FB6803F04503002B02D1BB68002BF1D156
:101EE000BB68002B04D0FB6803F00403002B06D072
:101EF0000323FB710B4B04229A63FB790CE0FB6814
:101F000003F04003002B06D00023FB71054B402259
:101F10009A63FB7900E0FB7918461437BD465DF8FB
:101F2000047B7047002C014080B586B000AF0346AB
:101F3000FB710023FB74634B5B6B7B6102E0614BC5
:101F40005B6B7B617B6903F04503002BF7D07B69FA
:101F500003F00403002B06D00323FB74594B042227
:101F60009A63FB7CA9E07B6903F00103002B06D098
:101F70000123FB74534B01229A63FB7C9DE0FEF727
:101F8000D1F903461A46FB79934203D01023FB7420
:101F9000FB7C92E04B4B40F2FF529A630020FEF72D
:101FA000CDF9F860FA68484B1340002B01D1FB7C57
:101FB00083E0FB68002B01DA1C237EE0FB6803F062
:101FC0008043002B01D0092377E0FB6803F0005326
:101FD000002B01D00A2370E0FB6803F08053002B34
:101FE00001D00B2369E0FB6803F00063002B01D0F4
:101FF0000C2362E0FB6803F08063002B01D00D230B
:102000005BE0FB6803F08073002B01D00E2354E0EB
:10201000FB6803F40003002B01D00F234DE0FB68A5
:1020200003F48003002B01D0102346E0FB6803F487
:102030000013002B01D011233FE0FB6803F4801351
:10204000002B01D0122338E0FB6803F40023002B9F
:1020500001D0132331E0FB6803F48023002B01D06F
:1020600014232AE0FB6803F40033002B01D015236E
:1020700023E0FB6803F48033002B01D016231CE01F
:10208000FB6803F40043002B01D0172315E0FB6825
:1020900003F48043002B01D018230EE0FB6803F407
:1020A0000053002B01D0192307E0FB6803F008035D
:1020B000002B01D01A2300E0FB7C18461837BD46E0
:1020C00080BD00BF002C014008E0FFFD80B483B05C
:1020D00000AF0023FB70114B5B6B7B6002E00F4B8A
:1020E0005B6B7B607B6803F04503002BF7D07B685C
:1020F00003F00403002B06D00323FB70074B0422DC
:102100009A63FB7804E0054B40F2FF529A63FB7838
:1021100018460C37BD465DF8047B7047002C014023
:1021200080B483B000AF0023FB70174B5B6B7B6008
:1021300002E0154B5B6B7B607B6803F04503002B73
:10214000F7D07B6803F00403002B06D00323FB7059
:102150000D4B04229A63FB7810E07B6803F00103C7
:10216000002B06D00123FB70074B01229A63FB78FA
:1021700004E0054B40F2FF529A63FB7818460C3797
:10218000BD465DF8047B7047002C014080B586B0E9
:1021900000AF03463960FB710023FB742E4B5B6B71
:1021A0007B6102E02C4B5B6B7B617B6903F0450339
:1021B000002BF7D07B6903F00403002B06D0032328
:1021C000FB74254B04229A63FB7C40E07B6903F09F
:1021D0000103002B06D00123FB741F4B01229A63DD
:1021E000FB7C34E0FEF79EF803461A46FB799342E7
:1021F00003D01023FB74FB7C29E0174B40F2FF5205
:102200009A630020FEF79AF8F860FB6803F46043D5
:10221000002B06D1FB681B0C9AB23B681A80FB7C32
:1022200015E0FB6803F40053002B01D013230EE0EC
:10223000FB6803F48043002B01D0102307E0FB6808
:1022400003F40043002B01D00F2300E0FB7C184671
:102250001837BD4680BD00BF002C014080B586B058
:1022600000AF0346FB710023FB750023FB600023D6
:102270003B610020FEF762F8034603F00073002B79
:1022800003D00E23FB75FB7D9FE0524B1B689BB276
:1022900007F10C021146184600F0A0F80346FB7542
:1022A000FB7D002B01D0FB7D8FE0FB79012B46D11C
:1022B0003B6903F48023002B3DD0464B1B681B0475
:1022C000454A1360444B37225A60434B40229A6080
:1022D000414B0022DA60404B4FF480621A613E4865
:1022E000FDF7F4FF3720FFF71FFE0346FB75FB7D6C
:1022F000002B01D0FB7D68E0374B02221A60364B81
:1023000006225A60344B40229A60334B0022DA6036
:10231000314B4FF480621A612F48FDF7D7FF06203A
:10232000FFF702FE0346FB75FB7D002B01D0FB7D12
:102330004BE0FB7D49E02523FB75FB7D45E03B69D8
:1023400003F48033002B3DD0224B1B681B04224A30
:102350001360214B37225A601F4B40229A601E4B5C
:102360000022DA601C4B4FF480621A611A48FDF7B4
:10237000ADFF3720FFF7D8FD0346FB75FB7D002B33
:1023800001D0FB7D21E0144B00221A60124B062283
:102390005A60114B40229A600F4B0022DA600E4BBC
:1023A0004FF480621A610C48FDF790FF0620FFF79A
:1023B000BBFD0346FB75FB7D002B01D0FB7D04E0DC
:1023C000FB7D02E02523FB75FB7D18461837BD46D3
:1023D00080BD00BF180A0020900A002090B587B089
:1023E00000AF03463960FB8000237B610023FB7450
:1023F0000023BB600023FB60754B08221A60744BFE
:1024000010225A60724B40229A60714B0022DA60AF
:102410006F4B4FF480621A616D48FDF757FF102033
:10242000FFF782FD0346FB74FB7C002B01D0FB7C95
:10243000C9E0684B1B681B04654A1360644B372274
:102440005A60634B40229A60614B0022DA60604B15
:102450004FF480621A615E48FDF738FF3720FFF7BE
:1024600063FD0346FB74FB7C002B01D0FB7CAAE0E0
:10247000594B4FF0FF321A60574B08225A60564BA7
:1024800030229A60544B0222DA60534B00221A61C8
:10249000514B01225A615048FDF764FF4C4B00221A
:1024A0001A604B4B33225A60494B40229A60484B8A
:1024B0000022DA60464B4FF480621A614448FDF70F
:1024C00005FF3320FFF730FD0346FB74FB7C002B38
:1024D00014D0FB7C77E04FF40010FDF78DFF03462E
:1024E000002B0BD07B699B0007F10802D418FDF785
:1024F00067FF034623607B6901337B61374B5A6B6F
:1025000040F22A631340002BE5D00820FDF774FF4A
:102510000346002B06D0314B08229A630423FB7438
:10252000FB7C50E00220FDF767FF0346002B06D03E
:102530002A4B02229A630223FB74FB7C43E0202097
:10254000FDF75AFF0346002B06D0244B20229A6346
:102550000623FB74FB7C36E04FF40070FDF74CFF64
:102560000346002B07D01D4B4FF400729A630723DC
:10257000FB74FB7C27E0194B40F2FF529A633B68E7
:102580000433BA681106BA68120202F47F021143DA
:10259000BA68120A02F47F421143BA68120E0A4363
:1025A0001A60FB681A06FB681B0203F47F031A43D8
:1025B000FB681B0A03F47F431A43FB681B0E1A4394
:1025C0003B681A60FB7C18461C37BD4690BD00BFB7
:1025D000900A0020180A0020180B0020002C01404F
:1025E00080B582B000AF0020FDF742FE0020FDF76D
:1025F0004FFEFDF7FFFD1A4A194B5B6C23F4006395
:10260000536400220821174801F032FB00220C21FC
:10261000144801F02DFB00220221134801F028FB91
:102620004FF480733B6000233B710023FB713B46FA
:1026300019460C4801F05CFA04233B603B461946FE
:10264000094801F055FA4FF480533B603B46194668
:10265000044801F04DFA00BF0837BD4680BD00BFF9
:102660000038024000080240000C024080B582B0F1
:1026700000AF01210C2001F0DBF90C2208211F48DA
:1026800001F0F6FA0C220C211C4801F0F1FA0C22A0
:1026900002211B4801F0ECFA4FF480733B600223E7
:1026A0007B7102233B710023BB710123FB713B460D
:1026B0001946124801F01CFA04233B603B461946B8
:1026C0000F4801F015FA4FF480533B600023FB7173
:1026D0003B461946094801F00BFA0A4A094B5B6C64
:1026E00043F400635364074A064B1B6B43F48003B7
:1026F000136300BF0837BD4680BD00BF000802401D
:10270000000C02400038024080B592B000AF786003
:1027100039604FF0FA51224801F036FE002120487E
:1027200001F0FAFD1E4801F0CBFC4FF00063FB60A6
:102730001C4B3B617B687B614023BB610123FB61D8
:1027400000233B624FF480637B624FF48053BB6293
:102750000023FB6200233B634FF440337B6304237D
:10276000BB630123FB6300233B644FF400137B64D2
:1027700007F10C0319460A4801F076FD01221021E9
:10278000074801F02FFE2021054801F0E1FD01215D
:10279000034801F0C1FD00BF4837BD4680BD00BF02
:1027A00058640240802C014080B592B000AF786040
:1027B00039604FF0FA51234801F0E6FD002121482D
:1027C00001F0AAFD1F4801F07BFC4FF00063FB60A5
:1027D0001D4B3B617B687B610023BB610123FB6177
:1027E00000233B624FF480637B624FF48053BB62F3
:1027F0004FF48043FB6200233B634FF440337B6321
:102800000423BB630323FB634FF400033B644FF4D7
:1028100000137B6407F10C0319460A4801F024FDFC
:1028200001221021074801F0DDFD2021054801F0BB
:102830008FFD0121034801F06FFD00BF4837BD4601
:1028400080BD00BF58640240802C014080B485B038
:1028500000AF78607A681346DB009B1A5B00BB60B0
:102860000023FB6003E000BFFB680133FB60FA68F4
:10287000BB689A42F7D300BF1437BD465DF8047BAE
:102880007047000080B588B000AF0121042001F03E
:10289000CFF801214FF4802001F0EAF84FF4004313
:1028A000BB6101233B770023BB7703237B7707F1D1
:1028B00018031946244801F01BF900224FF4004187
:1028C000214801F0BDF907220A211F4801F0D0F983
:1028D00007220B211C4801F0CBF94FF44063BB6188
:1028E00002233B770023BB770123FB7703237B770E
:1028F00007F118031946144801F0FAF8134BBB60AE
:102900000023BB820C237B8200233B820023FB81BC
:102910000023BB8107F1080319460D48FDF7E2FECD
:1029200001210B48FDF798FF27233B710123FB7121
:1029300000237B710023BB713B1D184604F068F82F
:1029400000BF2037BD4680BD0008024090D0030084
:102950000048004080B500AF012240F226610B48DC
:10296000FDF7BCFF01224FF40041094801F068F96E
:1029700000BF40210548FDF7F9FF0346002BF8D0C2
:1029800000210248FDF788FF00BF80BD00480040DD
:102990000008024080B500AF012240F225510848EE
:1029A000FDF79CFF012240F646010548FDF796FF22
:1029B00000224FF40041034801F042F900BF80BDFE
:1029C000004800400008024080B500AF00224FF4EC
:1029D00000410B4801F034F9002240F2255109482A
:1029E000FDF77CFF002240F646010648FDF776FF22
:1029F000002240F226610348FDF770FF00BF80BD52
:102A0000000802400048004080B586B000AF40F6A4
:102A100046015D48FDF7C6FF0346012B0BD15B4B1A
:102A200001221A705A4B00221A8040F6460156487D
:102A3000FEF713F8A4E040F225515348FDF7B2FF2A
:102A40000346012B31D15048FDF738FF0346FB7593
:102A50004F4B1B88002B0DD1FB7D002B06D14B4B20
:102A60001B78012B02D1494B02221A70484B0122DC
:102A70001A8014E0454B1B78022B0AD1444B1B886B
:102A8000B3F5007F05D8424B1B88013B4149FA7DD5
:102A9000CA543F4B1B8801339AB23D4B1A8040F217
:102AA00025513948FDF7D9FF6AE040F226613648E2
:102AB000FDF7D3FF384B1B78002B02D0012B22D01F
:102AC00045E000213048FDF7C7FE4CF250337B60F3
:102AD00000233B820C23FB810023BB8100237B81ED
:102AE00000233B813B1D19462748FDF7FBFD0121D3
:102AF0002548FDF7B1FE00212348FDF7CDFE264B0A
:102B000001221A703CE000211F48FDF7A5FE234B6F
:102B10007B6000233B820C23FB810023BB810023CD
:102B20007B8100233B813B1D19461748FDF7DAFDE9
:102B300001211548FDF790FE00211348FDF7ACFE7A
:102B4000154B02221A70164B00221A8018E00A2038
:102B5000FFF77CFE124B1B885A1C91B2104A118061
:102B60001A460C4B9B5C9BB219460748FDF794FE36
:102B70000B4B1B88B3F5007F02D3074B00221A7062
:102B80001837BD4680BD00BF004800403E0A002007
:102B9000400A0020300B0020420A002090D00300A1
:102BA0003C0A002080B584B000AF0346FB71FDF7FE
:102BB00079FFB860BB68002B02D10023FB7301E0F2
:102BC0000123FB73FB7B18461037BD4680BD80B5E3
:102BD00084B000AF0346FB71FDF7B8FFB860BB6877
:102BE000002B02D10023FB7301E00323FB73FB7B6B
:102BF00018461037BD4680BD80B586B000AFB960BD
:102C00007A603B600346FB733B68DBB21A46796827
:102C1000B868FDF7ADFF78617B69002B01D1002317
:102C200000E0012318461837BD4680BD80B586B048
:102C300000AFB9607A603B600346FB733B68DBB270
:102C40001A467968B868FDF7BDFF78617B69002B8B
:102C500001D1002300E0012318461837BD4680BD8E
:102C600080B584B000AF03463A60FB710B46BB7180
:102C7000BB7939681846FDF7DDFFF860FB68002B6B
:102C800001D1002300E0012318461037BD4680BD66
:102C900080B400AF024B1846BD465DF8047B704718
:102CA0000000FC4280B582B000AF134B7B60134B39
:102CB0003B6007E03B681A1D3A607A68111D796035
:102CC00012681A603B680E4A9342F3D30D480E49CE
:102CD0004FF000028842B8BF40F8042BFADBDFF85F
:102CE0002C00016841F47001016000F059FC00BF44
:102CF0000837BD4680BD00BFE4D6000800000020B4
:102D0000D0090020D00900200012002088ED00E04A
:102D100080B400AFFEE7000080B400AFBFF34F8F78
:102D20000549054BDB6803F4E062044B1343CB60B9
:102D3000BFF34F8FFEE700BF00ED00E00400FA058F
:102D400080B500AF0B2200210C4804F037FB0B4B81
:102D50001B78032B10D0094B03221A70074B0A2251
:102D60005A70064B14229A70044B0022DA700B2220
:102D70000021024804F058FB00BF80BDCC110020A8
:102D800080B58CB000AF002387F82F30002387F880
:102D90002B3003F09BFF0021002004F007F86D4862
:102DA00004F0EEF997F82B203B1D6B49184604F010
:102DB0000DFF97F82B30013387F82B303B1D06228F
:102DC0001946664802F050FF03467B620021052049
:102DD00003F0ECFF3B1D1946614804F0D1F97B6A12
:102DE000082BDFD07B6A002B0AD00721002003F0DC
:102DF000DDFF5C4804F0C4F9584803F06AFBA6E024
:102E0000C9233B76DA237B760223BB760023FB764D
:102E100036233B77544B1B78DBB2042B0CD14F4845
:102E200003F057FBFFF7D0FD0621002003F0BEFFA3
:102E30004E4804F0A5F98AE001224FF400514C48B5
:102E400000F0FEFE3B4607F118010422434803F060
:102E50005AF903467B627B6A002B72D13B68032BD5
:102E60006FD93B464FF4007242493C4803F04BF99E
:102E700003467B627B6A002B63D13B68B3F5007F1E
:102E80005FD33A4607F11803191D13460122334850
:102E900003F039F903467B627B6A002B51D13B6812
:102EA000002B4ED000224FF40051314800F0C8FEF4
:102EB00000BF314B1B78DBB297F82F209A42F8D035
:102EC0002D4B1B7887F82F302C4B1B78DBB201334E
:102ED000DAB22A4B1A700221002003F067FF25485E
:102EE00003F0CCFF0321002003F060FF244803F02F
:102EF000C5FF0421002003F059FF224803F0BEFF64
:102F00000521002003F052FF1F4803F0B7FF1F4BBD
:102F10001B889BB2BA8D9A423FF47CAF1B4B1B8837
:102F2000BB850721002003F041FF194B1B78DBB262
:102F30001946164B1B889BB21A46164804F020F916
:102F400068E7064803F0C5FAFFF73EFD00BF3037DB
:102F5000BD4680BDC4C60008CCC60008A40F002032
:102F6000D8C60008DCC60008F1090020ECC600083D
:102F700000080240300B0020F00900208B0A0020DE
:102F8000B00B0020300C0020B00C0020880A00207C
:102F90008A0A0020F4C6000880B596B000AF7860B9
:102FA0000B46FB70002387F8573000233B65002356
:102FB000FB64002387F84B300023A7F8423003F06E
:102FC00085FE0021002003F0F1FE012279689B4874
:102FD00002F04AFE0346002B0BD00721002003F02D
:102FE000E5FE974804F0CCF8944803F072FA012308
:102FF0001FE17968934804F0C3F801224FF40051AF
:10300000914800F01DFE07F1380307F10801302256
:103010008A4802F045FF0346FB6300224FF400514B
:10302000894800F00DFEFB6B002B02D1BB6B002B1F
:1030300012D1824803F04DFA0221002003F0B6FEBF
:10304000824804F09DF800BF7C4803F042FA8048B3
:1030500004F096F80023ECE07E4B1B7887F84B30A9
:1030600000237B64E0E07C4B1B78DBB2042B0BD1AC
:10307000724803F02EFA0221002003F097FE7748F1
:1030800004F07EF80123D4E097F85730052B00F2C6
:10309000C88001A252F823F0B1300008D1300008F6
:1030A000F130000807310008553100088731000869
:1030B00007F108027B6C13441B78C92B03D1012351
:1030C00087F85730ADE05D4803F003FA0023B0E025
:1030D00007F108027B6C13441B78DA2B03D102231F
:1030E00087F857309DE0554803F0F3F90023A0E03E
:1030F00007F108027B6C13441B781B023B6503231A
:1031000087F857308DE007F108027B6C13441B7879
:103110001A463B6D13443B650621002003F046FE32
:10312000396D4F4804F02CF83B6DB3F5007F0BD997
:103130000621002003F03AFE4A4804F021F83F48F7
:1031400003F0C7F9012374E00023FB64042387F82C
:10315000573066E0FB6CB3F5007F09D807F1080231
:103160007B6C13441978404AFB6C13440A461A706E
:10317000FB6C0133FB64FA6C3B6D9A424ED1052324
:1031800087F857304AE007F108027B6C13441B783C
:10319000362B33D100BF2F4B1B78DBB297F84B2077
:1031A0009A42F8D02B4B1B7887F84B302F4B1B786B
:1031B000DBB20133DAB22D4B1A702D4B1B889BB258
:1031C000B7F840209A4212D0294B1B88A7F840300C
:1031D0000721002003F0EAFD264B1B78DBB21946DD
:1031E000234B1B889BB21A46234803F0C9FF0023D8
:1031F00087F857300023A7F8423011E0B7F8423083
:103200000133A7F84230B7F8423044F620629342C7
:1032100006D90A4803F05DF900230AE000BF00E088
:1032200000BF7B6C01337B647B6C2F2B7FF61BAF65
:10323000E3E618465837BD4680BD00BFA40F002006
:1032400004C70008D8C600080008024014C70008D8
:1032500038C70008F0090020F1090020ECC600087A
:103260001CC7000828C70008300B00208B0A00206C
:10327000880A00208A0A0020F4C6000880B584B0BD
:1032800000AFF860B9607A60FB707B6800221A704A
:10329000F9681D4803F03CF903461A461B4B1A70A7
:1032A0001A4B1B78002B28D11949174803F0A7F9AE
:1032B00003461A46154B1A70144B1B78002B19D174
:1032C000134B5B7A002B15D0114B1B7A03F01003C4
:1032D000002BE9D17B681B780133DAB27B681A7066
:1032E0007B681B78FA789A42DED10A49B86804F004
:1032F000B3FCD9E7044803F06BF9044B1B7818467C
:103300001037BD4680BD00BF7C0F0020A00F0020FD
:10331000340D00203D0D002080B582B000AF0023A9
:10332000FB7103F0D3FC0021002003F03FFD0120DE
:1033300003F094FD734803F023FF002003F08EFD9B
:10334000714803F01DFF0521002003F02FFD01202F
:1033500003F084FD6D4B5B7819466D4803F010FF58
:10336000002003F07BFD00BF6A4B1B78DBB2002B13
:10337000FAD100BF674B1B78DBB2002BFAD0654B4C
:103380001B78DBB2082B11D100BF624B1B78DBB27C
:10339000002BFAD100F0B6FC0B2200215B4804F0B0
:1033A00043F800F0C7FCFDF7B7F8A7E0594B1B78CE
:1033B000DBB2022B0BD100BF564B1B78DBB2002BCC
:1033C000FAD1FB79002B02D0FB79013BFB71514B09
:1033D0001B78DBB2042B0BD100BF4E4B1B78DBB24A
:1033E000002BFAD1FB79012B02D8FB790133FB7159
:1033F000484B1B78DBB2012B2AD100BF454B1B7811
:10340000DBB2002BFAD1FB79404A1A4452780132E0
:10341000D1B23E4A13440A465A703C4B5B780A2BA1
:1034200004D9FB79394A134400225A70374B9B78F0
:103430002C2B04D9FB79354A134414225A70334B90
:10344000DB780A2B04D9FB79304A134400225A70E6
:10345000FB79012B20D0022B36D0002B4DD105213A
:10346000002003F0A3FC012003F0F8FC274B5B785D
:10347000002B02D1254B01225A70244B5B78194650
:10348000234803F07DFE002003F0E8FC1F4B5B782F
:10349000184603F0BBFC30E00521002003F086FC59
:1034A000012003F0DBFC194B9B78002B02D1174B5A
:1034B00014229A70154B9B781946174803F060FE4A
:1034C000002003F0CBFC18E00521002003F06EFC87
:1034D000012003F0C3FC0D4BDB78002B03D10F4818
:1034E00003F04EFE05E0094BDB7819460C4803F06B
:1034F00047FE002003F0B2FC00BF3AE70837BD46A4
:1035000080BD00BF40C7000854C70008CC11002090
:1035100068C70008F10900207CC7000890C70008B0
:10352000A4C7000880B582B000AFFFF713FA184BAC
:10353000DB78FB71FB79002B1DD10123FB711AE0B5
:10354000144B00221A80124B9B7819461248FFF741
:1035500023FD0346002B14D1104B1B78DBB2042B48
:1035600002D10023FB7106E0094BDB78002B02D16E
:10357000FB790133FB71FB795A1EFA71002BDFD105
:1035800000E000BFFFF720FA00BF0837BD4680BD4E
:10359000CC110020880A0020B8C70008F1090020DB
:1035A00080B5CCB000AF012387F82B3100F0B6FC1A
:1035B00000F0A8FB03F072FFFFF7C2FB00F0BAFBBC
:1035C000FCF7AAFFFFF75EF9FFF7FEF903F05AFBDD
:1035D000B74B5B78184603F019FC27E0B54B1B6826
:1035E0000233C7F8243100BFB24B1A68D7F8243130
:1035F0009A42F9D303F06AFB0021002003F0D6FBC6
:10360000022003F02BFCAC4803F0BAFDAB4803F0FA
:10361000B7FDAB4BC7F82C3100BFD7F82C315A1E81
:10362000C7F82C21002BF8D1FFF776FB0122A54922
:10363000A54802F0D5FA0346002BCFD1A04BC7F81E
:103640002C3100BFD7F82C315A1EC7F82C21002B83
:10365000F8D1FFF767FF03F05DFB07210C2003F0B3
:10366000A5FB9A4803F08CFD00BF994B1B78DBB299
:10367000002BFAD000BF964B1B78DBB2002BFAD19F
:1036800007F120032F221A801EE003F01FFB022106
:10369000002003F08BFB022003F0E0FB864803F0E0
:1036A0006FFD864803F06CFD002003F0D7FB844BD0
:1036B000C7F82C3100BFD7F82C315A1EC7F82C217F
:1036C000002BF8D1FFF728FB97F82B3107F22312D4
:1036D000394607F12000FFF7D1FD0346002BD4D176
:1036E00003F0F4FA0221002003F060FB012003F054
:1036F000B5FB97F82331002B07D097F82B313A46CA
:103700001946744803F03CFD02E0734803F038FDAD
:10371000002003F0A3FB00BF6D4B1B78DBB2002B36
:10372000FAD06B4B1B78DBB2012B09D0684B1B78AE
:10373000DBB2082B04D0664B1B78DBB2092B7CD1A3
:10374000634B1B7887F82A3109E0614B1B78DBB2A9
:10375000092B04D1FFF7E0FD002387F82A315C4BE9
:103760001B78DBB2002BF0D197F82A31012B4BD11B
:10377000FFF7F0F84E4BDB7887F8293197F82931BD
:10378000002B2AD1012387F8293126E0534B002250
:103790001A8097F82A31012B03D097F82A31082B89
:1037A00009D1434B9A783B4611461846FFF7F4FB84
:1037B0000346002B19D1464B1B78DBB2042B03D1F7
:1037C000002387F8293108E0394BDB78002B04D13E
:1037D00097F82931013387F8293197F829315A1E92
:1037E00087F82921002BD1D100E000BF314B1B68A5
:1037F0000133C7F8243100BF2E4B1A68D7F82431A3
:103800009A42F9D3FFF7E0F897F82A31082B14D140
:10381000FFF7C0F8314B00221A80FFF7B1FA254BB1
:103820001B680133C7F8243100BF224B1A68D7F850
:1038300024319A42F9D3FFF7C7F8254B1B78DBB246
:10384000042B18D100BF224B1B78DBB2002BFAD11E
:1038500097F82331002B04D097F82B31013387F8E8
:103860002B3197F8233197F82B219A4203D997F8F7
:10387000233187F82B31164B1B78DBB2022B0ED18C
:1038800000BF134B1B78DBB2002BFAD197F8233122
:10389000002B04D097F82B31013B87F82B3197F898
:1038A0002B31002B7FF4ECAE012387F82B31E7E6B8
:1038B000CC110020EC090020C4C70008D0C70008C4
:1038C000A0860100DCC700084C0D0020E0C70008FE
:1038D000F1090020E8C70008F0C70008880A0020A6
:1038E00080B489B000AF78600023BB6100237B61A6
:1038F0000023FB6102233B610023FB600223BB60CA
:10390000474B9B6803F00C03BB61BB69042B07D0DA
:10391000082B09D0002B3DD17B68424A1A603DE05C
:103920007B68414A1A6039E03D4B5B689B0D03F0B0
:103930000103FB603A4B5B6803F03F03BB60FB682D
:10394000002B0CD0384ABB68B2FBF3F3344A526800
:103950009209C2F3080202FB03F3FB610BE0314A58
:10396000BB68B2FBF3F32E4A52689209C2F3080215
:1039700002FB03F3FB612A4B5B681B0C03F00303A0
:1039800001335B003B61FA693B69B2FBF3F27B6890
:103990001A6003E07B68234A1A6000BF204B9B68D3
:1039A00003F0F003BB61BB691B09BB611F4ABB6924
:1039B00013441B78DBB27B617B681A687B69DA4051
:1039C0007B685A60164B9B6803F4E053BB61BB698C
:1039D0009B0ABB61154ABB6913441B78DBB27B6150
:1039E0007B685A687B69DA407B689A600C4B9B68FD
:1039F00003F46043BB61BB695B0BBB610B4ABB69F2
:103A000013441B78DBB27B617B685A687B69DA40C0
:103A10007B68DA6000BF2437BD465DF8047B7047E1
:103A2000003802400024F40000127A000400002054
:103A300080B483B000AF78600B46FB70FB78002B3E
:103A400006D00A49094B1A6B7B6813430B6306E0E7
:103A50000649064B1A6B7B68DB4313400B6300BFC0
:103A60000C37BD465DF8047B704700BF003802404C
:103A700080B483B000AF78600B46FB70FB78002BFE
:103A800006D00A49094B1A6C7B6813430B6406E0A5
:103A90000649064B1A6C7B68DB4313400B6400BF7E
:103AA0000C37BD465DF8047B704700BF003802400C
:103AB00080B483B000AF78600B46FB70FB78002BBE
:103AC00006D00A49094B5A6A7B6813434B6206E0E9
:103AD0000649064B5A6A7B68DB4313404B6200BFC2
:103AE0000C37BD465DF8047B704700BF00380240CC
:103AF00080B487B000AF7860396000237B61002319
:103B00003B610023FB6000237B6176E001227B693F
:103B100002FA03F33B613B681A683B691340FB60A0
:103B2000FA683B699A4265D17B681A687B695B00D9
:103B3000032101FA03F3DB431A407B681A607B68B8
:103B40001A683B681B7919467B695B0001FA03F32D
:103B50001A437B681A603B681B79012B03D03B68D2
:103B60001B79022B2ED17B689A687B695B0003214D
:103B700001FA03F3DB431A407B689A607B689A681A
:103B80003B685B7919467B695B0001FA03F31A43D2
:103B90007B689A607B685A687B699BB219460123EF
:103BA0008B40DB431A407B685A607B685B683A68ED
:103BB000927911467A6992B201FA02F292B21A43EC
:103BC0007B685A607B68DA687B699BB25B00032183
:103BD00001FA03F3DB431A407B68DA607B68DA683A
:103BE0003B68DB7919467B695B0001FA03F31A43F2
:103BF0007B68DA607B6901337B617B690F2B85D938
:103C000000BF1C37BD465DF8047B704780B485B0AB
:103C100000AF78600B467B800023FB737B681A69DA
:103C20007B881340002B02D00123FB7301E00023AB
:103C3000FB73FB7B18461437BD465DF8047B704769
:103C400080B483B000AF78600B467B8013467B70F6
:103C50007B78002B03D07B687A881A8302E07B682C
:103C60007A885A8300BF0C37BD465DF8047B7047E5
:103C700080B485B000AF78600B467B8013467B70C4
:103C80000023FB600023BB607A787B8803F0070386
:103C90009B0002FA03F3FB607B88DB089BB21846AB
:103CA0007B88DB089BB21A467B68083253F82220D7
:103CB0007B8803F007039B000F2101FA03F3DB432A
:103CC00002EA03017B6800F1080243F822107B88B6
:103CD000DB089BB21A467B68083253F82220FB6847
:103CE0001343BB607B88DB089BB21A467B680832B3
:103CF000B96843F8221000BF1437BD465DF8047B55
:103D00007047000080B400AF074B1B69002B05DA39
:103D1000054B064A5A60044B054A5A6000BFBD462F
:103D20005DF8047B704700BF003C024023016745FB
:103D3000AB89EFCD80B400AF054A054B1B6943F05A
:103D40000043136100BFBD465DF8047B704700BFB0
:103D5000003C024080B584B000AF78600B46FB7039
:103D60000023FB600823FB72FB78002B02D10023A9
:103D7000FB6010E0FB78012B03D14FF48073FB60F4
:103D800009E0FB78022B03D14FF40073FB6002E0E3
:103D90004FF44073FB6000F0A9F80346FB72FB7A16
:103DA000082B2FD11A4A1A4B1B6923F44073136155
:103DB0001749174B1A69FB6813430B61144A144BDC
:103DC0001B6923F0F80313611149114B1A697B68D1
:103DD000134343F002030B610D4A0D4B1B6943F47F
:103DE0008033136100F082F80346FB72084A084BE7
:103DF0001B6923F002031361054A054B1B6923F07D
:103E0000F8031361FB7A18461037BD4680BD00BF2A
:103E1000003C024080B584B000AF78600B467B80E8
:103E20000823FB7300F062F80346FB73FB7B082B4F
:103E30001ED1124A114B1B6923F4407313610F4AC0
:103E40000E4B1B6943F4807313610C4A0B4B1B69C7
:103E500043F0010313617B687A881A8000F046F80A
:103E60000346FB73054A054B1B6923F001031361ED
:103E7000FB7B18461037BD4680BD00BF003C0240AA
:103E800080B483B000AF0823FB71174BDB6803F4E9
:103E90008033B3F5803F02D10123FB711CE0124B4C
:103EA000DB6803F01003002B02D00523FB7113E045
:103EB0000D4BDB6803F0EF03002B02D00623FB71F0
:103EC0000AE0094BDB6803F00203002B02D0072352
:103ED000FB7101E00823FB71FB7918460C37BD46E6
:103EE0005DF8047B704700BF003C024080B582B0A3
:103EF00000AF0823FB71FFF7C3FF0346FB7103E02C
:103F0000FFF7BEFF0346FB71FB79DBB2012BF7D055
:103F1000FB79DBB218460837BD4680BD80B500AFDF
:103F2000164A164BD3F8883043F47003C2F8883031
:103F3000134A134B1B6843F001031360104B00221C
:103F40009A600F4A0E4B1B6823F0847323F480336E
:103F500013600B4B0B4A5A60094A094B1B6823F448
:103F600080231360064B0022DA6000F00DF8034B4B
:103F70004FF000629A6000BF80BD00BF00ED00E01E
:103F8000003802401030002480B483B000AF00231A
:103F90007B6000233B60364A354B1B6843F480331B
:103FA0001360334B1B6803F400333B607B680133C1
:103FB0007B603B68002B03D17B68B3F5A06FF0D129
:103FC0002B4B1B6803F40033002B02D001233B6012
:103FD00001E000233B603B68012B42D1244A244B83
:103FE0001B6C43F080531364224A224B1B6843F43A
:103FF000804313601E4A1E4B9B6893601C4A1C4BF7
:104000009B6843F400439360194A194B9B6843F43F
:10401000A0539360164B184A5A60154A144B1B68FC
:1040200043F08073136000BF114B1B6803F00073F3
:10403000002BF9D0114B40F205621A600C4A0C4B70
:104040009B6823F003039360094A094B9B6843F084
:104050000203936000BF064B9B6803F00C03082B20
:10406000F9D100BF0C37BD465DF8047B704700BF37
:10407000003802400070004008544007003C0240F5
:1040800080B485B000AF78600B4B1B68002B02D169
:10409000094B0A4A1A60084B1B68FB60064B1A68FA
:1040A0007B681344044A1360FB6818461437BD4606
:1040B0005DF8047B704700BF440A00200012002016
:1040C00080B483B000AF78607B681B6823F0010286
:1040D0007B681A607B6800221A607B6800225A6045
:1040E0007B6800229A607B680022DA607B6800228D
:1040F0001A617B6821225A617B68464A934203D148
:10410000454B3D229A607EE07B68444A934204D14D
:10411000414B4FF474629A6075E07B68404A934269
:1041200004D13D4B4FF474129A606CE07B683D4AB9
:10413000934204D1384B4FF074629A6063E07B681D
:10414000394A934203D1344B384ADA605BE07B68EA
:10415000374A934203D1304B364ADA6053E07B68EA
:10416000354A934203D12C4B344ADA604BE07B68EA
:10417000334A934204D1284B4FF03D52DA6042E07B
:104180007B68304A934203D12F4B3D229A603AE03C
:104190007B682E4A934204D12B4B4FF474629A6091
:1041A00031E07B682A4A934204D1274B4FF47412C2
:1041B0009A6028E07B68274A934204D1224B4FF053
:1041C00074629A601FE07B68234A934203D11E4BBE
:1041D000164ADA6017E07B68204A934203D11A4BF3
:1041E000144ADA600FE07B681D4A934203D1164BF4
:1041F000124ADA6007E07B681A4A934203D1124BF5
:104200004FF03D52DA6000BF0C37BD465DF8047BCD
:10421000704700BF1060024000600240286002400A
:104220004060024058600240706002403D00002043
:1042300088600240400F0020A060024000003D2046
:10424000B8600240106402400064024028640240EA
:104250004064024058640240706402408864024036
:10426000A0640240B864024080B485B000AF7860BA
:1042700039600023FB607B681B68FB60FA68254B94
:104280001340FB603B681A683B68DB681A433B6875
:104290005B691A433B689B691A433B68DB691A43B5
:1042A0003B681B6A1A433B685B6A1A433B689B6A1C
:1042B0001A433B685B6B1A433B689B6B1343FA687A
:1042C0001343FB607B68FA681A607B685B69FB607C
:1042D000FB6823F00703FB603B68DA6A3B681B6BF3
:1042E0001343FA681343FB607B68FA685A613B68C2
:1042F0001A697B685A603B685A687B689A603B68B9
:104300009A687B68DA6000BF1437BD465DF8047BAD
:10431000704700BF3F801CF080B483B000AF78606E
:104320000B46FB70FB78002B06D07B681B6843F0C4
:1043300001027B681A6005E07B681B6823F00102BC
:104340007B681A6000BF0C37BD465DF8047B704780
:1043500080B483B000AF786039603B68002B06D032
:104360007B681B6843F020027B681A6005E07B686D
:104370001B6823F020027B681A6000BF0C37BD4623
:104380005DF8047B7047000080B485B000AF7860B2
:1043900039607B68104A934202D8104BFB6001E001
:1043A0000F4BFB603B6803F00053002B07D03B68CA
:1043B00023F0F02323F08213FA68D36006E03B6811
:1043C00023F0F02323F08213FA68936000BF1437C0
:1043D000BD465DF8047B70470F64024000600240F8
:1043E0000064024080B485B000AFF860B960134645
:1043F000FB71BB6803F08003002B0FD0FB79002B0F
:1044000006D0FB685B6943F08002FB685A6105E0F7
:10441000FB685B6923F08002FB685A61BB68802BF4
:1044200014D0FB79002B08D0FB681A68BB6803F036
:104430001E031A43FB681A6008E0FB681A68BB6831
:1044400003F01E03DB431A40FB681A6000BF1437F9
:10445000BD465DF8047B704780B485B000AF7860DE
:104460007B6801331B78FB81FB891B021AB27B68D6
:104470001B781BB213431BB2FB81FB891846143710
:10448000BD465DF8047B704780B485B000AF7860AE
:104490007B6803331B78FB60FB681B027A6802327F
:1044A00012781343FB60FB681B027A6801321278B2
:1044B0001343FB60FB681B027A6812781343FB60AE
:1044C000FB6818461437BD465DF8047B704780B41E
:1044D00083B000AF78600B467B807B685A1C7A60A3
:1044E0007A88D2B21A707B881B0A7B807B685A1C40
:1044F0007A607A88D2B21A7000BF0C37BD465DF878
:10450000047B704780B483B000AF786039607B680B
:104510005A1C7A603A68D2B21A703B681B0A3B6038
:104520007B685A1C7A603A68D2B21A703B681B0AE0
:104530003B607B685A1C7A603A68D2B21A703B685A
:104540001B0A3B607B685A1C7A603A68D2B21A70C8
:1045500000BF0C37BD465DF8047B704780B487B060
:1045600000AFF860B9607A60FB687B61BB683B6153
:104570007B68002B0DD07B695A1C7A613A69511C0B
:10458000396112781A707B68013B7B607B68002B75
:10459000F1D100BF1C37BD465DF8047B704780B485
:1045A00087B000AFF860B9607A60FB687B617B69B7
:1045B0005A1C7A61BA68D2B21A707B68013B7B6080
:1045C0007B68002BF3D100BF1C37BD465DF8047B30
:1045D000704780B489B000AFF860B9607A60FB685A
:1045E000FB61BB68BB6100237B61FB695A1CFA61FC
:1045F0001B781946BB695A1CBA611B78CB1A7B61C0
:104600007B68013B7B607B68002B02D07B69002BC1
:10461000EBD07B6918462437BD465DF8047B7047B4
:1046200080B483B000AF7860396002E07B6801330A
:104630007B607B681B78002B05D07B681B781A4653
:104640003B689A42F2D17B681B7818460C37BD460E
:104650005DF8047B704780B586B000AF78600023BA
:10466000FB737B68DB78002B34D07B68DB6A7B6173
:104670007B6858787B6803F1300101237A69FEF783
:10468000D5FA0346002B02D00123FB7322E07B689E
:104690000022DA707B681B6A7A69D21A7B689B6990
:1046A0009A4217D27B689B783B6110E07B689B69DC
:1046B0007A6913447B617B6858787B6803F1300129
:1046C00001237A69FEF7B2FA3B69013B3B613B6922
:1046D000012BEBD8FB7B18461837BD4680BD80B553
:1046E00084B000AF786039600023FB737B68DA6ABE
:1046F0003B689A421BD07868FFF7ADFF0346FB7317
:10470000FB7B002B13D17B6858787B6803F1300169
:1047100001233A68FEF770FA0346002B04D04FF0ED
:10472000FF333B600123FB737B683A68DA62FB7BF3
:1047300018461037BD4680BD80B584B000AF7860A4
:104740007868FFF788FF0346FB73FB7B002B58D18B
:104750007B681B78032B48D17B681B79012B44D1E4
:104760007B6830334FF4007200211846FFF717FFC3
:104770007B68303303F5FF734AF655211846FFF77F
:10478000A6FE7B68303321491846FFF7BBFE7B68E5
:10479000303303F5F2731E491846FFF7B3FE7B680A
:1047A000303303F5F4727B681B6919461046FFF736
:1047B000A9FE7B68303303F5F6727B68DB68194627
:1047C0001046FFF79FFE7B68DB695A1C7B68DA6244
:1047D0007B6858787B6803F130017B68DA6A0123D3
:1047E000FEF724FA7B6800221A717B685B7800224E
:1047F00000211846FEF734FA0346002B01D00123AE
:10480000FB73FB7B18461037BD4680BD5252614199
:104810007272416180B483B000AF786039603B68E8
:10482000023B3B607B685B699A1E3B689A4201D8F9
:10483000002308E07B685B891A463B6803FB02F2B1
:104840007B689B6A134418460C37BD465DF8047BB1
:10485000704780B586B000AF786039607B681B68B0
:104860003B613B68012B04D93B695A693B689A421A
:1048700002D801237B618AE04FF0FF337B613B6903
:104880001B78022B45D0032B5CD0012B75D13B68E4
:10489000FB60FB685B08FA681344FB603B691A6ABB
:1048A000FB685B0A134419463869FFF718FF034693
:1048B000002B65D1FB685A1CFA60C3F308033A6900
:1048C000134493F83030BB603B691A6AFB685B0A9B
:1048D000134419463869FFF702FF0346002B51D1F4
:1048E000FB68C3F308033A69134493F830301B02A2
:1048F0001A46BB681343BB603B6803F00103002BFF
:1049000002D0BB681B0902E0BB68C3F30B037B61E9
:104910003DE03B691A6A3B681B0A13441946386933
:10492000FFF7DDFE0346002B2ED13B685B0003F44E
:10493000FF7330333A6913441846FFF78DFD034681
:104940007B6124E03B691A6A3B68DB091344194622
:104950003869FFF7C4FE0346002B17D13B689B0064
:1049600003F4FE7330333A6913441846FFF78CFDA5
:10497000034623F070437B6109E001237B6106E07D
:1049800000BF04E000BF02E000BF00E000BF7B69A1
:1049900018461837BD4680BD90B589B000AFF860A5
:1049A000B9607A600223FB77BB68012B40F2D180AB
:1049B000FB685A69BB689A4240F2CB80FB681B785F
:1049C000022B71D0032B00F08E80012B40F0C180B0
:1049D000BB68BB61BB695B08BA691344BB61FB6818
:1049E0001A6ABB695B0A13441946F868FFF777FE39
:1049F0000346FB77FB7F002B40F0A480BB695A1C69
:104A0000BA61C3F308033033FA6813447B61BB68AF
:104A100003F00103002B0DD07B691B785BB203F020
:104A20000F035AB27B68DBB21B015BB213435BB26C
:104A3000DBB201E07B68DBB27A691370FB680122AC
:104A4000DA70FB681A6ABB695B0A13441946F86896
:104A5000FFF745FE0346FB77FB7F002B74D1BB6954
:104A6000C3F308033033FA6813447B61BB6803F077
:104A70000103002B03D07B681B09DBB20EE07B69CE
:104A80001B785BB223F00F035AB27B681B0A5BB240
:104A900003F00F035BB213435BB2DBB27A691370AE
:104AA000FB680122DA7054E0FB681A6ABB681B0AD3
:104AB00013441946F868FFF712FE0346FB77FB7FA5
:104AC000002B43D1BB685B0003F4FF733033FA68FB
:104AD00013447A6892B211461846FFF7F8FCFB6857
:104AE0000122DA7035E0FB681A6ABB68DB091344FF
:104AF0001946F868FFF7F3FD0346FB77FB7F002BB1
:104B000026D17B6823F07044BB689B0003F4FE73DE
:104B10003033FA6813441846FFF7B6FC034603F037
:104B2000704323437B60BB689B0003F4FE73303308
:104B3000FA68134479681846FFF7E4FCFB68012221
:104B4000DA7006E000BF04E000BF02E000BF00E052
:104B500000BFFB7F18462437BD4690BD80B588B0A6
:104B600000AFF860B9607A600023FB77FB681B68D0
:104B7000BB61BB68012B04D9BB695A69BB689A4207
:104B800001D8022349E07B68002B0CD04FF0FF32A4
:104B90007968B869FFF700FF0346FB77FB7F002BBE
:104BA00001D0FB7F39E0B968F868FFF752FE786101
:104BB0007B69002B2FD07B69012B01D102232CE0D4
:104BC0007B69B3F1FF3F01D1012326E00022B968E0
:104BD000B869FFF7E1FE0346FB77FB7F002B01D0AE
:104BE000FB7F1AE0BB691B69B3F1FF3F0BD0BB69C8
:104BF0001B695A1CBB691A61BB691B7943F001032D
:104C0000DAB2BB691A717B69BB60BB695A69BB6860
:104C10009A42C8D800E000BF002318462037BD469E
:104C200080BD80B588B000AF786039607B681B6854
:104C30003B613B68002B0DD13B69DB68BB61BB6905
:104C4000002B04D03B695A69BB699A421BD80123E7
:104C5000BB6118E039687868FFF7FBFDF860FB6816
:104C6000012B01D8012370E0FB68B3F1FF3F01D1B4
:104C7000FB686AE03B695A69FB689A4201D9FB68A4
:104C800063E03B68BB61BB69FB61FB690133FB61AE
:104C90003B695A69FB699A4207D80223FB61FA69AA
:104CA000BB699A4201D900234FE0F9697868FFF7A0
:104CB000D0FDF860FB68002B0ED0FB68012B03D001
:104CC000FB68B3F1FF3F01D1FB683EE0FA69BB69C5
:104CD0009A42DAD1002338E000BF4FF0FF32F96981
:104CE0003869FFF759FE0346FB75FB7D002B09D1A0
:104CF0003B68002B06D0FA6939683869FFF74CFE2B
:104D00000346FB75FB7D002B16D13B69FA69DA601F
:104D10003B691A693B695B69023B9A4204D23B6971
:104D20001B695A1E3B691A613B691B7943F00103F9
:104D3000DAB23B691A7107E0FB7D012B02D14FF01B
:104D4000FF3300E00123FB61FB6918462037BD46B5
:104D500080BD80B586B000AF786039607B681B6825
:104D60003B613B68B3F5001F04D23B6803F01F03AF
:104D7000002B01D0022363E07B683A681A617B68EC
:104D80009B687B617B69002B06D13B691B78022BFA
:104D900002D93B695B6A7B617B69002B0CD13B6864
:104DA0005B093A691289934201D3022348E03B69C7
:104DB0005A6A7B689A6129E03B695B895B02FB6008
:104DC00019E07B6879691846FFF743FD78617B69D4
:104DD000B3F1FF3F01D1012332E07B69012B04D9FC
:104DE0003B695A697B699A4201D8022328E03A68F4
:104DF000FB68D31A3B603A68FB689A42E1D2796952
:104E00003869FFF707FD02467B689A617B687A691B
:104E10005A617B689B69002B01D1022310E07B68FB
:104E20009A693B685B0A1A447B689A613B6903F1A3
:104E300030023B68C3F308031A447B68DA6100233D
:104E400018461837BD4680BD80B586B000AF786083
:104E500039607B681B68FB607B681B692033BB6023
:104E60007B689B69002B03D0BB68B3F5001F01D39F
:104E70000423A9E0BB68C3F30803002B40F098802B
:104E80007B689B695A1C7B689A617B685B69002B15
:104E90000BD1BB685B09FA6812899342C0F0888025
:104EA0007B6800229A6104238EE0BB685B0AFA6883
:104EB0005289013A1340002B7AD17A687B685B698A
:104EC00019461046FFF7C5FC78617B69012B01D8B4
:104ED000022379E07B69B3F1FF3F01D1012373E045
:104EE000FB685A697B699A4258D83B68002B04D109
:104EF0007B6800229A61042366E07A687B685B69BC
:104F000019461046FFF78DFE78617B69002B01D1B1
:104F1000072359E07B69012B01D1022354E07B690F
:104F2000B3F1FF3F01D101234EE0F868FFF793FB97
:104F30000346002B01D0012346E0FB6830334FF4D9
:104F4000007200211846FFF72AFB00233B617969B4
:104F5000F868FFF75FFC0246FB68DA6212E0FB6864
:104F60000122DA70F868FFF776FB0346002B01D0C8
:104F7000012329E03B6901333B61FB68DB6A5A1C72
:104F8000FB68DA62FB685B891A463B699A42E6D89D
:104F9000FB68DA6A3B69D21AFB68DA627B687A6975
:104FA0005A617969F868FFF735FC02467B689A61B7
:104FB0007B68BA681A61BB68C3F308033033FA68C8
:104FC0001A447B68DA61002318461837BD4680BD55
:104FD00080B586B000AF786039607B681B68FB6085
:104FE00000217868FFF7B5FE0346FB75FB7D002BBB
:104FF0002BD100233B617B689B691946F868FFF75A
:105000006EFB0346FB75FB7D002B1DD17B68DB69C6
:105010001B78E52B04D07B68DB691B78002B07D15C
:105020003B6901333B613A693B689A4202D10CE02B
:1050300000233B6101217868FFF706FF0346FB75FB
:10504000FB7D002BD7D000E000BFFB7D042B01D1FE
:105050000723FB75FB7D18461837BD4680BD80B51C
:1050600084B000AF786039603B681A331846FFF7A8
:10507000F3F90346FB607B681B78032B09D13B687F
:1050800014331846FFF7E8F903461B04FA68134384
:10509000FB60FB6818461037BD4680BD80B584B004
:1050A00000AFF860B9607A60BB681A337A6892B270
:1050B00011461846FFF70BFAFB681B78032B09D142
:1050C000BB6803F114027B681B0C9BB219461046A7
:1050D000FFF7FDF900BF1037BD4680BD80B586B033
:1050E00000AF786039600423FB757B681B683B6107
:1050F0003CE07B689B6919463869FFF7F0FA034684
:10510000FB75FB7D002B36D17B68DB691B78FB735D
:10511000FB7B002B02D10423FB7531E07B68DB694C
:105120000B331B7803F03F03BB737B68BA7B9A7128
:10513000FB7BE52B11D0FB7B2E2B0ED0BB7B0F2BEB
:105140000BD0BB7B23F02003082B0CBF01230023D3
:10515000DBB21A463B689A420FD000217868FFF70D
:1051600073FE0346FB75FB7D002B08D17B689B69B2
:10517000002BBED104E000BF02E000BF00E000BF92
:10518000FB7D002B02D07B6800229A61FB7D1846D4
:105190001837BD4680BD80B586B000AF78607B68AB
:1051A0001B683B6100217868FFF7D3FD0346FB7560
:1051B000FB7D002B01D0FB7D3EE07B689B6919469F
:1051C0003869FFF78CFA0346FB75FB7D002B2FD166
:1051D0007B68DB691B78FB73FB7B002B02D104230C
:1051E000FB7528E07B68DB690B331B7803F03F031A
:1051F000DAB27B689A717B68DB690B331B7803F04A
:105200000803002B0AD17B68D8697B681B6A0B22D4
:105210001946FFF7DEF90346002B0BD00021786812
:10522000FFF712FE0346FB75FB7D002BC5D002E0A5
:1052300000BF00E000BFFB7D18461837BD4680BDAB
:1052400080B584B000AF78607B681B68BB600121CB
:105250007868FFF7BDFE0346FB73FB7B002B1CD178
:105260007B689B691946B868FFF739FA0346FB73F8
:10527000FB7B002B11D17B68DB69202200211846C3
:10528000FFF78DF97B68D8697B681B6A0B2219468A
:10529000FFF764F9BB680122DA70FB7B1846103710
:1052A000BD4680BD80B586B000AF786039603B6890
:1052B00000225A727B689B69002B52D000233B610D
:1052C0003B697B6121E07B68DA697B69591C796104
:1052D00013441B78FB73FB7B202B00D115E0FB7B79
:1052E000052B01D1E523FB737B69092B06D13B69B3
:1052F0005A1C3A613A6813442E225A723B695A1C6E
:105300003A613A681344FA7B5A727B690A2BDAD9FC
:105310003A683B691344093300221A707B68DB69E1
:10532000DA7A3B681A727B68DB691C331846FFF730
:10533000ABF802463B681A607B68DB691833184695
:10534000FFF78AF803461A463B689A807B68DB6958
:1053500016331846FFF780F803461A463B68DA8092
:1053600000E000BF1837BD4680BD000080B588B0A2
:1053700000AF786039603B681B68FB607B681B6A24
:10538000BB600B222021B868FFF709F90023FB77E7
:1053900000233B613B697B610823BB617B695A1C2D
:1053A0007A61FA6813441B78BB77BB7F202B09D93D
:1053B000BB7F2F2B06D0BB7F5C2B10D102E07B691B
:1053C00001337B61FA687B6913441B782F2BF6D07D
:1053D000FA687B6913441B785C2BF0D04AE0BB7FF2
:1053E0002E2B03D03A69BB699A420FD3BB69082BB5
:1053F00002D1BB7F2E2B01D0062370E008233B6136
:105400000B23BB61FB7F9B00FB7732E097F91E30DB
:10541000002B05DAFB7F43F00303FB7706235EE0F6
:10542000BB7F19463048FFF7FBF80346002B01D03D
:10543000062354E0BB7F402B07D9BB7F5A2B04D8EF
:10544000FB7F43F00203FB770CE0BB7F602B09D9A5
:10545000BB7F7A2B06D8FB7F43F00103FB77BB7F32
:10546000203BBB773B695A1C3A61BA681344BA7F48
:105470001A7093E7FA687B691A443B681A60BB7F2D
:10548000202B01D8042300E00023BB773B69002BCD
:1054900001D1062323E0BB681B78E52B02D1BB6852
:1054A00005221A70BB69082B02D1FB7F9B00FB779A
:1054B000FB7F03F00303012B03D1BB7F43F01003F9
:1054C000BB77FB7F03F00C03042B03D1BB7F43F0BE
:1054D0000803BB77BB680B33BA7F1A7000231846EA
:1054E0002037BD4680BD00BFFCC7000880B586B030
:1054F00000AF786039607B683B613B691B68FB608B
:1055000002E03B6801333B603B681B782F2BF8D0EF
:105510003B681B785C2BF4D03B6900229A603B68A7
:105520001B781F2B0BD87B681B6A0B3380221A70E9
:1055300000217868FFF70DFC0346FB7542E03B460F
:1055400019467868FFF712FF0346FB75FB7D002BB9
:1055500033D17868FFF71FFE0346FB757B681B6A33
:10556000DB7AFB72FB7D002B0AD0FB7D042B26D15E
:10557000FB7A03F00403002B21D10523FB751EE009
:10558000FB7A03F00403002B1BD13B699B7903F0EA
:105590001003002B02D10523FB7513E07B681B6908
:1055A000C3F308033033FA6813441946F868FFF769
:1055B00056FD02463B699A60C1E700BF02E000BFAA
:1055C00000E000BFFB7D18461837BD4680BD80B4A3
:1055D00087B000AF78604FF0FF333B617B681B689A
:1055E000002B31D07B681B687B6102E07B69013353
:1055F0007B617B691B78202B03D97B691B783A2B55
:10560000F4D17B691B783A2B1CD17B681B68FB604B
:10561000FB685A1CFA601B78303BBB60BB68092BE7
:105620000ED8FA687B699A420AD1BB68002B07D171
:10563000BB683B617B6901337B617B687A691A6077
:105640003B6902E000233B613B6918461C37BD46BD
:105650005DF8047B7047000080B582B000AF7860D1
:1056600039607B680022DA707B684FF0FF32DA62C3
:1056700039687868FFF733F80346002B01D004231C
:1056800028E07B6803F22E231846FEF7E5FE03466A
:105690001A464AF655239A4201D003231AE07B6842
:1056A00066331846FEF7F0FE034623F07F430B4AAD
:1056B000934201D100230DE07B6882331846FEF748
:1056C000E3FE034623F07F43044A934201D10023C3
:1056D00000E0022318460837BD4680BD464154000D
:1056E00080B596B000AFF860B9601346FB71BB6837
:1056F00000221A60F868FFF76AFFF863FB6B002B63
:1057000001DA0B232BE2A84AFB6B52F82330BB6370
:10571000BB6B002B01D10C2321E2BB68BA6B1A6072
:10572000FB7923F00103FB71BB6B1B78002B1AD0B4
:10573000BB6B5B781846FDF74AFA034687F83730AB
:1057400097F8373003F00103002B0CD1FB79002BC5
:1057500007D097F8373003F00403002B01D00A2359
:10576000FDE10023FBE1BB6B00221A70FB6BDAB298
:10577000BB6B5A70BB6B5B781846FDF713FA034698
:1057800087F8373097F8373003F00103002B01D04A
:105790000323E4E1FB79002B07D097F8373003F0BF
:1057A0000403002B01D00A23D9E100233B65396DA6
:1057B000B86BFFF751FF034687F8573097F857301B
:1057C000022B4BD100233B641FE0BB6B03F1300283
:1057D0003B6C1B0103F5DF7313443B633B6B0433EA
:1057E0001B78002B06D03B6B08331846FEF74CFEA7
:1057F000024600E000223B6C9B0007F158010B447D
:1058000043F8442C3B6C01333B643B6C032BDCD9E9
:1058100000233B643B6C002B02D03B6C013B3B64A0
:105820003B6C9B0007F15802134453F8443C3B6522
:105830003B6D002B05D0396DB86BFFF70DFF0346AC
:1058400000E0032387F8573097F85730012B05D92C
:105850003B6C01333B643B6C032BE1D997F8573029
:10586000042B01D101237AE197F85730012B01D99C
:105870000D2374E1BB6B30330B331846FEF7ECFDA0
:105880000346B3F5007F01D00D2368E1BB6B3033D5
:1058900016331846FEF7E0FD0346FB64FB6C002B55
:1058A00006D1BB6B303324331846FEF7EDFDF864A8
:1058B000BB6BFA6C9A61BB6B93F84020BB6B9A7020
:1058C000BB6B9B78012B05D0BB6B9B78022B01D067
:1058D0000D2344E1BB6B9B781A46FB6C02FB03F380
:1058E000FB64BB6B93F83D309AB2BB6B5A81BB6BC8
:1058F0005B89002B08D0BB6B5B891A46BB6B5B894D
:10590000013B1340002B01D00D2328E1BB6B30334A
:1059100011331846FEF7A0FD03461A46BB6B1A81E9
:10592000BB6B1B8903F00F039BB2002B01D00D232F
:1059300015E1BB6B303313331846FEF78DFD03467C
:10594000BB64BB6C002B06D1BB6B303320331846D5
:10595000FEF79AFDB864BB6B30330E331846FEF782
:105960007BFD0346FB85FB8D002B01D10D23F6E06B
:10597000FA8DFB6C1344BA6B1289120992B213446C
:10598000BB62BA6CBB6A9A4201D20D23E7E0BA6CE3
:10599000BB6AD31ABA6B5289B3FBF2F37B627B6AA0
:1059A000002B03D10D23DAE0480A0020012387F8F9
:1059B00057307B6A40F6F572934202D9022387F88A
:1059C00057307B6A4FF6F572934202D9032387F86A
:1059D00057307B6A9A1CBB6B5A61BB6B3A6DDA61BC
:1059E000FA8D3B6D1A44BB6B1A623A6DBB6A1A445E
:1059F000BB6B9A6297F85730032B1ED1BB6B3033C9
:105A00002A331846FEF728FD0346002B01D00D234C
:105A1000A5E0BB6B1B89002B01D00D239FE0BB6B66
:105A200030332C331846FEF72FFD0246BB6B5A620B
:105A3000BB6B5B699B007B641FE0BB6B1B89002B0E
:105A400001D10D238BE0BB6B1A6AFB6C1A44BB6B54
:105A50005A6297F85730022B03D1BB6B5B695B002E
:105A60000AE0BB6B5A6913465B0013445A08BB6BD0
:105A70005B6903F0010313447B64BB6B9A697B6C25
:105A800003F2FF135B0A9A4201D20D2367E0BB6B5E
:105A90004FF0FF321A61BB6B1A69BB6BDA60BB6BEC
:105AA00080221A7197F85730032B49D1BB6B3033E2
:105AB00030331846FEF7D0FC0346012B40D13B6D36
:105AC00001331946B86BFEF70AFE0346002B37D1A7
:105AD000BB6B00221A71BB6B303303F5FF731846A2
