:1000000014C1000043C1000041C100003FC1000015
:100010003DC100003BC1000039C1000037C10000F4
:1000200035C1000033C1000031C100002FC1000004
:100030002DC100002BC1000029C1000027C1000014
:1000400025C1000023C1000021C100001FC1000024
:100050001DC100001BC1000019C100003BC700000A
:1000600015C100000C945508F9C700007DC70000B9
:100070000DC100000BC1000009C1000007C1000054
:1000800005C1000003C1000001C10000FFC0000065
:10009000FDC00000FBC00000F9C00000F7C0000078
:1000A000F5C00000F3C00000F1C00000EFC0000088
:1000B000EDC00000EBC00000E9C00000E7C0000098
:1000C000E5C00000E3C00000E1C00000DFC00000A8
:1000D000DDC00000DBC00000D9C00000D7C00000B8
:1000E000D5C000008B0A8E0A7D0A810A870AC50ADC
:1000F000920A960A9C0AA00AA40AAA0AAE0AB20A9E
:10010000C50AB80ABC0AC00A000020002300260065
:1001100029002C002F00320000010000030106011D
:10012000090100002200250028002B002E003100CC
:10013000340002010000050108010B0100000A0B58
:1001400002090C0D0E080703040100000000000066
:10015000000000000000000000000000000000009F
:10016000000000000000000012111000000000005C
:10017000000000000000000000000000000000007F
:10018000000000002100240027002A002D0030007C
:10019000330001010000040107010A0101021020DF
:1001A00020080810204010204080020102010804AD
:1001B0000201010204081020408080402010080441
:1001C000020180040201804020100804020108049A
:1001D00002010102040810204080010204081020DE
:1001E0004080050505050705080808080202020207
:1001F0000A0A0808040404040101010101010101C3
:100200000303030303030303040707070C0C0C0C8D
:100210000C0C0C0C02020202060606060606060676
:100220000B0B0B0B0B0B0B0B950F11241FBECFEF02
:10023000D1E2DEBFCDBF00E00CBF12E0A0E0B2E033
:10024000ECE6F0E200E00BBF02C007900D92AA3886
:10025000B107D9F728E0AAE8B2E001C01D92A33E99
:10026000B207E1F711E0C5E1D1E000E006C0219757
:100270000109802FFE010E941B10C431D10780E0CC
:100280000807A9F70E94640C0C943410B9CECF93E0
:10029000DF93EC01898D9A8D892B41F0E881F981FA
:1002A0000284F385E02DCE011995F4CFDF91CF9133
:1002B0000895CF93DF931F92CDB7DEB76983DC013A
:1002C000ED91FC910280F381E02D41E050E0BE0110
:1002D0006F5F7F4F19950F90DF91CF910895FC01CB
:1002E000818D928D0895FC018589968908952BE46E
:1002F00032E0FC0131832083FB014189528963890B
:100300007489FC0142835383648375830895DC01FF
:10031000ED91FC91048CF58DE02D199480E0089509
:10032000089580E090E008958EBD00000DB407FEB2
:10033000FDCF8EB508959B018295880F807E6CE07D
:10034000680FC90186C7CF93C82F60E170E0ECD772
:100350004FEF62E070E08C2FCF91EDCFCF93DF9322
:10036000FC018485813021F0EF01EDDF81E08C8795
:10037000DF91CF9108951F93CF93DF93FB01DC01B1
:1003800058961C921E9257972281211109C02381F1
:10039000211106C02481211103C02581222309F1E6
:1003A00041155105F1F0EA01DC011C961C91AF01E9
:1003B0004E5F5F4F612F6295660F607E645F24E041
:1003C00030E08CE090E01FD74D2F60E170E0812F8E
:1003D000B2DF4C2F61E170E0812FADDF81E090E072
:1003E00002C080E090E0DF91CF911F910895FC0161
:1003F0001382128288EE93E0A0E0B0E084839583BC
:10040000A683B7838AE192E09183808381E0848729
:100410008BE492E0908B8787118A128A138A148A60
:1004200008951F93CF93DF93C82FD62F172FC2D6CF
:10043000812F7ADF8D2F78DF8C2F8295880F807E39
:10044000885F72DF80E070DFC82FB2D68C2FDF911B
:10045000CF911F910895AF92BF92DF92EF92FF92DA
:100460000F931F93CF93DF93D82E7B018A01A12C8A
:10047000B12C8D2D06D7EC01892B19F08D2D01D7CC
:100480005C01CA15DB05A9F7209799F463E070E0D9
:100490008D2DC7DF843109F43AC08823C1F1C1E052
:1004A000D0E08C3111F4C0E0D0E0D195C195D109F4
:1004B0002EC00C171D070CF4E8011C161D063CF598
:1004C00068E270E08D2DADDF082F69E270E08D2DC0
:1004D000A8DF10E0102F0027080F111D6D2D629569
:1004E000660F607E685E9E01A701C80165D60C0F8D
:1004F0001D1F412F68E270E08D2D1DDF402F69E246
:1005000070E08D2D18DF60E470E08D2D0DD7CE01E9
:10051000DF91CF911F910F91FF90EF90DF90BF90EF
:10052000AF900895CF93DF93FC01218D328D21157B
:10053000310519F48FEF9FEF10C0EC0142175307FC
:1005400008F0A9018C8587DF181619069CF7298DFC
:100550003A8D281B390B3A8F298FDF91CF9108955F
:100560000F931F93CF93DF931F92CDB7DEB7FC019C
:10057000218D328D232B59F08C0141E050E0BE01DA
:100580006F5F7F4F848567DF181619061CF08FEFA9
:100590009FEF08C0F801818D928D0197928F818F16
:1005A000898190E00F90DF91CF911F910F91089575
:1005B000BF92CF92DF92EF92FF920F931F93CF9350
:1005C000DF93CDB7DEB728970FB6F894DEBF0FBE26
:1005D000CDBF8C01DC01ED91FC910680F781E02D0F
:1005E0001995F801B484C12CD12C8B2D4AD67C01ED
:1005F000892B19F08B2D45D66C01EC14FD04A9F75D
:10060000EF2849F148E050E0BE016F5F7F4FD8010D
:100610001C968C9120DF18161906FCF4D80151960F
:1006200084E0FE01319601900D928A95E1F78D816B
:1006300090E0982F88272E81820F911DF801968BCC
:10064000858B8F8190E0982F88272885820F911DB8
:10065000928F818F02C080E090E028960FB6F894C8
:10066000DEBF0FBECDBFDF91CF911F910F91FF90E5
:10067000EF90DF90CF90BF9008950F931F93CF938B
:10068000DF931F92CDB7DEB7DC0159962D913C91D7
:100690005A97232B09F1FC01148568E270E0812F41
:1006A000C0DE082F69E270E0812FBBDEE02FF0E0B2
:1006B000FE2FEE27612F6295660F607E685E21E057
:1006C00030E0AE014F5F5F4FDF01A80FB11DCD01DC
:1006D00073D5898190E002C08FEF9FEF0F90DF917B
:1006E000CF911F910F9108957F928F929F92AF9219
:1006F000BF92CF92DF92EF92FF920F931F93CF930F
:10070000DF937C014B018A01FC01C789D08D748481
:10071000A12CB12C872DCCD56C01892B19F0872DFC
:10072000C7D55C01CA14DB04A9F7C016D10668F46A
:1007300000E010E0872DBCD56C01892B19F0872DC6
:10074000B7D58C01C016D106A9F764E270E0872DF9
:1007500068DED82E65E270E0872D63DE2D2D30E057
:10076000322F2227C80FD11DC20FD31F672D6295CC
:10077000660F607E6C5E9801A401CE0144D5C00F67
:10078000D11F4D2F64E270E0872DD5DD4C2F65E23F
:1007900070E0872DD0DDF7018789908D800F911F44
:1007A000908F878BC801DF91CF911F910F91FF90A0
:1007B000EF90DF90CF90BF90AF909F908F907F9001
:1007C0000895CF93FC01C48560E270E08C2FACD516
:1007D00062E070E08C2F25DE84FD0EC062E070E0E8
:1007E0008C2F1FDE83FFF4CF48E162E070E08C2F96
:1007F000A2DD80E090E007C040E162E070E08C2F75
:100800009ADD81E090E0CF910895EF92FF920F93EF
:100810001F93CF93DF93FC01D485D13011F0D0E04A
:100820003DC07B018C0163E070E080E0FADD88234D
:1008300011F0883111F4F8011486F801C485C13033
:1008400071F3F686E586128E118E8C2F7CDD42E0E8
:1008500060E070E08C2F6FDDE114F10439F04F2D72
:1008600064E070E08C2F67DD4E2D10C000918A028D
:1008700010918B020F5F1F4F10938B0200938A021F
:10088000412F64E070E08C2F56DD402F65E070E072
:100890008C2F51DD61E070E08C2F46D58D2FDF91DC
:1008A000CF911F910F91FF90EF9008956F927F92DB
:1008B0008F929F92AF92BF92CF92DF92EF92FF9270
:1008C0000F931F93CF93DF93CDB7DEB7EC970FB69F
:1008D000F894DEBF0FBECDBF4C017B013A010BE4A3
:1008E00012E01A8309831B821C821D821E82CE01A4
:1008F00009967DDD19AB08AB1AAA1BAA1CAA1DAA72
:100900008091FF0790910008A0910108B091020822
:100910008EA39FA3A8A7B9A78B839C83AD83BE8317
:1009200018861F82F701D7018D918111FDCF20E03C
:1009300030E080E090E05AE04191442311F18430AE
:1009400091050CF042C04E3279F42F3F310509F089
:10095000E4F5A2E3B0E0AC0FBD1FA80FB91F2C93C4
:10096000019620E030E0E8CF529FB001539F700D18
:100970001124242F440F330B20533109260F371F26
:10098000DBCF2F3F310509F004F584309105ECF4FD
:10099000FE01E80FF91F22ABD401ED91FC91048810
:1009A000F589E02D8BE492E09DA38CA38AA99BA9F5
:1009B000ACA9BDA98EA39FA3A8A7B9A7A301BE01F7
:1009C0006C5D7F4FC4011995FCC14B815C816D81C9
:1009D0007E818091050890910608A0910708B0914A
:1009E0000808481759076A077B0709F4E8C160D768
:1009F0006F7077277C5FCE01099607DF813009F0A1
:100A0000DBC18BE492E09DA38CA38B819C81AD81A3
:100A1000BE818EA39FA3A8A7B9A745E350E0BE015E
:100A20006C5D7F4FCE010996A6DC892B19F400E09E
:100A300010E0E6C03DD778876F8342E050E0BE010A
:100A4000695F7F4FCE0109964FDE81E090E09DA364
:100A50008CA342E050E0BE016C5D7F4FCE01099651
:100A600043DE80E091E09DA38CA342E050E0BE0114
:100A70006C5D7F4FCE01099637DE1DA21CA242E0BD
:100A800050E0BE016C5D7F4FCE0109962DDE42E045
:100A900050E0BE016C5D7F4FCE01099625DE42E03D
:100AA00050E0BE016C5D7F4FCE0109961DDE6701EF
:100AB000D7018C91882301F186017801F70181919A
:100AC0005F01882321F08E3211F08501F6CF0C19D9
:100AD0001D091016110674F40EAB41E050E0BE0182
:100AE0006A5C7F4FCE010996FFDDA801B601CE01F9
:100AF0000996FADD6501DCCF1EAA41E050E0BE0197
:100B00006A5C7F4FCE010996EFDD00E011E01DA386
:100B10000CA342E050E0BE016C5D7F4FCE01099610
:100B2000E3DD1DA30CA342E050E0BE016C5D7F4FEE
:100B3000CE010996D9DDCE01099643DE892B09F451
:100B400076CF83E0E82EF12CB3D65B016C01CE01A9
:100B500009962EDD1816190694F0AAD6DC01CB01F1
:100B60008A199B09AC09BD0989389341A105B105D2
:100B7000C0F462E370E080E090E072D5E8CF4B8192
:100B80005C816D817E818A8D9B8DAC8DBD8D48177A
:100B900059076A077B0741F48E8D9F8DC59721F415
:100BA00006C00FEF1FEF23C00EEF1FEF20C08AA17A
:100BB0009BA10C970CF4FDC04CE050E0BE016C5DB5
:100BC0007F4FCE010996AEDC8EA19FA19827892781
:100BD00098279BAF8AAF4F8158852CA13DA1421722
:100BE0005307B9F0CE01099652DB0CEF1FEFF1E08D
:100BF000EF1AF10829F00F3FFFEF1F0709F4A4CF08
:100C0000CE010996ABDB0130110509F4C5CEC80150
:100C1000D8C097FFE7CF8F709270892B31F0CE014B
:100C2000099635DB0BEF1FEFE2CFAAA4BBA4BA24D1
:100C3000AB24BA24A114B10419F000E010E022C0E2
:100C4000CE01099624DB0AEF1FEFD1CF41E050E03F
:100C5000BE016A5C7F4FCE01099664DC8EA98111CA
:100C60001AC08EA98111F2CFCE01099679DCCE018E
:100C7000099676DCCE01099673DCCE01099670DC0C
:100C80000F5F1F4F88A599A59827892798270817D0
:100C90001907E0F20AC08EA99FEF980F9EAB882338
:100CA00001F3CE0109965CDCF6CFC12CD12C41E0DA
:100CB00050E0BE01645C7F4FCE01099633DC8CAD01
:100CC000982F907C61F4882389F08CAD9FEF980F6A
:100CD0009CAF882341F0CE01099642DCF6CFCE01CD
:100CE00009963EDC1CAE8CAD8111E1CF42E050E0B4
:100CF000BE01685C7F4FCE01099614DC42E050E0F3
:100D0000BE016A5C7F4FCE0109960CDCCE010996CC
:100D100027DCCE01099624DCCE01099621DCCE0128
:100D200009961EDC42E050E0BE01665C7F4FCE01BA
:100D30000996F8DB88AD99AD8115914041F40EA973
:100D40001FA91027012710270130110519F000E015
:100D500010E014C08AAD9BAD8115944031F0CE01F6
:100D6000099695DA07EF1FEF42CF44E050E0BE014D
:100D70006E5C7F4FCE010996D5DB39CF8AAD9BAD36
:100D80009827892798270817190730F4CE01099664
:100D9000E7DB0F5F1F4FF2CFEFEFCE1ADE0AAC1486
:100DA000BD0409F084CFCE01099671DA06EF1FEF7A
:100DB0001ECF0DEF1FEF1BCF80E090E002C08EEF43
:100DC0009FEFEC960FB6F894DEBF0FBECDBFDF915C
:100DD000CF911F910F91FF90EF90DF90CF90BF9038
:100DE000AF909F908F907F906F900895CF92DF92F9
:100DF000EF92FF920F931F93CF93DF936C017A01D1
:100E00008B01C0E0D0E0CE15DF0581F0D8016D91F7
:100E10008D01D601ED91FC910190F081E02DC6018C
:100E20001995892B11F02196EECF7E01C701DF9134
:100E3000CF911F910F91FF90EF90DF90CF90089589
:100E40000E9423108F929F92AF92BF92CF92DF9217
:100E5000EF92FF920F931F93CF93DF937C01EB01EF
:100E60006C0182E0C80ED11C4701E5E08E0E911C9A
:100E700000E010E0F60141916F0150E060E070E0A9
:100E80002AE0CE01D3D25C01E881F9810190F081A2
:100E9000E02D6EE2CE0119958A0D9B1D080F191FDA
:100EA0008C149D0439F7F701458150E060E070E053
:100EB0002AE0CE01BBD2800F911FDF91CF911F910D
:100EC0000F91FF90EF90DF90CF90BF90AF909F90E9
:100ED0008F9008951F920F920FB60F9211242F93A7
:100EE0003F938F939F93AF93BF938091D00790913F
:100EF000D107A091D207B091D3073091CF0723E05B
:100F0000230F2D3720F40196A11DB11D05C026E841
:100F1000230F0296A11DB11D2093CF078093D00708
:100F20009093D107A093D207B093D3078091D407B1
:100F30009091D507A091D607B091D7070196A11D32
:100F4000B11D8093D4079093D507A093D607B09393
:100F5000D707BF91AF919F918F913F912F910F90A4
:100F60000FBE0F901F9018951F920F920FB60F9201
:100F700011240BB60F922F933F938F939F93EF9370
:100F8000FF93209197023091980280919202909164
:100F9000930221303105B1F48F3F2FEF920791F486
:100FA0001092C50089E08093C40088E48093C1005A
:100FB00086E28093C2001092C600109293021092B3
:100FC00092023FC00097A1F41092C50083E0809385
:100FD000C40088E28093C1008EE08093C20010922A
:100FE000C60081E090E0909393028093920229C022
:100FF0009C012F5F3F4F3093930220939202FC019C
:10100000E455FA4F80818093C60080910002909150
:10101000010220919202309193028217930788F483
:101020008FEF9FEF90939302809392021092C500EE
:1010300083E08093C40088E48093C1008EE08093B5
:10104000C200FF91EF919F918F913F912F910F904F
:101050000BBE0F900FBE0F901F9018951F920F920E
:101060000FB60F9211240BB60F922F933F934F930D
:101070005F936F937F938F939F93AF93BF93EF9300
:10108000FF9372DFFF91EF91BF91AF919F918F918D
:101090007F916F915F914F913F912F910F900BBE78
:1010A0000F900FBE0F901F9018951F920F920FB6C2
:1010B0000F9211240BB60F922F933F934F935F9390
:1010C0006F937F938F939F93AF93BF93EF93FF9310
:1010D0002091C00020718091C600909194029130BF
:1010E00021F482E08093940250C0222331F083E007
:1010F000809394028CEA95E015C09330C1F481117D
:101100002BC084E080939402D3D360938C027093BD
:101110008D0280938E0290938F0280919002909125
:1011200091020196909391028093900218C094309E
:10113000B1F4E0919002F091910290818913808343
:101140003196F0939102E09390028091AA059091DC
:10115000AB058E179F07C8F485E0809394028091B9
:101160009402853091F480919702909198020397B0
:1011700009F0B7CF1092C50083E08093C40080E1EE
:101180008093C1008EE08093C200FF91EF91BF91E8
:10119000AF919F918F917F916F915F914F913F910F
:1011A0002F910F900BBE0F900FBE0F901F901895B0
:1011B0002C9A08952C980895DF92EF92FF920F9346
:1011C0001F93CF93DF93D82FD92EC62F7A01890191
:1011D000F1DF8D2DA9D88D2FA7D88C2FA5D8E701A9
:1011E000E00EF11ECE15DF0521F080E09DD8899339
:1011F000F9CFDEDFC801DF91CF911F910F91FF90F2
:10120000EF90DF900895DF92EF92FF920F931F937C
:10121000CF93DF93D82FD92EC62F7A018901CADF49
:101220008D2D82D88D2F80D88C2F7ED8E701E00EAF
:10123000F11ECE15DF0519F0899176D8FACFB8DF07
:10124000C801DF91CF911F910F91FF90EF90DF9038
:1012500008950F931F93CF93DF93182F092FD62F45
:10126000C42FA8DF802F60D8812F5ED88D2F5CD847
:101270008C2F5AD89DDF81E0DF91CF911F910F9184
:1012800008951F93CF93DF93182F66E270E0C9D8BB
:10129000C82FD0E0DC2FCC2767E270E0812FC1D8C7
:1012A0009E01280F311DC901DF91CF911F91089533
:1012B0001F93CF93DF93182F60E270E0B2D8C82F4E
:1012C000D0E0DC2FCC2761E270E0812FAAD89E010C
:1012D000280F311DC901DF91CF911F9108953FB7AC
:1012E000F8948091D4079091D507A091D607B0913A
:1012F000D70726B5A89B05C02F3F19F00196A11D61
:10130000B11D3FBFBA2FA92F982F8827820F911D9B
:10131000A11DB11DBC01CD0142E0660F771F881FE2
:10132000991F4A95D1F70895CF93C82F462F61E0B2
:1013300070E001D861E070E08C2F73D88111FACF92
:10134000CF91089524E030E0AC0160E08FE090E0C0
:1013500033CFCF93DF9300D000D0CDB7DEB781E499
:101360008093240882E78093250884E780932608E9
:101370009DE2909327089EE49093280895E6909329
:10138000290880932A0810922B0880E090E590931A
:101390002D0880932C0880E09EE090932F08809386
:1013A0002E081092300810923108109233081092D3
:1013B000320880E09AE19093350880933408E8ED94
:1013C000F7E0A6E3B8E081918D9387E0E03FF8076E
:1013D000D1F78BE492E09A8389838091F207909110
:1013E000F307A091F407B091F5078B839C83AD833D
:1013F000BE8346E359E1BE016F5F7F4F89E098E00D
:101400000E94BB014CE250E064E278E089E098E0A1
:101410006BD989E098E0D5D980E026960FB6F8948C
:10142000DEBF0FBECDBFDF91CF9108958F929F9207
:10143000AF92BF92EF92FF920F931F93CF93DF93E0
:10144000CDB7DEB7A1970FB6F894DEBF0FBECDBF04
:101450007C01FA01CB0119A2223008F42AE08E01A6
:101460000F5D1F4F822E912CA12CB12CBF01A50125
:101470009401BFD5F901CA01015011096A3014F471
:10148000605D01C0695CD8016C93232B242B252B54
:1014900069F70115110591F0F80101900020E9F7B5
:1014A0003197AF01401B510BD701ED91FC910280A8
:1014B000F381E02DB801C701199502C080E090E0EA
:1014C000A1960FB6F894DEBF0FBECDBFDF91CF91CE
:1014D0001F910F91FF90EF90BF90AF909F908F90D2
:1014E000089590E0FC013197E231F10508F04DC01C
:1014F0008827EE58FF4F8F4F9EC5809180008F77D1
:1015000003C0809180008F7D80938000089580913A
:101510008000877FF9CF84B58F7702C084B58F7D37
:1015200084BD08958091B0008F7703C08091B00092
:101530008F7D8093B0000895809190008F7707C0D1
:10154000809190008F7D03C080919000877F809371
:10155000900008958091A0008F7707C08091A0002F
:101560008F7D03C08091A000877F8093A0000895A5
:10157000809120018F7707C0809120018F7D03C06B
:1015800080912001877F8093200108951F93CF933E
:10159000DF93282F30E0F901E45CFE4F8491F901DC
:1015A000E456FE4FD491F901EE51FE4FC491CC2385
:1015B000B9F0162F811195DFEC2FF0E0EE0FFF1F31
:1015C000EE5DFE4FA591B4919FB7F894111104C040
:1015D0008C91D095D82302C0EC91DE2BDC939FBF79
:1015E000DF91CF911F910895CF93DF9390E0FC019D
:1015F000E456FE4F2491FC01EE51FE4F8491882366
:1016000061F190E0880F991FFC01EE57FE4FC591E4
:10161000D491FC01EE5DFE4FA591B491611109C01A
:101620009FB7F8948881209582238883EC912E239C
:101630000BC0623061F49FB7F8948881322F3095E7
:1016400083238883EC912E2B2C939FBF06C08FB7EA
:10165000F894E8812E2B28838FBFDF91CF910895D6
:101660008F929F92AF92BF92CF92DF92EF92FF92B2
:101670006B017C0134DE4B015C01C114D104E10437
:10168000F104E9F02CDEDC01CB0188199909AA09E3
:10169000BB09883E9340A105B10578F321E0C21A49
:1016A000D108E108F10888EE880E83E0981EA11C9D
:1016B000B11CC114D104E104F10421F7DECFFF9085
:1016C000EF90DF90CF90BF90AF909F908F90089554
:1016D000CF92DF92EF92FF920F931F93CF93DF93FE
:1016E000CDB7DEB7C254D1090FB6F894DEBF0FBE36
:1016F000CDBFFC0182819381A481B58123968CAFFB
:101700009DAFAEAFBFAF239721E023962FAF2397B6
:1017100023964CAD5DAD6EAD7FAD23974BAB5CAB0F
:101720006DAB7EAB89AF9AAFABAFBCAF8DA79EA7B9
:10173000AFA7B8AB28AB4DA55EA56FA578A94FA301
:1017400058A769A77AA72EAB4BA95CA96DA97EA95A
:1017500049A35AA36BA37CA38B8F9C8FAD8FBE8FA5
:101760004BE452E05C8B4B8B3FEF3D8B3E8B3F8BD2
:10177000188E5E874D872AA7CFA0D8A4E9A4FAA423
:10178000CF86D88AE98AFA8A2CA309A11AA12BA1AB
:101790003CA109871A872B873C875A8349838B830F
:1017A0009C83AD83BE8368EE73E080E090E058DFF9
:1017B000249A1FB7F89480915008811123C0E7E163
:1017C000F2E08491E1EDF1E09491E82FF0E0EE0F8A
:1017D000FF1FEE57FE4FA591B491EC91E92319F448
:1017E00061E085E3D3DE61E085E3FEDE8CB58061F8
:1017F0008CBD8CB580648CBD61E084E3F5DE61E076
:1018000083E3F2DE809150088F5F809350081FBF02
:1018100040E865E080E090E01CDD40E16CE08EE1B6
:1018200090E017DD40E16CE08FE190E012DD26E012
:1018300030E046EF57E064E089E090E0E4DC24E04B
:1018400030E0AE014D5F5F4F64E08FE090E0DBDCA5
:1018500024E030E0AE01415F5F4F64E081E090E062
:10186000D2DC24E030E0AE014B5E5F4F64E085E007
:1018700090E0C9DC81E08C8789859A85AB85BC8541
:101880008093FF0790930008A0930108B09302088B
:10189000CE5BDF4F0FB6F894DEBF0FBECDBFDF913A
:1018A000CF911F910F91FF90EF90DF90CF9008950F
:1018B0002FB7F8946091D0077091D1078091D2072B
:1018C0009091D3072FBF0895CF93DF93CDB7DEB7A5
:1018D00029970FB6F894DEBF0FBECDBF789484B5BC
:1018E000826084BD84B5816084BD85B5826085BD1C
:1018F00085B5816085BD80916E00816080936E00AA
:10190000109281008091810082608093810080919B
:10191000810081608093810080918000816080934C
:1019200080008091B10084608093B1008091B0000C
:1019300081608093B00080919100826080939100DB
:1019400080919100816080939100809190008160EE
:10195000809390008091A10082608093A10080918B
:10196000A10081608093A1008091A000816080939C
:10197000A00080912101826080932101809121014A
:1019800081608093210180912001816080932001FA
:1019900080917A00846080937A0080917A008260DE
:1019A00080937A0080917A00816080937A008091A0
:1019B0007A00806880937A001092C1008AE190E0FA
:1019C000909301028093000282E090E0909396024F
:1019D0008093950281E0809394021092930210927A
:1019E00092028CEA95E0909391028093900260DFDE
:1019F00060938C0270938D0280938E0290938F027D
:101A000080E092E0909301028093000280910002B6
:101A10009091010284559A4F9093AB058093AA054B
:101A2000ECEAF5E08DEA97E011928E179F07E1F757
:101A300081E090E090939802809397021092C0000A
:101A40001091950261E0812FCFDD60E0812F9EDD56
:101A5000809197029091980281309105B9F461E0EC
:101A6000812F94DD80E290E0909301028093000248
:101A70001092C50089E08093C40088E48093C1007F
:101A800086E28093C2001092C6001DC00297D9F46E
:101A90008CEA95E0909391028093900281E080938C
:101AA00094021092C50083E08093C40080E9809383
:101AB000C1008EE08093C2008091C00087FF03C008
:101AC0008091C600F9CF84E08093F60789EE809379
:101AD000F70785EE8093F80786E58093F90738E7E6
:101AE0003093FA072AE92093FB0792E09093F207DC
:101AF0008FEF8093F3078093F4078093F50790931B
:101B00009D0249EF40939E0230939F022093A002D2
:101B10009093A1028093A2028093A3028093A402D7
:101B20008093990210929A0210929B0210929C024A
:101B3000E6E1EE2EE2E0FE2E02E012E062E0D801E5
:101B40008D918D0151DDE016F106C1F70BE412E035
:101B50001A83098380919D0290919E02A0919F0219
:101B6000B091A0028B839C83AD83BE83CE0101968E
:101B7000AFDD1A8309831B821C821D821E82CE0167
:101B80000396E0DB8B818093A5021A8309831B8275
:101B90001C821D821E82CE010396D4DB8C81809331
:101BA000A6021A8309831B821C821D821E82CE011B
:101BB0000396C8DB8D818093A7021A8309831B8259
:101BC0001C821D821E82CE010396BCDB8E81809317
:101BD000A80266E379E189E098E00E94050424E028
:101BE00030E049E952E064E085E090E00CDB8AE116
:101BF000E8EDF7E0DF01082F1D920A95E9F7E1EB28
:101C0000F7E0DF011D928A95E9F730E0432E30E0DE
:101C1000532E612C41E2742E56E3C52E59E1D52E88
:101C200063E5A62E60E5B62E7BE4872E72E0972E44
:101C300024E7222E3DDE6093CB077093CC07809380
:101C4000CD079093CE0789E098E00E94D8020197D3
:101C50008231924008F0C4C042E152E068E973E08A
:101C600089E098E00E949202A8E9B3E0EEE3F2E096
:101C70002D91819130E0082E000C990B281739071F
:101C800009F0AEC002E0E634F00791F78091A003BE
:101C90009091A1038115904209F0A2C021E4209304
:101CA000A90232E73093AA022092AB028DE2809320
:101CB000AC029EE49093AD02A5E6A093AE02209202
:101CC000AF021092B0027092B2026092B1025091D3
:101CD000A5025093B3024091A6024093B402309102
:101CE000A7023093B5022091A8022093B602D092A9
:101CF000B802C092B7021092BA021092B9021092C2
:101D0000BB021092BC021092BD02BFEFB093BE02A4
:101D10001092BF0282ED8093C002B092C202A092E4
:101D2000C1028BE0E3E5F2E0A3ECB2E001900D929A
:101D30008A95E1F78CE2EEE5F2E0A5EDB2E00190E4
:101D40000D928A95E1F7109215031092550381E0E8
:101D50008093560390EC9093570398E090935B0325
:101D600060E860935F03809363038093670310923E
:101D70006B0310926C0310926D031092710310921A
:101D80007203509378034093790330937A0320933E
:101D90007B0380937C0390937D039A828982809158
:101DA000A1029091A202A091A302B091A4028B8300
:101DB0009C83AD83BE8346E359E1BE016F5F7F4FD5
:101DC00089E098E00E94BB014FEE50E069EA72E0C2
:101DD00089E098E00E94740389E098E00E94E103A2
:101DE0008AE1E8EDF7E011928A95E9F708ED17E04E
:101DF00018870F8392E0E92E92E0F92ED7012D91FA
:101E00007D0130E0F901E45CFE4F8491F901E45674
:101E1000FE4FB491B987F901EE51FE4F3490332053
:101E200009F47EC081115DDBE32DF0E0EE0FFF1FB2
:101E3000E85FFE4FA591B491EC91F985EF2309F489
:101E40006FC00F5F1F4F26E1E21622E0F206B1F6E7
:101E50004AE150E068ED77E081EB97E0F8D0892B1C
:101E600091F18AE1E8EDF7E0A1EBB7E001900D9286
:101E70008A95E1F76EDA2091AA053091AB05EDEA7B
:101E8000F5E080E090E0AF81B8854D91B887AF83F1
:101E90000196419340910002509101024817590761
:101EA00050F490930102809300022091000230913F
:101EB000010224553A4F8A31910529F73093AB0539
:101EC0002093AA0526C08091CB079091CC07A091C2
:101ED000CD07B091CE074091AD075091AE0760910C
:101EE000AF077091B0078C019D01041B150B260BE9
:101EF000370BB901A801483E53406105710548F010
:101F00008093AD079093AE07A093AF07B093B0074F
:101F100020DA4114510409F48DCE0E94000088CECD
:101F2000EFEFD8011596EC938CCFCF93DF93E1E5DB
:101F3000F8E0CBE4D2E0D183C08312821382148212
:101F40001582E9EBF8E0D183C083128213821482F8
:101F500015828EE998E00E94F701EDEFF7E0D1835A
:101F6000C0831282138214821582EFEBF8E0D183D2
:101F7000C0831282138214821582E5ECF8E0D183CB
:101F8000C0831282138214821582EBECF8E0D183B5
:101F9000C0831282138214821582E3E0F8E0D183B9
:101FA000C0831282138214821582E1EDF8E0D1839E
:101FB000C0831282138214821582E7EDF8E0D18388
:101FC000C083128213821482158289E098E00E94F5
:101FD000F701EDEDF8E0D183C08312821382148201
:101FE0001582E2E0F2E08DE08483838BDF91CF9174
:101FF0000895A1E21A2EAA1BBB1BFD010DC0AA1F4A
:10200000BB1FEE1FFF1FA217B307E407F50720F061
:10201000A21BB30BE40BF50B661F771F881F991FDC
:102020001A9469F760957095809590959B01AC0125
:10203000BD01CF010895EE0FFF1F881F8BBF0790D2
:10204000F691E02D199481E090E0F8940DC0FB0129
:10205000DC0104C08D910190801921F44150504061
:0C206000C8F7881B990B0895F894FFCF77
:10206C0020001C1D1E1F0012131415170E0F10112B
:10207C0018020304050000000000590174039101CB
:10208C0047016F01B0023D0305048E01AE01BB0197
:10209C005604E103D8029202870177017301417261
:1020AC00742D4E6574000000000000220700000033
:1020BC0000200746696E67657257696E6700504964
:1020CC0058454C45442E46696E67657257696E6774
:1020DC00202D2032356368204172744E6574206364
:0A20EC006F6E74726F6C6C65720009
:00000001FF
