:200000000C9466040C94351B0C940E1B0C948E040C948E040C948E040C948E040C94101A8B
:200020000C948E040C948E040C948E040C945C1B0C948E040C948E040C948E040C948E044B
:200040000C94C41A0C948E040C94921A0C946C1A0C948E040C948E040C948E040C948E04B6
:200060000C948E040C948E044E414E494E495459494E46CDCCCC3D0AD7233C17B7D13877A5
:20008000382B329595E6241FB14F0A000020410000C84200401C4620BCBE4CCA1B0E5AAE80
:2000A000C59D742C313E7D007B3C613A3131352C352C53776974636820526561722C302C38
:2000C000302C002C313E7D007B3C613A3131352C342C5377697463682046726F6E742C3040
:2000E0002C302C007B3C633A3131352C2A2A2A526576657273652C313E7D002C353E7D00D3
:200100007B3C613A3131342C362C5374616E642062792F6D696E2C302C3234302C002C3556
:200120003E7D007B3C613A3131342C352C4C6F737420546F776C696E652F732C302C313858
:20014000302C002C313E7D007B3C613A3131342C342C486F6F6B20536572763A436C6F739B
:20016000652C302C3235352C002C313E7D007B3C613A3131342C332C486F6F6B2053657264
:20018000763A4F70656E2C302C3235352C002C302E30323E7D007B3C613A3131342C312CB5
:2001A000486F6F6B20426F756E63652F732C302C322C002C313E7D007B3C613A3131342C7E
:2001C000312C4163656C6572617465206572726F722C302C33302C002C302E30323E7D0034
:2001E0007B3C613A3131342C302C546F772064656C61792C302C322C007B3C633A31313456
:200200002C2A2A2A54696D696E6773202620486F6F6B2C303E7D002C313E7D007B3C613AE1
:200220003131332C362C536572766F20486F6F6B2C302C302C002C313E7D007B3C613A315C
:2002400031332C352C5244542C302C302C002C313E7D007B3C613A3131332C342C5365722A
:20026000766F20506F776572204F66662C302C302C002C313E7D007B3C613A3131332C33EF
:200280002C42555A20616674657220464C592C302C302C002C313E7D007B3C613A31313321
:2002A0002C312C4C4544204020464C592C302C302C002C313E7D007B3C613A3131332C3036
:2002C0002C4C4544204020416363656C65726174696F6E2C302C302C007B3C633A31313306
:2002E0002C2A2A2A53657474696E67732C313E7D002C313E7D007B3C613A31322C332C573C
:20030000494E472C302C3235352C002C313E7D007B3C613A31322C322C525544442C302CA1
:200320003235352C002C313E7D007B3C613A31322C312C535441422C302C3235352C007BAA
:200340003C633A31322C5B385D2044542C303E7D002C313E7D007B3C613A31312C332C57C8
:20036000494E472C302C3235352C002C313E7D007B3C613A31312C322C525544442C302C42
:200380003235352C002C313E7D007B3C613A31312C312C535441422C302C3235352C007B4B
:2003A0003C633A31312C5B375D20464C592C303E7D002C313E7D007B3C613A31302C332C6F
:2003C00057494E472C302C3235352C002C313E7D007B3C613A31302C322C525544442C30B8
:2003E0002C3235352C002C313E7D007B3C613A31302C312C535441422C302C3235352C003B
:200400002C302E353E7D007B3C613A31302C302C4475726174696F6E2C302C33302C007B4F
:200420003C633A31302C2020205B365D20474C494445322C303E7D002C313E7D007B3C610A
:200440003A392C332C57494E472C302C3235352C002C313E7D007B3C613A392C322C525545
:2004600044442C302C3235352C002C313E7D007B3C613A392C312C535441422C302C32355F
:20048000352C002C302E353E7D007B3C613A392C302C4475726174696F6E2C302C31302C13
:2004A000007B3C633A392C2020205B355D20474C4944452C303E7D002C313E7D007B3C616A
:2004C0003A382C332C57494E472C302C3235352C002C313E7D007B3C613A382C322C5255C7
:2004E00044442C302C3235352C002C313E7D007B3C613A382C312C535441422C302C3235E0
:20050000352C002C302E30323E7D007B3C613A382C302C4475726174696F6E2C302C322C95
:20052000007B3C633A382C2020205B345D2042554E54322C303E7D002C313E7D007B3C61E5
:200540003A372C332C57494E472C302C3235352C002C313E7D007B3C613A372C322C525548
:2005600044442C302C3235352C002C313E7D007B3C613A372C312C535441422C302C323560
:20058000352C002C302E30323E7D007B3C613A372C302C4475726174696F6E2C302C322C16
:2005A000007B3C633A372C2020205B335D2042554E542C303E7D002C313E7D007B3C613A5F
:2005C000362C332C57494E472C302C3235352C002C313E7D007B3C613A362C322C525544C0
:2005E000442C302C3235352C002C313E7D007B3C613A362C312C535441422C302C323535F0
:200600002C002C302E30323E7D007B3C613A362C302C4475726174696F6E2C302C322C00CB
:200620007B3C633A362C2020205B325D2055502C303E7D002C313E7D007B3C613A352C33E0
:200640002C57494E472C302C3235352C002C313E7D007B3C613A352C322C525544442C3035
:200660002C3235352C002C313E7D007B3C613A352C312C535441422C302C3235352C002CB8
:20068000302E30323E7D007B3C613A352C302C4475726174696F6E2C302C322C007B3C638A
:2006A0003A352C2020205B315D20505553482C303E7D002C313E7D007B3C613A342C332CB6
:2006C00057494E472C302C3235352C002C313E7D007B3C613A342C322C525544442C302CB6
:2006E0003235352C002C313E7D007B3C613A342C312C535441422C302C3235352C007B3CDA
:20070000633A342C4143432C303E7D002C313E7D007B3C613A332C332C57494E472C302C19
:200720003235352C002C313E7D007B3C613A332C322C525544442C302C3235352C002C31EE
:200740003E7D007B3C613A332C312C535441422C302C3235352C007B3C633A332C544F57A9
:200760002C303E7D002C313E7D007B3C613A322C332C57494E472C302C3235352C002C3159
:200780003E7D007B3C613A322C322C525544442C302C3235352C002C313E7D007B3C613AA7
:2007A000322C312C535441422C302C3235352C007B3C633A322C4349522C303E7D002C3100
:2007C0003E7D007B3C613A312C302C66726F6D2072656C656173652C302C3630302C0073E1
:2007E0006563732C303E7D007B3C633A312C464C592054696D65203A2000252C313E7D00A5
:20080000205620207E2020007B3C633A302C2020202020202020426174746572793A20007F
:2008200000000000240027002A0000000000230026002900000000080002010000030407B8
:200840000000000000000000636F6D6D616E64733A7B6765747D207B6765745F6770737DD3
:20086000207B6765745F616C747D207B72657365747D207B736176657D207B68656C707DBD
:2008800000536F66743A00426F6172643A00426175643A000102040810204080010204089C
:2008A000102001020408102000000000250028002B00040404040404040402020202020225
:2008C0000303030303030200181C9D2511241FBECFEFD8E0DEBFCDBF12E0A0E0B1E0E6ED87
:2008E000F9E502C005900D92A236B107D9F724E0A2E6B2E001C01D92A536B207E1F714E0D6
:20090000C5E6D4E004C02197FE010E94982AC436D107C9F70E94A81C0C94DE2C0C94000057
:2009200087E480937C0080917A00806480937A0080917A0086FDFCCF8091780090917900C5
:20094000089580912C03882319F087E08093500308950895AF92BF92CF92DF92EF92FF9289
:200960000F931F93CF93DF936C017B018B01040F151FEB015E01AE18BF08C017D10759F0C3
:200980006991D601ED91FC910190F081E02DC6010995892B79F7C501DF91CF911F910F91FD
:2009A000FF90EF90DF90CF90BF90AF900895FC01538D448D252F30E0842F90E0821B930BC0
:2009C000541710F0CF96089501970895FC01918D828D981761F0A28DAE0FBF2FB11D5D96B0
:2009E0008C91928D9F5F9F73928F90E008958FEF9FEF0895FC01918D828D981731F0828DCB
:200A0000E80FF11D858D90E008958FEF9FEF0895FC01918D228D892F90E0805C9F4F821BB0
:200A200091098F739927089582E693E00E94080521E0892B09F420E0822F089580E090E063
:200A4000892B29F00E94140581110C9400000895FC01A48DA80FB92FB11DA35ABF4F2C91DC
:200A6000848D90E001968F739927848FA689B7892C93A089B1898C91837080648C93938DC5
:200A8000848D981306C00288F389E02D80818F7D80830895EF92FF920F931F93CF93DF93DA
:200AA000EC0181E0888F9B8D8C8D98131AC0E889F989808185FF15C09FB7F894EE89FF89DD
:200AC0006083E889F98980818370806480839FBF81E090E0DF91CF911F910F91FF90EF9008
:200AE0000895F62E0B8D10E00F5F1F4F0F731127E02E8C8D8E110CC00FB607FCFACFE88983
:200B0000F989808185FFF5CFCE010E942805F1CFEB8DEC0FFD2FF11DE35AFF4FF0829FB7AC
:200B2000F8940B8FEA89FB8980818062CFCF0F931F93CF93DF938C01D0E0C0E0F801EC0F1E
:200B4000FD1F6491662341F082E693E00E944A05892B11F02196F2CFCE01DF91CF911F9182
:200B60000F910895CF93DF93EC01888D8823B9F0AA89BB89E889F9898C9185FD03C0808141
:200B800086FD0DC00FB607FCF7CF8C9185FFF2CF808185FFEDCFCE010E942805E9CFDF910E
:200BA000CF910895833081F028F4813099F08230A9F008958730A9F08830C9F08430B1F4BC
:200BC000809180008F7D03C0809180008F7780938000089584B58F7784BD089584B58F7D8C
:200BE000FBCF8091B0008F778093B00008958091B0008F7DF9CFCF93DF93282F30E0F9013A
:200C0000EC5CF74F8491F901EC56F74FD491F901EE54F74FC491CC23A1F081110E94D205E8
:200C2000EC2FF0E0EE0FFF1FE65DF74FA591B491EC91ED2381E090E009F480E0DF91CF911F
:200C4000089580E090E0FACF1F93CF93DF93282F30E0F901EC5CF74F8491F901EC56F74F52
:200C6000D491F901EE54F74FC491CC23A9F0162F81110E94D205EC2FF0E0EE0FFF1FE8551D
:200C8000F74FA591B4918FB7F894EC91111108C0D095DE23DC938FBFDF91CF911F9108951A
:200CA000DE2BF8CF9091040189130BC0E6ECF8E0E4919FEF90930401E13049F028F0E2308E
:200CC00061F060E00C94240610926E00FACF90916F009D7F90936F00F4CF909170009D7F32
:200CE0009093700091E09093B0009091B100987F94609093B1001092B300E3CFCF93DF9391
:200D000090E0FC01EC56F74F24918E54974FFC0184918823C9F090E0880F991FFC01E05EF1
:200D2000F74FA591B491FC01E855F74FC591D49161110DC09FB7F8948C91209582238C9300
:200D40008881282328839FBFDF91CF910895623051F49FB7F8943C91822F809583238C93B8
:200D6000E8812E2BEFCF8FB7F894EC912E2B2C938FBFEACFCF92DF92EF92FF92CF936C01D2
:200D800080910401883049F08F3F09F44CC0CF91FF90EF90DF90CF900895E6ECF8E0C4919D
:200DA000C7FDF5CF61E088E00E947E06CC2319F0C23009F0D9C0F12CE12C60E271EA87E032
:200DC00090E0A70196010E94D328BA01A9014150510961097109C23009F094C092E04F3F54
:200DE00051056105710581F07CF068E478EE81E090E0A70196010E94D328BA01A90141508F
:200E000051096109710993E08091B100887F892B8093B100C13009F4BFC0C23009F4D1C0F3
:200E2000C111B5CF8FC088E080930401E6ECF8E0C491CF3F09F4ABCFC13021F150F0C230D4
:200E400009F43EC0C7FDA3CF61E088E00E947E06AFCF14BC15BC84B5826084BD85B58160FC
:200E600085BDEAEBF8E0E491F0E0EE0FFF1FE855F74F85919491ECE9F8E0E491E093550378
:200E8000C0E090CF10928000109281008091810088608093810080918100816080938100F9
:200EA000EAEBF8E0E491F0E0EE0FFF1FE855F74F85919491ECE9F8E0E491E093540372CF3A
:200EC0001092B0001092B1008091B00082608093B0008091B10081608093B100EAEBF8E0F3
:200EE000E491F0E0EE0FFF1FE855F74F859194919093530380935203ECE9F8E0E491E0935E
:200F0000510350CF4F3F510561057105A1F09CF064E274EF80E090E0A70196010E94D3282C
:200F2000BA01A901415051096109710994E0C1116BCF93E003C092E0C11166CF85B5887F0D
:200F4000892B85BD47BD8FEF9FEFDC0180935E0390935F03A0936003B093610380916E00F9
:200F6000826080936E0013CF960150E040E060E079E08DE390E00E94D328BA01A901415039
:200F8000510961097109C13009F044CF80918100887F816080938100509389004093880041
:200FA0008FEF9FEFDC0180935A0390935B03A0935C03B0935D0380916F00826080936F003E
:200FC000E6CE4093B3008FEF9FEFDC018093560390935703A0935803B09359038091700057
:200FE000826080937000D3CE3FB7F89480919F029091A002A091A102B091A20226B5A89B1D
:2010000005C02F3F19F00196A11DB11D3FBFBA2FA92F982F8827BC01CD01620F711D811D14
:20102000911D43E0660F771F881F991F4A95D1F708958F929F92AF92BF92CF92DF92EF92FA
:20104000FF924B015C010E94F4076B017C010E94F4076C197D098E099F09683E734081050A
:201060009105A8F321E0821A9108A108B10888EEC80E83E0D81EE11CF11C81149104A10429
:20108000B10429F7FF90EF90DF90CF90BF90AF909F908F9008952FB7F89460919B02709125
:2010A0009C0280919D0290919E022FBF08950F931F930E944B0860936A0370936B03809369
:2010C0006C0390936D0382E693E00E94E60497FF1DC00E944B0800916A0310916B03209181
:2010E0006C0330916D03601B710B820B930B00916603109167032091680330916903601769
:20110000710782079307F8F28FEF9FEF1F910F91089508950E944B08AB01BC014093AD02D4
:201120005093AE026093AF027093B0028091960290919702A0919802B09199022091A40262
:20114000481B590B6A0B7B0B211119C0443651056105710578F021E02093A4028C599F4F81
:20116000AF4FBF4F8093960290939702A0939802B09399026091A40283E00C9424064E310E
:20118000510561057105B0F31092A4024E96A11DB11DE8CF20E030E040E85FE36091D302CB
:2011A0007091D4028091D5029091D6020E949627811106C08EE00E94FB05282F822F08950B
:2011C0008EE00E94FB0521E0892BC1F320E0F6CF80914E03882331F08FE00E94FB05282F3B
:2011E000822F08958FE00E94FB0521E0892BC1F320E0F6CFCF92DF92EF92FF9284E00E9478
:20120000FB05019711F50E944B086B017C01C092A902D092AA02E092AB02F092AC020E9456
:201220004B086C197D098E099F09613D77408105910568F484E00E94FB05892B81F781E0B1
:20124000FF90EF90DF90CF90089580E0F9CF82E0F7CF0E94FA0891E0811101C090E09093CA
:2012600095020E94E80891E0811101C090E0909394020E94CA0891E0811101C090E090938D
:20128000930290919502809192029813E2CF90919402809191029813DCCF90919302809188
:2012A00090029813D6CF08954F925F926F927F928F929F92AF92BF92CF92DF92EF92FF9203
:2012C000CF93DF9300D000D0CDB7DEB769837A838B839C830E944B086B017C01C092AD028C
:2012E000D092AE02E092AF02F092B0020E944B080E949B274B015C01C701B6010E949B27A0
:201300002B013C0120E030E04AE754E469817A818B819C810E94FC279B01AC01C301B20158
:201320000E946E299B01AC01C501B4010E94962787FDDCCF0F900F900F900F90DF91CF91D6
:20134000FF90EF90DF90CF90BF90AF909F908F907F906F905F904F9008950F931F93CF93A6
:20136000DF938C01D62FC0E0C8010E94BA0662E370E080E090E00E94190888E00E94520614
:2013800068EC70E080E090E00E941908CF5FDC13EBCFDF91CF911F910F91089580919602D9
:2013A00090919702A0919802B09199024091AD025091AE026091AF027091B002481B590B9F
:2013C0006A0B7B0B2091A402211115C0403B54406105710578F021E02093A40280559B4F48
:2013E000AF4FBF4F8093960290939702A0939802B093990208954E31510561057105D0F3BE
:201400001092A4024E96A11DB11DECCFCF92DF92EF92FF920E949004BC01990F880B990BA3
:201420000E949D276B017C010E949004BC01990F880B990B0E949D27A70196010E946E29AD
:201440006B017C010E949004BC01990F880B990B0E949D27A70196010E946E296B017C010A
:201460000E949004BC01990F880B990B0E949D27A70196010E946E296B017C010E9490049D
:20148000BC01990F880B990B0E949D27A70196010E946E2920E030E040EA50E40E94DA29BF
:2014A00023E333E343E550E40E94FC2720E030EC4FE754E40E94DA2928E031E244E05DE341
:2014C0000E94DA296B017C012CEE31E548EB5DE30E94962787FF03C0C12CD12C7601C09280
:2014E0008C02D0928D02E0928E02F0928F0220E030E048EC52E4C701B6010E94FC270E94F8
:201500004C2A9B01AC012A54314041095109A4E6B0E00E94F2282AE530E040E050E00E9492
:20152000D328CA01B9010E949D276B017C0120E030E048EC52E40E94822A18166CF0C09238
:201540008802D0928902E0928A02F0928B02FF90EF90DF90CF90089580E090E0A8ECB2E494
:201560008093880290938902A0938A02B0938B02EECFCF92DF92EF92FF92CF93DF93EC012F
:20158000603282E07807D4F56F3F710519F014F06FEF70E0898128E830E0281B310987FD05
:2015A0003395220F331F220F331F6901330FEE08FF088A8128E532E0281B310987FD3395C1
:2015C000220F331F220F331F032E000C440B550B2C193D094E095F09DB0177FF02C0B0E02B
:2015E000A0E00E94FD282FEF30E040E050E00E94D328C20ED31EE41EF51EB601E881EC3077
:2016000060F5298188E890E0821B910927FD9395880F991F880F991F681779077CF02A81B4
:2016200088E592E0821B910927FD9395880F991F880F991F681779070CF4CB014FB7F8944D
:201640002E2F30E00297F901EE0FFF1FE20FF31FEC59FD4F928381834FBFDF91CF91FF9055
:20166000EF90DF90CF9008956091240370E08EE094E00E94B90A6091250370E088E094E08C
:201680000E94B90A6091260370E08BE094E00C94B90ACF93DF93C1EBD2E06B8570E08EE059
:2016A00094E00E94B90A6C8570E088E094E00E94B90A6D8570E08BE094E0DF91CF910C943E
:2016C000B90A60913A0370913B0380913C0390913D030E944C2A85E094E00C94B90A1F9323
:2016E000CF93DF93EC01162F88818C3008F04EC061E0812F0E947E068881282F30E0F90198
:20170000EE0FFF1FE20FF31FEC59FD4F1F736081607C612B608319821A822CE0622F0E94E6
:201720008C2A829FB001112430E020E0AB01420F531FFA01EE0FFF1FE40FF51FEC59FD4FBF
:20174000908196FD16C02F5F3F4F2C30310571F781110FC01092800082E0809381001092DE
:20176000850010928400B19A80916F00826080936F00E8818E2F90E0FC01EE0FFF1FE80FEA
:20178000F91FEC59FD4F8081806480838881DF91CF911F910895FC01909163029C3098F4B7
:2017A00081E0890F809363029083892F90E0FC01EE0FFF1FE80FF91FEC59FD4F8CED95E0D7
:2017C0009283818308958FEF80830895FC0101900020E9F73197AF01481B590BBC0182E643
:2017E00093E00C94AA048F929F92AF92BF920F931F93CF93DF93CDB7DEB7A1970FB6F8947A
:20180000DEBF0FBECDBF19A2423008F44AE08E010F5D1F4F842E912CB12CA12CA5019401C2
:201820000E943C29E62FB901CA01EA30F4F4E05DD801EE938D01232B242B252B79F790E013
:2018400080E0109719F0CD010E94E60BA1960FB6F894DEBF0FBECDBFDF91CF911F910F9179
:20186000BF90AF909F908F900895E95CE1CFBC01990F880B990B4AE00C94F30B682F70E0AF
:2018800090E080E04AE00C94F30B4F925F926F927F928F929F92AF92BF92CF92DF92EF9295
:2018A000FF92CF93DF936B017C01D42FAC019B010E94872A882391F087E291E0DF91CF9165
:2018C000FF90EF90DF90CF90BF90AF909F908F907F906F905F904F900C94E60B2601370184
:2018E000E89477F82FEF3FEF4FE75FE7C301B2010E94872A81110DC02FEF3FEF4FE75FE744
:201900005F01B2010E94962718161CF48BE291E0D5CF2FEF3FEF4FE75FE4C701B6010E94AF
:20192000822A18161CF48FE291E0C8CF2FEF3FEF4FE75FECC701B6010E94962787FDF3CF53
:2019400020E030E0A901C701B6010E949627912C812C87FF0AC06DE282E693E00E944A051A
:201960004C01F7FAF094F7F8F094CD2FA12C60E070E080E09FE3AD1640F420E030E040E2CE
:2019800051E40E94DA29A394F6CFA70196010E946E292B013C010E94532A5B016C014AE07E
:2019A0000E94F30B7C01E80CF91CDD23C1F1C601B5010E949B279B01AC01C301B2010E940C
:2019C0006D294B015C016EE282E693E00E944A05E80EF91EC15018F120E030E040E251E41E
:2019E000C501B4010E94FC272B013C010E94532A4B01B12CA12C4AE0C501B4010E94F30BE4
:201A0000E80EF91EC501B4010E949B279B01AC01C301B2010E946D294B015C01DBCFC701C7
:201A2000DF91CF91FF90EF90DF90CF90BF90AF909F908F907F906F905F904F900895CF9343
:201A4000DF930E94E60BEC0183E391E00E94E60B8C0F9D1FDF91CF91089580912A0388237D
:201A600029F062E08CE89AE00E94AD090E944B086093AD027093AE028093AF029093B002E2
:201A800086E391E00E941F0D0E944B08AB01BC018091AD029091AE02A091AF02B091B002DA
:201AA000805F984DAF4FBF4F481759076A077B0750F40E94E808813021F00E94FA088130B7
:201AC00019F7109250030895FC0124813581409103045091040424173507E1F480819181EC
:201AE0006091FF03709100040097D1F061157105A1F4232BC1F0FC01808190E008C0232B92
:201B000091F0FB01808190E091958195910921E0892B09F020E0822F08950E94A62CF7CFCB
:201B20006115710561F721E0F6CFFF920F931F93CF93DF9301EB12E0C0E2D0E0F801F19038
:201B40008F01CE010E94BD28F81621F06F2DCE010E94C5282196CF3BD10581F7DF91CF91A7
:201B60001F910F91FF900895CF93DF93FC0124813581232B79F0C081D181062E000C770BB1
:201B8000CE010E949B2C009729F08C1B9D0BDF91CF9108958FEF9FEFFACF2F923F924F9259
:201BA0005F926F927F928F929F92AF92BF92CF92DF92EF92FF920F931F93CF93DF9300D062
:201BC00000D0CDB7DEB7FC01448055804114510409F412C1FB01648075806114710409F450
:201BE0000BC17A016B019C838B83FA01A480B580A618B708FC0100811181A114B104B9F40D
:201C0000B9F4FFFF7181C8010E94C42C8C01009709F4F2C0F70160817181448155810E94F1
:201C2000802CF70184819581080F191FE9CFB7FC10C0FB01208031804201C801B1010E94AE
:201C4000C42C009709F44EC0860D971D8A0C9B1CF5CF3801F60160817181C8010E94C42C3C
:201C60002C01009729F14C01801A910AA401B801C3010E94802C680C791CF70160817181C0
:201C800044815581C3010E94802CF70184809580680C791CF60104811581040D151DEB81BC
:201CA000FC81848195818A0D9B1D95838483D2CFB801C3010F900F900F900F90DF91CF91B4
:201CC0001F910F91FF90EF90DF90CF90BF90AF909F908F907F906F905F904F903F902F9092
:201CE0000C94AF2C4814590409F486C0EB81FC81828193818815990578F4B4016F5F7F4F75
:201D0000C8010E94C32B009709F476C0EB81FC819183808393828282EB81FC810481158183
:201D20000150110917FD68C03801F601248035802114310409F460C0EB81FC8184809580EA
:201D40008114910409F458C08214930408F454C00815190520F03401F1E06F1A7108EB8148
:201D6000FC8140805180C2010FEF1FEF9201260D371D3A832983E981FA81E817F90788F0A7
:201D8000F601608171810E94C42C009751F09C01241935096216730608F498010196890150
:201DA000EACF17FD29C0200E311EC201820D931DA40142195309BC018A0D9B1D0E94892C2F
:201DC000EB81FC81848195818A0D9B1D9583848320813181820F931FFC011082EB81FC8183
:201DE00080819181F7016081718144815581800F911F0E94802C94CF0F900F900F900F90FE
:201E0000DF91CF911F910F91FF90EF90DF90CF90BF90AF909F908F907F906F905F904F900E
:201E20003F902F9008950F931F93CF93DF93EC0188819981009759F02A813B81261737077D
:201E400030F081E0DF91CF911F910F9108958B016F5F7F4F0E94C32B009759F09983888385
:201E60001B830A832C813D81232B59F7FC011082E8CF80E0E7CFEF92FF920F931F93CF930A
:201E8000DF936115710541F480E0DF91CF911F910F91FF90EF90089541155105B1F07B01BB
:201EA000EC010C811D81040F151FB8010E94130F882351F3288139818C819D81B701820F80
:201EC000931F0E94AF2C1D830C8381E0DECF0F931F93CF93DF938C01EB01FC0180819181E5
:201EE0000097E1F06881798161157105A9F0428153812C813D814217530770F00E94AF2C80
:201F00008C819D81F801958384831D821C82DF91CF911F910F9108950E943A2B888199815A
:201F2000F801918380838A819B81938382838C819D8195838483198218821B821A82E5CFE3
:201F4000CF93DF93EC0188819981009711F00E943A2B198218821D821C821B821A82DF91E3
:201F6000CF910895EF92FF920F931F93CF93DF93EC017B018A01BA010E94130F81110BC05A
:201F8000CE010E94A00FCE01DF91CF911F910F91FF90EF9008951D830C83B701888199817D
:201FA0000E94AF2CF0CFFB01DC0111961C921E9213961C921E92129715961C921E921497A3
:201FC0008617970749F0608171816115710521F0448155810C94B20F0895FC011182108202
:201FE0001382128215821482FB0101900020E9F73197AF01461B570B0C94B20FAF92BF92D0
:20200000CF92DF92EF92FF920F931F93CF93DF937C016B015A0189012417350720F48B2DA3
:202020005901042F182F65E371E0C7010E94ED0FD6011496CD91DC91AC16BD0620F50C17C4
:202040001D0708F4E801D601ED91FC911197EC0FFD1F108110826D917C916A0D7B1D611523
:202060007105E9F0FB0101900020E9F73197AF01461B570BC7010E94B20FF6018081918114
:20208000C80FD91F1883C701DF91CF911F910F91FF90EF90DF90CF90BF90AF900895C7011F
:2020A0000E94A00FEACFFC0180819181009711F00C943A2B0895CF92DF92EF92FF920F9346
:2020C0001F93CF93DF93CDB7DEB728970FB6F894DEBF0FBECDBF6C0165E371E0CE010196EF
:2020E0000E94ED0F10E000E0F12CE12CF601848195810817190790F5FFEFEF1AFF0AF6017B
:2021000080819181009741F1800F911FFC0180818F83188641E050E0BE01695F7F4FCE0181
:2021200001960E943B0FF1E1EF16F10491F44D815E8169817A8182E693E00E94AA0450E0DE
:2021400040E065E371E0CE0101960E94B20FF12CE12C0F5F1F4FCACF80E0DACF4D815E81A8
:2021600069817A8182E693E00E94AA04CE0101960E94531028960FB6F894DEBF0FBECDBFDF
:20218000DF91CF911F910F91FF90EF90DF90CF900895EF92FF920F931F93CF93DF93EC017F
:2021A0008B01198218821B821A821D821C82CB010E9407267C01BC01CE010E94130F8111EE
:2021C00009C0CE01DF91CF911F910F91FF90EF900C94A00FFD82EC82B80188819981DF91B1
:2021E000CF911F910F91FF90EF900C940026CF93DF9300D000D000D0CDB7DEB768E078E05E
:20220000CE0101960E94C910CE0101960E945B10CE0101960E94531060918C0270918D02F0
:2022200080918E0290918F0242E050E00E94450C60E078E0CE0101960E94C910CE01019627
:202240000E945B10CE0101960E945310609188027091890280918A0290918B0250E040E064
:202260000E94450C6AEF77E0CE0101960E94C910CE0101960E945B10CE0101960E945310FC
:2022800068EE77E0CE0101960E94C910CE0101960E945B10CE0101960E9453106091B1022E
:2022A0007091B20290E080E04AE00E94F30B6FED77E0CE0101960E94C910CE0101960E9433
:2022C0005B10CE0101960E94531063EC77E0CE0101960E94C910CE0101960E945B10CE015F
:2022E00001960E9453106091B1027091B20290E080E04AE00E94F30B6EEB77E0CE01019639
:202300000E94C910CE0101960E945B10CE0101960E94531060EB77E0CE0101960E94C910E1
:20232000CE0101960E945B10CE0101960E9453106CE977E0CE0101960E94C910CE010196CC
:202340000E945B10CE0101960E9453108091B4020E943E0C67E977E0CE0101960E94C910CA
:20236000CE0101960E945B10CE0101960E94531063E877E0CE0101960E94C910CE01019696
:202380000E945B10CE0101960E9453108091B5020E943E0C6EE777E0CE0101960E94C91084
:2023A000CE0101960E945B10CE0101960E9453106AE677E0CE0101960E94C910CE01019651
:2023C0000E945B10CE0101960E9453108091B6020E943E0C65E677E0CE0101960E94C9104D
:2023E000CE0101960E945B10CE0101960E94531067E577E0CE0101960E94C910CE01019615
:202400000E945B10CE0101960E94531063E477E0CE0101960E94C910CE0101960E945B1052
:20242000CE0101960E9453108091B8020E943E0C6EE377E0CE0101960E94C910CE0101968B
:202440000E945B10CE0101960E9453106AE277E0CE0101960E94C910CE0101960E945B100D
:20246000CE0101960E9453108091B9020E943E0C65E277E0CE0101960E94C910CE01019654
:202480000E945B10CE0101960E94531061E177E0CE0101960E94C910CE0101960E945B10D7
:2024A000CE0101960E9453108091BA020E943E0C6CE077E0CE0101960E94C910CE0101960E
:2024C0000E945B10CE0101960E9453106EEF76E0CE0101960E94C910CE0101960E945B107D
:2024E000CE0101960E9453106AEE76E0CE0101960E94C910CE0101960E945B10CE01019609
:202500000E9453108091BC020E943E0C65EE76E0CE0101960E94C910CE0101960E945B10FE
:20252000CE0101960E94531061ED76E0CE0101960E94C910CE0101960E945B10CE010196D2
:202540000E9453108091BD020E943E0C6CEC76E0CE0101960E94C910CE0101960E945B10B8
:20256000CE0101960E94531068EB76E0CE0101960E94C910CE0101960E945B10CE0101968D
:202580000E9453108091BE020E943E0C63EB76E0CE0101960E94C910CE0101960E945B1081
:2025A000CE0101960E9453106DE976E0CE0101960E94C910CE0101960E945B10CE0101964A
:2025C0000E94531067E876E0CE0101960E94C910CE0101960E945B10CE0101960E94531092
:2025E0006091BF027091C0028091C1029091C20242E050E00E94450C6FE776E0CE01019656
:202600000E94C910CE0101960E945B10CE0101960E9453106BE676E0CE0101960E94C910D9
:20262000CE0101960E945B10CE0101960E9453106091C3027091C4028091C5029091C6027E
:2026400042E050E00E94450C66E676E0CE0101960E94C910CE0101960E945B10CE010196D9
:202660000E94531062E576E0CE0101960E94C910CE0101960E945B10CE0101960E945310F9
:202680006091C7027091C8028091C9029091CA0242E050E00E94450C6DE476E0CE0101969A
:2026A0000E94C910CE0101960E945B10CE0101960E94531069E376E0CE0101960E94C9103E
:2026C000CE0101960E945B10CE0101960E9453106091CB027091CC028091CD029091CE02BE
:2026E00042E050E00E94450C64E376E0CE0101960E94C910CE0101960E945B10CE0101963E
:202700000E94531060E276E0CE0101960E94C910CE0101960E945B10CE0101960E9453105D
:202720006AE076E0CE0101960E94C910CE0101960E945B10CE0101960E9453106091CF0278
:202740007091D0028091D1029091D20242E050E00E94450C62E076E0CE0101960E94C9100F
:20276000CE0101960E945B10CE0101960E9453106EEE75E0CE0101960E94C910CE01019683
:202780000E945B10CE0101960E9453106091D3027091D4028091D5029091D60242E050E0F1
:2027A0000E94450C69EE75E0CE0101960E94C910CE0101960E945B10CE0101960E945310BB
:2027C00065ED75E0CE0101960E94C910CE0101960E945B10CE0101960E9453106091D702C9
:2027E0007091D8028091D9029091DA0242E050E00E94450C60ED75E0CE0101960E94C9104D
:20280000CE0101960E945B10CE0101960E9453106CEB75E0CE0101960E94C910CE010196E7
:202820000E945B10CE0101960E9453106091DB027091DC028091DD029091DE0242E050E030
:202840000E94450C67EB75E0CE0101960E94C910CE0101960E945B10CE0101960E9453101F
:2028600061EA75E0CE0101960E94C910CE0101960E945B10CE0101960E9453106BE875E051
:20288000CE0101960E94C910CE0101960E945B10CE0101960E9453106091DF027091E002C4
:2028A0008091E1029091E20242E050E00E94450C63E875E0CE0101960E94C910CE010196F3
:2028C0000E945B10CE0101960E9453106FE675E0CE0101960E94C910CE0101960E945B1082
:2028E000CE0101960E9453106091E3027091E4028091E5029091E60242E050E00E94450C6A
:202900006AE675E0CE0101960E94C910CE0101960E945B10CE0101960E94531066E575E0B3
:20292000CE0101960E94C910CE0101960E945B10CE0101960E9453106091E7027091E80213
:202940008091E9029091EA0242E050E00E94450C61E575E0CE0101960E94C910CE01019647
:202960000E945B10CE0101960E9453106DE375E0CE0101960E94C910CE0101960E945B10E6
:20298000CE0101960E9453106091EB027091EC028091ED029091EE0242E050E00E94450CA9
:2029A00068E375E0CE0101960E94C910CE0101960E945B10CE0101960E94531061E275E020
:2029C000CE0101960E94C910CE0101960E945B10CE0101960E9453106BE075E0CE01019632
:2029E0000E94C910CE0101960E945B10CE0101960E9453106091EF027091F0028091F102A5
:202A00009091F20242E050E00E94450C63E075E0CE0101960E94C910CE0101960E945B1070
:202A2000CE0101960E9453106FEE74E0CE0101960E94C910CE0101960E945B10CE010196C0
:202A40000E9453106091F3027091F4028091F5029091F60242E050E00E94450C6AEE74E082
:202A6000CE0101960E94C910CE0101960E945B10CE0101960E94531066ED74E0CE0101968A
:202A80000E94C910CE0101960E945B10CE0101960E9453106091F7027091F8028091F902EC
:202AA0009091FA0242E050E00E94450C61ED74E0CE0101960E94C910CE0101960E945B10BE
:202AC000CE0101960E9453106DEB74E0CE0101960E94C910CE0101960E945B10CE01019625
:202AE0000E9453106091FB027091FC028091FD029091FE0242E050E00E94450C68EB74E0C7
:202B0000CE0101960E94C910CE0101960E945B10CE0101960E94531061EA74E0CE010196F1
:202B20000E94C910CE0101960E945B10CE0101960E9453106AE874E0CE0101960E94C910B5
:202B4000CE0101960E945B10CE0101960E9453106091FF0270910003809101039091020366
:202B600042E050E00E94450C63E874E0CE0101960E94C910CE0101960E945B10CE010196B7
:202B80000E9453106FE674E0CE0101960E94C910CE0101960E945B10CE0101960E945310C8
:202BA0006091030370910403809105039091060342E050E00E94450C6AE674E0CE01019684
:202BC0000E94C910CE0101960E945B10CE0101960E94531066E574E0CE0101960E94C9101C
:202BE000CE0101960E945B10CE0101960E94531060910703709108038091090390910A03A5
:202C000042E050E00E94450C61E574E0CE0101960E94C910CE0101960E945B10CE0101961B
:202C20000E9453106DE374E0CE0101960E94C910CE0101960E945B10CE0101960E9453102C
:202C400060910B0370910C0380910D0390910E0342E050E00E94450C68E374E0CE010196C8
:202C60000E94C910CE0101960E945B10CE0101960E9453106FE174E0CE0101960E94C91076
:202C8000CE0101960E945B10CE0101960E94531067E074E0CE0101960E94C910CE01019674
:202CA0000E945B10CE0101960E94531060910F0370911003809111039091120342E050E0D8
:202CC0000E94450C60E074E0CE0101960E94C910CE0101960E945B10CE0101960E945310AE
:202CE0006BEE73E0CE0101960E94C910CE0101960E945B10CE0101960E9453106091130362
:202D000070911403809115039091160342E050E00E94450C66EE73E0CE0101960E94C9106B
:202D2000CE0101960E945B10CE0101960E94531061ED73E0CE0101960E94C910CE010196CD
:202D40000E945B10CE0101960E94531060911703709118038091190390911A0342E050E017
:202D60000E94450C6CEC73E0CE0101960E94C910CE0101960E945B10CE0101960E945310F6
:202D800067EB73E0CE0101960E94C910CE0101960E945B10CE0101960E94531060911B03C0
:202DA00070911C0380911D0390911E0342E050E00E94450C62EB73E0CE0101960E94C910BA
:202DC000CE0101960E945B10CE0101960E9453106FE973E0CE0101960E94C910CE01019623
:202DE0000E945B10CE0101960E9453106AE873E0CE0101960E94C910CE0101960E945B1062
:202E0000CE0101960E945310809120030E943E0C65E873E0CE0101960E94C910CE01019640
:202E20000E945B10CE0101960E94531060E773E0CE0101960E94C910CE0101960E945B102C
:202E4000CE0101960E945310809121030E943E0C6BE673E0CE0101960E94C910CE010196FB
:202E60000E945B10CE0101960E94531066E573E0CE0101960E94C910CE0101960E945B10E8
:202E8000CE0101960E945310809122030E943E0C61E573E0CE0101960E94C910CE010196C5
:202EA0000E945B10CE0101960E9453106FE373E0CE0101960E94C910CE0101960E945B10A1
:202EC000CE0101960E9453106AE273E0CE0101960E94C910CE0101960E945B10CE0101962E
:202EE0000E945310809124030E943E0C65E273E0CE0101960E94C910CE0101960E945B10BB
:202F0000CE0101960E94531060E173E0CE0101960E94C910CE0101960E945B10CE010196F8
:202F20000E945310809125030E943E0C6BE073E0CE0101960E94C910CE0101960E945B1075
:202F4000CE0101960E94531066EF72E0CE0101960E94C910CE0101960E945B10CE010196A5
:202F60000E945310809126030E943E0C61EF72E0CE0101960E94C910CE0101960E945B1030
:202F8000CE0101960E94531069ED72E0CE0101960E94C910CE0101960E945B10CE01019664
:202FA0000E94531067EB72E0CE0101960E94C910CE0101960E945B10CE0101960E945310A9
:202FC0008091270390E00E94370C62EB72E0CE0101960E94C910CE0101960E945B10CE019F
:202FE00001960E94531069E972E0CE0101960E94C910CE0101960E945B10CE0101960E9435
:2030000053108091280390E00E94370C64E972E0CE0101960E94C910CE0101960E945B10C9
:20302000CE0101960E94531067E772E0CE0101960E94C910CE0101960E945B10CE010196CB
:203040000E94531080912A0390E00E94370C62E772E0CE0101960E94C910CE0101960E9454
:203060005B10CE0101960E94531063E572E0CE0101960E94C910CE0101960E945B10CE01BD
:2030800001960E94531080912B0390E00E94370C6EE472E0CE0101960E94C910CE01019615
:2030A0000E945B10CE0101960E9453106BE372E0CE0101960E94C910CE0101960E945B10A4
:2030C000CE0101960E94531080912C0390E00E94370C66E372E0CE0101960E94C910CE01A5
:2030E00001960E945B10CE0101960E9453106CE172E0CE0101960E94C910CE0101960E9439
:203100005B10CE0101960E94531080912D0390E00E94370C67E172E0CE0101960E94C910C8
:20312000CE0101960E945B10CE0101960E94531069EF71E0CE0101960E94C910CE010196C1
:203140000E945B10CE0101960E94531060EE71E0CE0101960E94C910CE0101960E945B1004
:20316000CE0101960E94531060912E0370912F03809130039091310342E050E00E94450CB1
:2031800068ED71E0CE0101960E94C910CE0101960E945B10CE0101960E94531080912D0389
:2031A0008111D1C068EB71E0CE0101960E94C910CE0101960E945B10CE0101960E94531089
:2031C0006091320370913303809134039091350342E050E00E94450C63EB71E0CE010196A7
:2031E0000E94C910CE0101960E945B10CE0101960E94531063E271E0CE0101960E94C910FF
:20320000CE0101960E945B10CE0101960E9453106091420370914303809144039091450392
:2032200042E050E00E94450C6EE171E0CE0101960E94C910CE0101960E945B10CE010196EF
:203240000E94531060E071E0CE0101960E94C910CE0101960E945B10CE0101960E94531019
:203260006091460370914703809148039091490342E050E00E94450C6BEF70E0CE010196AB
:203280000E94C910CE0101960E945B10CE0101960E94531064EE70E0CE0101960E94C91052
:2032A000CE0101960E945B10CE0101960E94531068EC70E0CE0101960E94C910CE01019645
:2032C0000E945B10CE0101960E94531080914E0390E00E94370C63EC70E0CE0101960E9418
:2032E000C910CE0101960E945B10CE0101960E94531068EA70E0CE0101960E94C910CE01C5
:2033000001960E945B10CE0101960E94531080914F0390E00E94370C63EA70E0CE010196E3
:203320000E94C910CE0101960E945B10CE0101960E94531026960FB6F894DEBF0FBECDBF31
:20334000DF91CF91089566E971E0CE0101960E94C910CE0101960E945B10CE0101960E9404
:2033600053106091320370913303809134039091350342E050E00E94450C6EE871E0CE0131
:2033800001960E94C910CE0101960E945B10CE0101960E9453106EE671E0CE0101960E9490
:2033A000C910CE0101960E945B10CE0101960E94531060913A0370913B0380913C03909178
:2033C0003D0342E050E00E94450C69E671E0CE0101960E94C910CE0101960E945B10CE01A5
:2033E00001960E94531068E471E0CE0101960E94C910CE0101960E945B10CE0101960E9438
:20340000531060913E0370913F03809140039091410342E050E00E94450C63E471E0DECE92
:203420001F920F920FB60F9211242F933F934F935F936F937F938F939F93AF93BF93EF93B9
:20344000FF938091560390915703A0915803B0915903892B8A2B8B2BD1F190915103E09105
:203460005203F09153038081892780838091560390915703A0915803B09159031816190611
:203480001A061B069CF48091560390915703A0915803B09159030197A109B10980935603E5
:2034A00090935703A0935803B0935903FF91EF91BF91AF919F918F917F916F915F914F9192
:2034C0003F912F910F900FBE0F901F901895809104010E945206EACF1F920F920FB60F9274
:2034E00011242F933F934F935F936F937F938F939F93AF93BF93EF93FF9382E693E00E94A2
:203500002805FF91EF91BF91AF919F918F917F916F915F914F913F912F910F900FBE0F9013
:203520001F9018951F920F920FB60F9211242F938F939F93EF93FF93E0917203F09173033B
:203540008081E0917803F091790382FD1BC0908180917B038F5F8F7320917C03821741F09D
:20356000E0917B03F0E0EE59FC4F958F80937B03FF91EF919F918F912F910F900FBE0F901A
:203580001F9018958081F4CF1F920F920FB60F9211242F933F938F939F93AF93BF93809191
:2035A0009B0290919C02A0919D02B0919E0230919A0226E0230F2D3758F50296A11DB11D94
:2035C00020939A0280939B0290939C02A0939D02B0939E0280919F029091A002A091A1022D
:2035E000B091A2020196A11DB11D80939F029093A002A093A102B093A202BF91AF919F91CD
:203600008F913F912F910F900FBE0F901F90189529E8230F0396A11DB11DD2CF1F920F9238
:203620000FB60F9211242F933F934F935F936F937F938F939F93AF93BF93EF93FF93E09106
:203640000201F09103010995FF91EF91BF91AF919F918F917F916F915F914F913F912F91E4
:203660000F900FBE0F901F9018951F920F920FB60F9211242F933F934F935F936F937F937A
:203680008F939F93AF93BF93EF93FF93E0910001F09101010995FF91EF91BF91AF919F91CB
:2036A0008F917F916F915F914F913F912F910F900FBE0F901F9018951F920F920FB60F925B
:2036C00011242F933F934F935F936F937F938F939F93AF93BF93CF93DF93EF93FF93809158
:2036E0006202C0916302D0E087FF24C01092850010928400809162028F5F8093620280915E
:203700008002082E000C990B8C179D0724F4809162028C30C4F18091840090918500049627
:2037200080329E4408F47AC08091840090918500049676C080916202082E000C990B8C17B6
:203740009D07C4F6E09162028E2FEE0F990BFC01EE0FFF1FE80FF91FEC59FD4F808186FF9A
:20376000C9CFE09162028E2FEE0F990BFC01EE0FFF1FE80FF91FEC59FD4F808160E08F7383
:203780000E942406B7CF2091840030918500E09162028E2FEE0F990BFC01EE0FFF1FE80F1A
:2037A000F91FEC59FD4F81819281820F931F9093890080938800E09162028E2FEE0F990B8E
:2037C000FC01EE0FFF1FE80FF91FEC59FD4F808186FF11C0E09162028E2FEE0F990BFC01AA
:2037E000EE0FFF1FE80FF91FEC59FD4F808161E08F730E942406FF91EF91DF91CF91BF91CE
:20380000BF919F918F917F916F915F914F913F912F910F900FBE0F901F90189580E29EE44D
:2038200090938900809388008FEF80936202E3CFE2E6F3E01382128288EE93E0A0E0B0E0DD
:2038400084839583A683B78389E191E09183808385EC90E09587848784EC90E097878687E1
:2038600080EC90E0918B808B81EC90E0938B828B82EC90E0958B848B86EC90E0978B868B1B
:20388000118E128E138E148E62E471E089E594E00E94ED0F68E471E083E594E00E94ED0F78
:2038A0006DE471E08DE494E00E94ED0F61E571E087E494E00E94ED0F69E571E081E494E057
:2038C0000E94ED0F61E671E08BE394E00E94ED0F66E671E085E394E00E94ED0F6AE671E07A
:2038E0008FE294E00E94ED0F6CE871E089E294E00E94ED0F6EE671E083E294E00E94ED0F07
:2039000060E771E08DE194E00E94ED0F62E771E087E194E00E94ED0F6BEC71E081E194E0FD
:203920000E94ED0F8EE094E00E94CB0B8BE094E00E94CB0B88E094E00E94CB0B85E094E00B
:203940000E94CB0B65E371E08FEF93E00C94ED0FCF93DF93CDB7DEB76E970FB6F894DEBFE9
:203960000FBECDBF789484B5826084BD84B5816084BD85B5826085BD85B5816085BD80915F
:203980006E00816080936E0010928100809181008260809381008091810081608093810025
:2039A000809180008160809380008091B10084608093B1008091B00081608093B000809122
:2039C0007A00846080937A0080917A00826080937A0080917A008E7F80937A0080917A0052
:2039E000806880937A001092C10060E084E00E947E0662E082E00E947E0662E08FE00E9408
:203A00007E0662E08EE00E947E0661E083E00E947E0661E08BE00E947E0661E088E00E9465
:203A20007E0661E08CE00E947E0661E081E10E947E0661E080E10E947E0665E070E08EE09B
:203A400094E00E946F0B66E070E08BE094E00E946F0B6AE070E088E094E00E946F0B69E06A
:203A600070E085E094E00E946F0B68EE73E080E090E00E94190861E08BE00E94240613E05A
:203A800061E083E00E9424066EE170E080E090E00E94190860E083E00E94240668EC70E071
:203AA00080E090E00E941908115051F760E081E10E94240661E080E10E942406E091720308
:203AC000F091730382E08083E0916E03F0916F031082E0917003F091710389E1808310923B
:203AE0007A03E0917603F091770386E08083E0917403F0917503808180618083E09174034D
:203B0000F0917503808188608083E0917403F0917503808180688083E0917403F091750312
:203B200080818F7D808361E08CE00E9424060E94340B0E94610B0E94060A1092500381EAFB
:203B400094E09093010180930001809169008C7F826080936900E89AA8EE2A2EA3E03A2E7A
:203B6000E0915003EA3008F096C3F0E0E654F24E0C94982AC41D5821ED216E22D6222D232A
:203B80007424D524E824682584E791E00E941F0D0E94290960E081E10E94240661E08CE062
:203BA0000E9424060E94610B61E08CEF98E00E94AD09DD24D39482E693E00E94080518167F
:203BC00019060CF04CC08091A302811148C065E371E0CE0107960E94ED0F0E94570897FD36
:203BE0000FC08D37910561F089831A8241E050E0BE016F5F7F4FCE0107960E943B0FEDCFE3
:203C00000B851C850115110509F463C0AF80B8846BE770E0C5010E949B2C009709F459C03E
:203C20008A199B099927AC014F5F5F4F9801BE01695F7F4FCE0101960E94FE0FBE016F5FE4
:203C40007F4F8FEF93E00E94670FCE0101960E945310D092A302CE0107960E945310809199
:203C6000A302882379F083E594E00E94640D882399F161E088EB9BE00E94AD090E94950D9C
:203C80001092A3020E944B086093AD027093AE028093AF029093B0020E94CE096091A402EA
:203CA00083E00E9424060E94E808813009F0D7C28DED91E00E941F0D0E94950D61E08CE84E
:203CC0009AE00E94AD0960E083E00E94240681E0E0C28FEF9FEFA6CF89E594E00E94640D2A
:203CE000882309F46CC061E080E19EE00E94AD0960E090E080E00E94C52860E081E090E0C8
:203D00000E94C52800E210E060E0C8010E94C5280F5F1F4F003E83E01807B1F760E081E1C4
:203D20000E94240661E080E10E94240664E670E080E090E00E9419088AE791E00E94E60BA7
:203D400065E080E19EE00E94AD0967E174E0CE0101960E94D30F49E150E06EE871E0CE0191
:203D600001960E943B0F811104C0CE0101960E94A00F4091150450911604609111047091C7
:203D80001204CE0101960E943B0F811104C0CE0101960E94A00FBE016F5F7F4FCE010796E7
:203DA0000E94D30FCE0107960E945B10CE0107960E945310CE0101960E94531061CF8BE38C
:203DC00094E00E94640D882349F161E088EB9BE00E94AD098EE898E00E9497054AE060E05A
:203DE00076E980E090E00E94F30B83E391E00E94E60B87E898E00E94970588EA91E00E94E0
:203E00001F0D81E898E00E9497058EEA91E00E941F0D88E498E00E94970532CF8DE494E098
:203E20000E94640D8823B9F10E94060AF1EBAF2EF2E0BF2E00E210E0C8010E94BD28F501D8
:203E400081935F010F5F1F4F0F3B1105A9F763E274E0CE0101960E94D30FCE0101960E9487
:203E60005B10CE0101960E9453100E94F7106DE174E0CE0101960E94D30FCE0101960E942F
:203E80005B10CE0101960E94531061E088EB9BE00E94AD09F5CE87E494E00E94640D81117E
:203EA000F4CF81E494E00E94640D8111EECF40913304509134048091030490910404841707
:203EC000950708F4C1C18091FF0390910004009709F4BAC160912F0470913004611571053C
:203EE00009F4B2C10E94B62C892B09F0ADC16FEF73E0CE0149960E94D30F65E371E0CE0168
:203F000001960E94ED0FAE014F5F5F4F6FE274E0CE0149960E94CD0DCE0101960E94531027
:203F200065E371E0CE0101960E94ED0FAE014F5F5F4F69E274E0CE0149960E94CD0DCE0141
:203F400001960E9453106CE2CE0149960E94B40D9C0150E040E0BE01675E7F4FCE0143967F
:203F60000E94FE0F0D8D1E8D6CE2CE0149960E94B40DAC014F5F5F4F9801BE01675E7F4FFA
:203F8000CE0101960E94FE0FBE016F5F7F4FCE0149960E94670FCE0101960E9453106CE232
:203FA000CE0149960E94B40D9C0150E040E0BE01675E7F4FCE010D960E94FE0F0D8D1E8D4B
:203FC0006CE2CE0149960E94B40DAC014F5F5F4F9801BE01675E7F4FCE0101960E94FE0F79
:203FE000BE016F5F7F4FCE0149960E94670FCE0101960E945310BE01675E7F4FCE01079677
:204000000E94D30F8F819885812C912C5401009721F00E94D5254B015C018D859E8500E02E
:20402000009719F00E94D925062F8B899C89009791F00E94D925683009F4C5C070F5643007
:2040400009F48FC0B8F4623009F473C008F07FC0613009F451C069EB71E0CE0101960E9423
:20406000ED0FCE0101960E945B10CE0101960E9453104EC0602E712C663009F498C008F446
:204080007AC0F301EE0FFF1FEE0FFF1FEF54FD4F86A697A6A0AAB1AA79C06C3009F4B1C0DC
:2040A00088F4602E712C6A3009F4A3C008F499C0C501B4010E94532AF301E15EFC4F60830F
:2040C00070E06BC0623709F4A6C0633709F4B8C0613709F610E0095D1C4F7724739420E060
:2040E00030E0A901C501B4010E949627811101C0712CF80170820CC010E0000F111F0F54F3
:204100001D4FC501B4010E94532AF80171836083CE0107960E945310CE010D960E945310E1
:20412000CE0143960E945310CE0149960E945310A7CD10E0C501B4010E94532AF801EF54E5
:20414000FD4F628370E0000F111FF80129C010E0C501B4010E94532AF801EF54FD4F6683C2
:20416000F1CF10E0C501B4010E94532AF801EF54FD4F6287E7CFF301EE0FFF1FEE0FFF1FA4
:20418000EF54FD4F86869786A08AB18A002309F4BFCFC501B4010E944C2AF301EE0FFF1FB2
:2041A000E55FFE4F808191810E94B90AB1CFF301EE0FFF1FEE0FFF1FEF54FD4F868E978E84
:2041C000A0A2B1A2E3CF602E712CF301EE0FFF1FEE0FFF1FE151FD4F80829182A282B38257
:2041E000D5CFF301EE0FFF1FEE0FFF1FE150FD4FF3CFF301EE0FFF1FEE0FFF1FE15FFC4FFD
:20420000FC4F10E0C501B4010E94532AF801ED5DFC4F608397CF84E0089FF0011124E25D82
:20422000FC4F80829182A282B3820350023008F06FCFC501B4010E944C2A85E094E0B4CF1B
:2042400010E0065B1C4F49CF67E174E0CE0101960E94D30F4FE050E06DEC71E080CD0E940C
:20426000FA08813009F424CD0E94FA08823009F0A2CC88EE91E00E941F0D0E94950D61E0A6
:204280008CEF98E00E94AD0960E083E00E94240689E08093500380E090E0892B09F460CCE8
:2042A0000E941405882309F457CC0E94000054CC82EF91E00E941F0D6091B40270E08EE0A1
:2042C00094E00E94B90A6091B50270E088E094E00E94B90A6091B60270E08BE094E00E9452
:2042E000B90A0E9429098090420390904303A0904403B090450320E030E0A901C501B40138
:204300000E94822A18160CF051C089EF91E00E941F0D0E944B084B015C018092AD029092DC
:20432000AE02A092AF02B092B0020E944B080E949B272B013C0120E030E04AE754E46091CA
:2043400042037091430380914403909145030E94FC276B017C01C501B4010E949B279B01E7
:20436000AC01C701B6010E946E299B01AC01C301B2010E94962787FF08C00E94E808813028
:2043800021F00E94FA08813081F60E94E808813011F482E07ECF0E94FA08813019F4109245
:2043A000500379CF0E94610B87E073CF20E030E0A901C501B4010E94962781119CCF8FE0AB
:2043C00092E00E941F0D0E94E808813011F30E94FA08813009F087CFE2CF8BE092E00E9482
:2043E0001F0D60913E0370913F0380914003909141030E944C2A85E094E00E94B90A0E946B
:204400004B084B015C018092AD029092AE02A092AF02B092B0020E944B080E949B272B01B1
:204420003C0120E030E04AE754E460912E0370912F0380913003909131030E94FC276B01A7
:204440007C01C501B4010E949B279B01AC01C701B6010E946E299B01AC01C301B2010E949D
:20446000962787FF08C00E94E808882321F00E94CA08813081F60E94E808882309F427CC1A
:204480006091B80270E08EE094E00E94B90A6091B90270E088E094E00E94B90A6091BA02F0
:2044A00070E08BE094E00E94B90A0E94E808882371F00E94E8088130C1F70E94CA088130AA
:2044C000A1F780912D03882339F083E0E2CE0E94CA088111EECFFBCB84E0DBCE8FE192E0A4
:2044E0000E941F0D0E94490B0E94610B0E94CA08813039F4809127038823C1F30E948A08CA
:20450000F5CF0E94CA088111F1CF60E083E00E9424060E944B084B015C018092AD02909221
:20452000AE02A092AF02B092B0020E944B080E949B272B013C0120E030E04AE754E46091C8
:2045400032037091330380913403909135030E94FC276B017C01C501B4010E949B279B0125
:20456000AC01C701B6010E946E299B01AC01C301B2010E94962787FF08C00E94E80888232C
:2045800021F00E94CA08813081F60E94E808811102C085E07ECE0E94E808813009F4F9CED0
:2045A0000E94CA08813009F0A1CF8FCF8DE292E00E941F0D0E94490B0E944B084B015C01CC
:2045C0008092A9029092AA02A092AB02B092AC020E94E808813039F4809127038823C1F377
:2045E0000E948A08F5CF20E030E0A901609132037091330380913403909135030E94822ABD
:2046000018163CF60E944B080E949B272B013C0120E030E04AE754E46091320370913303A2
:2046200080913403909135030E94FC276B017C01C501B4010E949B279B01AC01C701B60184
:204640000E946E299B01AC01C301B2010E94822A18160CF09ECF86E01CCE88E392E00E94AD
:204660001F0D0E944B086093A5027093A6028093A7029093A8026091C3027091C4028091BD
:20468000C5029091C6020E944C2A8EE094E00E94B90A6091C7027091C8028091C902909189
:2046A000CA020E944C2A88E094E00E94B90A6091CB027091CC028091CD029091CE020E94D5
:2046C0004C2A8BE094E00E94B90A6091BF027091C0028091C1029091C2020E945409609102
:2046E000D3027091D4028091D5029091D6020E944C2A8EE094E00E94B90A6091D702709103
:20470000D8028091D9029091DA020E944C2A88E094E00E94B90A6091DB027091DC028091BF
:20472000DD029091DE020E944C2A8BE094E00E94B90A6091CF027091D0028091D1029091A3
:20474000D2020E9454096091E3027091E4028091E5029091E6020E944C2A8EE094E00E942C
:20476000B90A6091E7027091E8028091E9029091EA020E944C2A88E094E00E94B90A60915E
:20478000EB027091EC028091ED029091EE020E944C2A8BE094E00E94B90A6091DF027091FD
:2047A000E0028091E1029091E2020E9454096091F3027091F4028091F5029091F6020E947F
:2047C0004C2A8EE094E00E94B90A6091F7027091F8028091F9029091FA020E944C2A88E08E
:2047E00094E00E94B90A6091FB027091FC028091FD029091FE020E944C2A8BE094E00E9429
:20480000B90A6091EF027091F0028091F1029091F2020E94540960910303709104038091D8
:204820000503909106030E944C2A8EE094E00E94B90A6091070370910803809109039091A2
:204840000A030E944C2A88E094E00E94B90A60910B0370910C0380910D0390910E030E94EE
:204860004C2A8BE094E00E94B90A6091FF027091000380910103909102030E94540960915D
:2048800013037091140380911503909116030E944C2A8EE094E00E94B90A6091170370911C
:2048A00018038091190390911A030E944C2A88E094E00E94B90A60911B0370911C038091D9
:2048C0001D0390911E030E944C2A8BE094E00E94B90A60910F0370911003809111039091BD
:2048E00012030E945409B7CE80E492E00E941F0D6091200370E08EE094E00E94B90A6091DF
:20490000210370E088E094E00E94B90A6091220370E08BE094E00E94B90A0E944B08AB0197
:20492000BC018091B1029091B202829D9001839D300D929D300D11248091A5029091A602F2
:20494000A091A702B091A802820F931FA11DB11D481759076A077B07E8F48091280388234E
:2049600089F00E944B086093AD027093AE028093AF029093B0020E94CE096091A40283E068
:204980000E9424060E94E808813021F00E94FA08813019F60E94E808813009F400CD0E94E4
:2049A000FA08813009F000CDFACC84E492E00E941F0D63E08CE89AE00E94AD090E94340BA6
:2049C00060E070E080E090E40E94540988E061CC87E492E00E941F0D80912B03882321F039
:2049E00060E08CE00E94240620E030E0A901609146037091470380914803909149030E9495
:204A0000962781110CC08DE492E00E941F0D80915003883009F03FCC0E942D0DF8CF84E59E
:204A200092E00E941F0D0E944B086093A9027093AA028093AB029093AC020E944B080E94CC
:204A40009B274B015C0120E030E04AE754E4609146037091470380914803909149030E9482
:204A6000FC2720E030E040E752E40E94FC272B013C016091A9027091AA028091AB02909150
:204A8000AC020E949B279B01AC01C301B2010E946E299B01AC01C501B4010E94962787FF62
:204AA0000CC00E942D0D0E94E808813021F00E94FA08813011F6109250030E94E808813066
:204AC00009F46DCC0E94FA08813009F0E1CB67CC80E592E00E941F0D8CED95E00E94BA067E
:204AE00064EF71E080E090E00E94190888E00E94520664EF71E080E090E00E9419088CED6D
:204B000095E00E94BA0664EF71E080E090E00E94190888E00E94520664EF71E080E090E0B1
:204B20000E94190860E070E080E89FE30E94540960E08BE00E942406AECB8FEF93E00E94B6
:204B4000531081E194E00E94531087E194E00E9453108DE194E00E94531083E294E00E94D4
:204B6000531089E294E00E9453108FE294E00E94531085E394E00E9453108BE394E00E949F
:204B8000531081E494E00E94531087E494E00E9453108DE494E00E94531083E594E00E9488
:204BA000531089E594E00C945310662777270C9425261F93FC0199278827BC01E89411919E
:204BC0001032E9F3193010F01E30C8F31B3251F01D3249F4689406C00E941026610F711DB3
:204BE000811D911D119110531A30B0F33EF490958095709561957F4F8F4F9F4F1F91089529
:204C0000FB01DC0105900D920020E1F70895FC0105900020E9F7809590958E0F9F1F08952E
:204C2000592F482F372F262F660F771F881F991F660F771F881F991F620F731F841F951F8C
:204C4000660F771F881F991F0895B0E0A0E0EBE2F6E20C940B295C017B016115710519F0F6
:204C6000DB018D939C9385010F5F1F4FF501D0818D2F90E00E9475276C01892BB9F5DD3218
:204C8000B9F50F5F1F4FD5011196DC91C1E05801F1E0AF1AB10843E050E060E770E0C501A3
:204CA0000E947E27892B69F5680182E0C80ED11C45E050E06BE670E0C6010E947E27892B55
:204CC00021F4680197E0C90ED11CE114F10419F0D701CD92DC9260E070E080E89FEFC1112B
:204CE000FFC060E070E080E89FE7FAC05801BBCFDB3229F485010E5F1F4FF501D181C0E067
:204D0000C6CF43E050E068E670E0C5010E947E27892BE9F0F80110E000E020E030E0A901F0
:204D20005F01B0ED8B2E8D0E89E08815C8F19C2E689491F88C2F8870C2FF16C0811102C076
:204D40000F5F1F4F3196D501DC91C92DE9CFE114F10429F00E5F1F4FF7011183008360E092
:204D600070E080EC9FE7BCC0882311F001501109A5E0B0E00E94F2289B01AC01220F331FC1
:204D8000441F551F280D311D411D511D283999E93907490799E15907A8F2C6609C2ED2CF75
:204DA000AEEF8A1206C0C3FD3CC09C2E689493F8C9CFDF7DD534A9F580818D3239F4C0613E
:204DC000DF011296818162E070E006C0DF018B32C1F3119661E070E080535D01A61AB70AB6
:204DE0008A30F8F4E0E8CE16ECE0DE065CF4B601660F771F660F771FC60ED71ECC0CDD1CFA
:204E0000C80ED11C5D01FFEFAF1ABF0A8C9180538A30A8F1C4FF03C0D194C194D1080C0D7C
:204E20001D1DC1FF09C0E114F10431F081E0A81AB108D701AD92BC92CA01B9010E949B277A
:204E4000C370C33009F490584B015C0120E030E0A9010E949627882309F440C0CFE9D0E075
:204E600017FF05C0119501951109C7E8D0E06E01B8E1CB1AD10880E2E82EF12C0FC0D501A2
:204E8000B1CFFE0125913591459154910E191F09C501B4010E94FC274B015C01D501C40189
:204EA0000E151F0574F72497F594E794CC16DD06A9F78A2F880F8B2F881F8F3F49F020E064
:204EC00030E0A901C501B4010E949627811106C082E290E09093600480935F04C501B4019A
:204EE000CDB7DEB7ECE00C94272991110C946928803219F089508550C8F70895FB01DC016C
:204F00004150504088F08D9181341CF08B350CF4805E659161341CF06B350CF4605E861BE5
:204F2000611171F3990B0895881BFCCF0E94D82708F481E00895E89409C097FB3EF4909523
:204F40008095709561957F4F8F4F9F4F9923A9F0F92F96E9BB279395F695879577956795F2
:204F6000B795F111F8CFFAF4BB0F11F460FF1BC06F5F7F4F8F4F9F4F16C0882311F096E9BC
:204F800011C0772321F09EE8872F762F05C0662371F096E8862F70E060E02AF09A95660F84
:204FA000771F881FDAF7880F9695879597F90895990F0008550FAA0BE0E8FEEF1616170611
:204FC000E807F907C0F012161306E407F50798F0621B730B840B950B39F40A2661F0232B5C
:204FE000242B252B21F408950A2609F4A140A6958FEF811D811D08950E940F280C9483289C
:205000000E94752838F00E947C2820F0952311F00C946C280C94722811240C94B7280E9456
:20502000942870F3959FC1F3950F50E0551F629FF001729FBB27F00DB11D639FAA27F00DA1
:20504000B11DAA1F649F6627B00DA11D661F829F2227B00DA11D621F739FB00DA11D621FB5
:20506000839FA00D611D221F749F3327A00D611D231F849F600D211D822F762F6A2F1124D6
:205080009F5750409AF0F1F088234AF0EE0FFF1FBB1F661F771F881F91505040A9F79E3F95
:2050A000510580F00C946C280C94B7285F3FE4F3983ED4F3869577956795B795F795E795EE
:2050C0009F5FC1F7FE2B880F911D9695879597F9089599278827089597F99F6780E870E0DE
:2050E00060E008959FEF80EC089500240A941616170618060906089500240A941216130664
:20510000140605060895092E0394000C11F4882352F0BB0F40F4BF2B11F460FF04C06F5F23
:205120007F4F8F4F9F4F089557FD9058440F551F59F05F3F71F04795880F97FB991F61F0DF
:205140009F3F79F087950895121613061406551FF2CF4695F1DF08C0161617061806991F2D
:20516000F1CF86957105610508940895E894BB2766277727CB0197F90895F999FECF92BD0F
:2051800081BDF89A992780B50895262FF999FECF1FBA92BD81BD20BD0FB6F894FA9AF99A3E
:2051A0000FBE01960895052E97FB1EF400940E94EA2857FD07D00E943C2907FC03D04EF485
:2051C0000C94EA2850954095309521953F4F4F4F5F4F089590958095709561957F4F8F4F90
:2051E0009F4F08950E945E29A59F900DB49F900DA49F800D911D11240895B7FF0C94F2286A
:205200000E94F228821B930B08952F923F924F925F926F927F928F929F92AF92BF92CF923F
:20522000DF92EF92FF920F931F93CF93DF93CDB7DEB7CA1BDB0B0FB6F894DEBF0FBECDBF98
:2052400009942A88398848885F846E847D848C849B84AA84B984C884DF80EE80FD800C81DB
:205260001B81AA81B981CE0FD11D0FB6F894DEBF0FBECDBFED010895A1E21A2EAA1BBB1B2A
:20528000FD010DC0AA1FBB1FEE1FFF1FA217B307E407F50720F0A21BB30BE40BF50B661F1C
:2052A000771F881F991F1A9469F760957095809590959B01AC01BD01CF010895A29FB00151
:2052C000B39FC001A39F700D811D1124911DB29F700D811D1124911D08955058BB27AA2734
:2052E0000E9485290C9483280E94752838F00E947C2820F039F49F3F19F426F40C947228EA
:205300000EF4E095E7FB0C946C28E92F0E94942858F3BA17620773078407950720F079F4E7
:20532000A6F50C94B6280EF4E0950B2EBA2FA02D0B01B90190010C01CA01A0011124FF27C3
:20534000591B99F0593F50F4503E68F11A16F040A22F232F342F4427585FF3CF469537951C
:205360002795A795F0405395C9F77EF41F16BA0B620B730B840BBAF09150A1F0FF0FBB1F73
:20538000661F771F881FC2F70EC0BA0F621F731F841F48F4879577956795B795F7959E3F30
:2053A00008F0B0CF9395880F08F09927EE0F9795879508950E94EE290C9483280E947C28D3
:2053C00058F00E94752840F029F45F3F29F00C946C2851110C94B7280C9472280E94942895
:2053E00068F39923B1F3552391F3951B550BBB27AA2762177307840738F09F5F5F4F220FB0
:20540000331F441FAA1FA9F335D00E2E3AF0E0E832D091505040E695001CCAF72BD0FE2F4C
:2054200029D0660F771F881FBB1F261737074807AB07B0E809F0BB0B802DBF01FF27935896
:205440005F4F3AF09E3F510578F00C946C280C94B7285F3FE4F3983ED4F3869577956795F1
:20546000B795F7959F5FC9F7880F911D9695879597F90895E1E0660F771F881FBB1F621717
:2054800073078407BA0720F0621B730B840BBA0BEE1F88F7E09508950E94532A6894B1116C
:2054A0000C94B72808950E949C2888F09F5798F0B92F9927B751B0F0E1F0660F771F881FA1
:2054C000991F1AF0BA95C9F714C0B13091F00E94B628B1E008950C94B628672F782F8827AD
:2054E000B85F39F0B93FCCF3869577956795B395D9F73EF490958095709561957F4F8F4F67
:205500009F4F08950E94D82708F48FEF08950E94D827880B990B0895991B79E004C0991F4A
:20552000961708F0961B881F7A95C9F780950895EE0FFF1F0590F491E02D09940F931F93BA
:20554000CF93DF938230910510F482E090E0E0916304F091640430E020E0B0E0A0E03097B1
:2055600099F42115310509F44AC0281B390B24303105D8F58A819B816115710589F1FB01C4
:2055800093838283FE0111C0408151810281138148175907E0F04817590799F4109761F0A3
:2055A00012960C93129713961C933296CF01DF91CF911F910F910895009363041093640449
:2055C000F4CF2115310551F04217530738F0A901DB019A01BD01DF01F801C1CFEF01F9CF80
:2055E0009093640480936304CDCFFE01E20FF31F819391932250310939832883D7CF209166
:20560000610430916204232B41F4209107013091080130936204209361042091050130913F
:2056200006012115310541F42DB73EB74091090150910A01241B350BE0916104F0916204E6
:20564000E217F307A0F42E1B3F0B2817390778F0AC014E5F5F4F2417350748F04E0F5F1FB7
:205660005093620440936104819391939FCFF0E0E0E09CCFCF93DF930097E9F0FC013297FE
:2056800013821282A0916304B0916404ED0130E020E01097A1F420813181820F931F20911F
:2056A0006104309162042817390709F061C0F0936204E0936104DF91CF910895EA01CE17C7
:2056C000DF07E8F54A815B819E0141155105B1F7E901FB83EA8349915991C40FD51FEC170A
:2056E000FD0761F4808191810296840F951FE90199838883828193819B838A83F0E0E0E07C
:2057000012968D919C9113970097B9F52D913C911197CD010296820F931F209161043091F4
:2057200062042817390739F6309751F51092640410926304B0936204A0936104BCCFD38313
:20574000C28340815181840F951FC817D90761F44E5F5F4F88819981480F591F5183408332
:205760008A819B81938382832115310509F0B0CFF0936404E09363049ECFFD01DC01C0CF67
:2057800013821282D7CFB0E0A0E0E9ECFBE20C9407298C01009751F4CB010E949E2A8C017C
:2057A000C801CDB7DEB7E0E10C942329FC01E60FF71F9C0122503109E217F30708F49DC0BD
:2057C000D901CD91DC911197C617D70798F0C530D10530F3CE0104978617970708F3C61BCA
:2057E000D70B2297C193D1936D937C93CF010E943A2BD6CF5B01AC1ABD0A4C018C0E9D1E40
:20580000A0916304B0916404512C412CF12CE12C109731F58091610490916204881599052E
:2058200009F05CC04616570608F058C08091050190910601009741F48DB79EB7409109010B
:2058400050910A01841B950BE817F90708F055C0F0936204E0936104F90171836083A0CF10
:205860008D919C91119712966C90129713967C901397A815B90559F56C0142E0C40ED11C72
:20588000CA14DB0420F1AC014A195B09DA011296159780F06282738251834083D9016D93DD
:2058A0007C93E114F10471F0D7011396FC93EE93129776CF22968C0F9D1FF90191838083EF
:2058C000F301EFCFF0936404E093630469CF4816590608F42C017D01D3019ACFCB010E940A
:2058E0009E2A7C01009749F0AE01B8010E94802CC8010E943A2B870153CF10E000E050CF74
:20590000FB01DC0102C001900D9241505040D8F708956817790768F4FB01DC01E40FF51FF4
:20592000A40FB51F02C002900E9241505040D8F708950C94802CFC018191861721F08823AB
:20594000D9F7992708953197CF010895FB01DC018D91019080190110D9F3990B0895FB01AA
:20596000DC0101900D920020E1F70895FB01DC014150504030F08D910190801919F40020F6
:20598000B9F7881B990B0895FB0151915523A9F0BF01DC014D9145174111E1F759F4CD0168
:2059A0000190002049F04D9140154111C9F3FB014111EFCF81E090E00197089514E0C5E60B
:2059C000D4E004C0FE010E94982A2196C636D107C9F7F894FFCF89088908FF00006504803D
:2059E0000000000E0408040B040504000000004A05AA04D704B2050805E604FA046E616EB0
:205A000000696E66006F7666000D0A0077616974203130736563730072657365740073610C
:205A2000766500676574006765745F677073006765745F616C740068656C70003C633A0000
:205A40003C753A00240023007B005345545550003C53545F4E414D453D4646542054696D3E
:205A600065723E00726573657420746F20666163746F72792064656661756C7473005245C4
:205A8000562D4800323032312D30332D3137007B6E6F207375636820706172616D657465B7
:205AA000727D00556E6B6E6F776E20636F6D6D616E6400737730206F722073773100535708
:205AC0005F30204C4F4E4700434952434C45004349523A7761697420666F72204C4F53549F
:205AE00020544F57004349523A4E4F204C4F535420746F770041434320736572765F686F1E
:205B00006F6B004143432073696D706C650052454C4541534500464C5900445400534C45D2
:185B20004550006E6F204F4646007761697420666F72204F46460000E9
:00000001FF
